{
	"contracts/SimswapERC20.sol": {
		"SimswapERC20": {
			"abi": [
				{
					"inputs": [],
					"stateMutability": "nonpayable",
					"type": "constructor"
				},
				{
					"anonymous": false,
					"inputs": [
						{
							"indexed": true,
							"internalType": "address",
							"name": "owner",
							"type": "address"
						},
						{
							"indexed": true,
							"internalType": "address",
							"name": "spender",
							"type": "address"
						},
						{
							"indexed": false,
							"internalType": "uint256",
							"name": "amount",
							"type": "uint256"
						}
					],
					"name": "Approval",
					"type": "event"
				},
				{
					"anonymous": false,
					"inputs": [
						{
							"indexed": true,
							"internalType": "address",
							"name": "from",
							"type": "address"
						},
						{
							"indexed": true,
							"internalType": "address",
							"name": "to",
							"type": "address"
						},
						{
							"indexed": false,
							"internalType": "uint256",
							"name": "amount",
							"type": "uint256"
						}
					],
					"name": "Transfer",
					"type": "event"
				},
				{
					"inputs": [],
					"name": "DOMAIN_SEPARATOR",
					"outputs": [
						{
							"internalType": "bytes32",
							"name": "",
							"type": "bytes32"
						}
					],
					"stateMutability": "view",
					"type": "function"
				},
				{
					"inputs": [
						{
							"internalType": "address",
							"name": "owner",
							"type": "address"
						},
						{
							"internalType": "address",
							"name": "spender",
							"type": "address"
						}
					],
					"name": "allowance",
					"outputs": [
						{
							"internalType": "uint256",
							"name": "",
							"type": "uint256"
						}
					],
					"stateMutability": "view",
					"type": "function"
				},
				{
					"inputs": [
						{
							"internalType": "address",
							"name": "spender",
							"type": "address"
						},
						{
							"internalType": "uint256",
							"name": "amount",
							"type": "uint256"
						}
					],
					"name": "approve",
					"outputs": [
						{
							"internalType": "bool",
							"name": "",
							"type": "bool"
						}
					],
					"stateMutability": "nonpayable",
					"type": "function"
				},
				{
					"inputs": [
						{
							"internalType": "address",
							"name": "account",
							"type": "address"
						}
					],
					"name": "balanceOf",
					"outputs": [
						{
							"internalType": "uint256",
							"name": "",
							"type": "uint256"
						}
					],
					"stateMutability": "view",
					"type": "function"
				},
				{
					"inputs": [],
					"name": "decimals",
					"outputs": [
						{
							"internalType": "uint8",
							"name": "",
							"type": "uint8"
						}
					],
					"stateMutability": "pure",
					"type": "function"
				},
				{
					"inputs": [],
					"name": "name",
					"outputs": [
						{
							"internalType": "string",
							"name": "",
							"type": "string"
						}
					],
					"stateMutability": "pure",
					"type": "function"
				},
				{
					"inputs": [
						{
							"internalType": "address",
							"name": "owner",
							"type": "address"
						}
					],
					"name": "nonces",
					"outputs": [
						{
							"internalType": "uint256",
							"name": "",
							"type": "uint256"
						}
					],
					"stateMutability": "view",
					"type": "function"
				},
				{
					"inputs": [
						{
							"internalType": "address",
							"name": "owner",
							"type": "address"
						},
						{
							"internalType": "address",
							"name": "spender",
							"type": "address"
						},
						{
							"internalType": "uint256",
							"name": "amount",
							"type": "uint256"
						},
						{
							"internalType": "uint256",
							"name": "deadline",
							"type": "uint256"
						},
						{
							"internalType": "uint8",
							"name": "v",
							"type": "uint8"
						},
						{
							"internalType": "bytes32",
							"name": "r",
							"type": "bytes32"
						},
						{
							"internalType": "bytes32",
							"name": "s",
							"type": "bytes32"
						}
					],
					"name": "permit",
					"outputs": [],
					"stateMutability": "nonpayable",
					"type": "function"
				},
				{
					"inputs": [],
					"name": "symbol",
					"outputs": [
						{
							"internalType": "string",
							"name": "",
							"type": "string"
						}
					],
					"stateMutability": "pure",
					"type": "function"
				},
				{
					"inputs": [],
					"name": "totalSupply",
					"outputs": [
						{
							"internalType": "uint256",
							"name": "",
							"type": "uint256"
						}
					],
					"stateMutability": "view",
					"type": "function"
				},
				{
					"inputs": [
						{
							"internalType": "address",
							"name": "account",
							"type": "address"
						},
						{
							"internalType": "uint256",
							"name": "amount",
							"type": "uint256"
						}
					],
					"name": "transfer",
					"outputs": [
						{
							"internalType": "bool",
							"name": "",
							"type": "bool"
						}
					],
					"stateMutability": "nonpayable",
					"type": "function"
				},
				{
					"inputs": [
						{
							"internalType": "address",
							"name": "from",
							"type": "address"
						},
						{
							"internalType": "address",
							"name": "to",
							"type": "address"
						},
						{
							"internalType": "uint256",
							"name": "amount",
							"type": "uint256"
						}
					],
					"name": "transferFrom",
					"outputs": [
						{
							"internalType": "bool",
							"name": "",
							"type": "bool"
						}
					],
					"stateMutability": "nonpayable",
					"type": "function"
				}
			],
			"devdoc": {
				"kind": "dev",
				"methods": {},
				"version": 1
			},
			"evm": {
				"assembly": "    /* \"contracts/SimswapERC20.sol\":153:6602  contract SimswapERC20 is ISimswapERC20 {\r... */\n  mstore(0x40, 0xc0)\n    /* \"contracts/SimswapERC20.sol\":1967:2094  constructor() {\r... */\n  callvalue\n  dup1\n  iszero\n  tag_1\n  jumpi\n  0x00\n  dup1\n  revert\ntag_1:\n  pop\n    /* \"contracts/SimswapERC20.sol\":2011:2024  block.chainid */\n  chainid\n    /* \"contracts/SimswapERC20.sol\":1992:2024  INITIAL_CHAIN_ID = block.chainid */\n  0x80\n  dup2\n  dup2\n  mstore\n  pop\n  pop\n    /* \"contracts/SimswapERC20.sol\":2062:2086  computeDomainSeparator() */\n  tag_4\n    /* \"contracts/SimswapERC20.sol\":2062:2084  computeDomainSeparator */\n  shl(0x20, tag_5)\n    /* \"contracts/SimswapERC20.sol\":2062:2086  computeDomainSeparator() */\n  0x20\n  shr\n  jump\t// in\ntag_4:\n    /* \"contracts/SimswapERC20.sol\":2035:2086  INITIAL_DOMAIN_SEPARATOR = computeDomainSeparator() */\n  0xa0\n  dup2\n  dup2\n  mstore\n  pop\n  pop\n    /* \"contracts/SimswapERC20.sol\":153:6602  contract SimswapERC20 is ISimswapERC20 {\r... */\n  jump(tag_6)\n    /* \"contracts/SimswapERC20.sol\":6221:6599  function computeDomainSeparator() internal view virtual returns (bytes32) {\r... */\ntag_5:\n    /* \"contracts/SimswapERC20.sol\":6286:6293  bytes32 */\n  0x00\n    /* \"contracts/SimswapERC20.sol\":1026:1092  0x8b73c3c69bb8fe3d512ecc4cf759cc79239f7b179b0ffacaa9a75d522b39400f */\n  0x8b73c3c69bb8fe3d512ecc4cf759cc79239f7b179b0ffacaa9a75d522b39400f\n    /* \"contracts/SimswapERC20.sol\":6387:6402  DOMAIN_TYPEHASH */\n  0x00\n  shl\n    /* \"contracts/SimswapERC20.sol\":6441:6446  _name */\n  mload(0x40)\n  dup1\n  0x40\n  add\n  0x40\n  mstore\n  dup1\n  0x07\n  dup2\n  mstore\n  0x20\n  add\n  0x53696d7377617000000000000000000000000000000000000000000000000000\n  dup2\n  mstore\n  pop\n    /* \"contracts/SimswapERC20.sol\":6425:6448  keccak256(bytes(_name)) */\n  dup1\n  mload\n  swap1\n  0x20\n  add\n  keccak256\n    /* \"contracts/SimswapERC20.sol\":6471:6485  keccak256(\"1\") */\n  0xc89efdaa54c0f20c7adf612882df0950f5a951637e0307cdcb4c672f298b8bc6\n    /* \"contracts/SimswapERC20.sol\":6508:6521  block.chainid */\n  chainid\n    /* \"contracts/SimswapERC20.sol\":6552:6556  this */\n  address\n    /* \"contracts/SimswapERC20.sol\":6354:6576  abi.encode(\r... */\n  add(0x20, mload(0x40))\n  tag_8\n  swap6\n  swap5\n  swap4\n  swap3\n  swap2\n  swap1\n  tag_9\n  jump\t// in\ntag_8:\n  mload(0x40)\n  0x20\n  dup2\n  dup4\n  sub\n  sub\n  dup2\n  mstore\n  swap1\n  0x40\n  mstore\n    /* \"contracts/SimswapERC20.sol\":6326:6591  keccak256(\r... */\n  dup1\n  mload\n  swap1\n  0x20\n  add\n  keccak256\n    /* \"contracts/SimswapERC20.sol\":6306:6591  return\r... */\n  swap1\n  pop\n    /* \"contracts/SimswapERC20.sol\":6221:6599  function computeDomainSeparator() internal view virtual returns (bytes32) {\r... */\n  swap1\n  jump\t// out\n    /* \"#utility.yul\":7:125   */\ntag_11:\n    /* \"#utility.yul\":94:118   */\n  tag_13\n    /* \"#utility.yul\":112:117   */\n  dup2\n    /* \"#utility.yul\":94:118   */\n  tag_14\n  jump\t// in\ntag_13:\n    /* \"#utility.yul\":89:92   */\n  dup3\n    /* \"#utility.yul\":82:119   */\n  mstore\n    /* \"#utility.yul\":7:125   */\n  pop\n  pop\n  jump\t// out\n    /* \"#utility.yul\":131:249   */\ntag_15:\n    /* \"#utility.yul\":218:242   */\n  tag_17\n    /* \"#utility.yul\":236:241   */\n  dup2\n    /* \"#utility.yul\":218:242   */\n  tag_18\n  jump\t// in\ntag_17:\n    /* \"#utility.yul\":213:216   */\n  dup3\n    /* \"#utility.yul\":206:243   */\n  mstore\n    /* \"#utility.yul\":131:249   */\n  pop\n  pop\n  jump\t// out\n    /* \"#utility.yul\":255:373   */\ntag_19:\n    /* \"#utility.yul\":342:366   */\n  tag_21\n    /* \"#utility.yul\":360:365   */\n  dup2\n    /* \"#utility.yul\":342:366   */\n  tag_22\n  jump\t// in\ntag_21:\n    /* \"#utility.yul\":337:340   */\n  dup3\n    /* \"#utility.yul\":330:367   */\n  mstore\n    /* \"#utility.yul\":255:373   */\n  pop\n  pop\n  jump\t// out\n    /* \"#utility.yul\":379:1043   */\ntag_9:\n    /* \"#utility.yul\":584:588   */\n  0x00\n    /* \"#utility.yul\":622:625   */\n  0xa0\n    /* \"#utility.yul\":611:620   */\n  dup3\n    /* \"#utility.yul\":607:626   */\n  add\n    /* \"#utility.yul\":599:626   */\n  swap1\n  pop\n    /* \"#utility.yul\":636:707   */\n  tag_24\n    /* \"#utility.yul\":704:705   */\n  0x00\n    /* \"#utility.yul\":693:702   */\n  dup4\n    /* \"#utility.yul\":689:706   */\n  add\n    /* \"#utility.yul\":680:686   */\n  dup9\n    /* \"#utility.yul\":636:707   */\n  tag_15\n  jump\t// in\ntag_24:\n    /* \"#utility.yul\":717:789   */\n  tag_25\n    /* \"#utility.yul\":785:787   */\n  0x20\n    /* \"#utility.yul\":774:783   */\n  dup4\n    /* \"#utility.yul\":770:788   */\n  add\n    /* \"#utility.yul\":761:767   */\n  dup8\n    /* \"#utility.yul\":717:789   */\n  tag_15\n  jump\t// in\ntag_25:\n    /* \"#utility.yul\":799:871   */\n  tag_26\n    /* \"#utility.yul\":867:869   */\n  0x40\n    /* \"#utility.yul\":856:865   */\n  dup4\n    /* \"#utility.yul\":852:870   */\n  add\n    /* \"#utility.yul\":843:849   */\n  dup7\n    /* \"#utility.yul\":799:871   */\n  tag_15\n  jump\t// in\ntag_26:\n    /* \"#utility.yul\":881:953   */\n  tag_27\n    /* \"#utility.yul\":949:951   */\n  0x60\n    /* \"#utility.yul\":938:947   */\n  dup4\n    /* \"#utility.yul\":934:952   */\n  add\n    /* \"#utility.yul\":925:931   */\n  dup6\n    /* \"#utility.yul\":881:953   */\n  tag_19\n  jump\t// in\ntag_27:\n    /* \"#utility.yul\":963:1036   */\n  tag_28\n    /* \"#utility.yul\":1031:1034   */\n  0x80\n    /* \"#utility.yul\":1020:1029   */\n  dup4\n    /* \"#utility.yul\":1016:1035   */\n  add\n    /* \"#utility.yul\":1007:1013   */\n  dup5\n    /* \"#utility.yul\":963:1036   */\n  tag_11\n  jump\t// in\ntag_28:\n    /* \"#utility.yul\":379:1043   */\n  swap7\n  swap6\n  pop\n  pop\n  pop\n  pop\n  pop\n  pop\n  jump\t// out\n    /* \"#utility.yul\":1049:1145   */\ntag_14:\n    /* \"#utility.yul\":1086:1093   */\n  0x00\n    /* \"#utility.yul\":1115:1139   */\n  tag_30\n    /* \"#utility.yul\":1133:1138   */\n  dup3\n    /* \"#utility.yul\":1115:1139   */\n  tag_31\n  jump\t// in\ntag_30:\n    /* \"#utility.yul\":1104:1139   */\n  swap1\n  pop\n    /* \"#utility.yul\":1049:1145   */\n  swap2\n  swap1\n  pop\n  jump\t// out\n    /* \"#utility.yul\":1151:1228   */\ntag_18:\n    /* \"#utility.yul\":1188:1195   */\n  0x00\n    /* \"#utility.yul\":1217:1222   */\n  dup2\n    /* \"#utility.yul\":1206:1222   */\n  swap1\n  pop\n    /* \"#utility.yul\":1151:1228   */\n  swap2\n  swap1\n  pop\n  jump\t// out\n    /* \"#utility.yul\":1234:1360   */\ntag_31:\n    /* \"#utility.yul\":1271:1278   */\n  0x00\n    /* \"#utility.yul\":1311:1353   */\n  0xffffffffffffffffffffffffffffffffffffffff\n    /* \"#utility.yul\":1304:1309   */\n  dup3\n    /* \"#utility.yul\":1300:1354   */\n  and\n    /* \"#utility.yul\":1289:1354   */\n  swap1\n  pop\n    /* \"#utility.yul\":1234:1360   */\n  swap2\n  swap1\n  pop\n  jump\t// out\n    /* \"#utility.yul\":1366:1443   */\ntag_22:\n    /* \"#utility.yul\":1403:1410   */\n  0x00\n    /* \"#utility.yul\":1432:1437   */\n  dup2\n    /* \"#utility.yul\":1421:1437   */\n  swap1\n  pop\n    /* \"#utility.yul\":1366:1443   */\n  swap2\n  swap1\n  pop\n  jump\t// out\n    /* \"contracts/SimswapERC20.sol\":153:6602  contract SimswapERC20 is ISimswapERC20 {\r... */\ntag_6:\n  mload(0x80)\n  mload(0xa0)\n  codecopy(0x00, dataOffset(sub_0), dataSize(sub_0))\n  0x00\n  assignImmutable(\"0xed93c67e1a9b7f09d3b44ee593360f0073603a8e45415e2c3c69afc994a1103d\")\n  0x00\n  assignImmutable(\"0x933c48a61c3bad621ebc5d57117f9e773fefae4468bceaf9d3198a3bf7c1d678\")\n  return(0x00, dataSize(sub_0))\nstop\n\nsub_0: assembly {\n        /* \"contracts/SimswapERC20.sol\":153:6602  contract SimswapERC20 is ISimswapERC20 {\r... */\n      mstore(0x40, 0x80)\n      callvalue\n      dup1\n      iszero\n      tag_1\n      jumpi\n      0x00\n      dup1\n      revert\n    tag_1:\n      pop\n      jumpi(tag_2, lt(calldatasize, 0x04))\n      shr(0xe0, calldataload(0x00))\n      dup1\n      0x70a08231\n      gt\n      tag_15\n      jumpi\n      dup1\n      0x70a08231\n      eq\n      tag_9\n      jumpi\n      dup1\n      0x7ecebe00\n      eq\n      tag_10\n      jumpi\n      dup1\n      0x95d89b41\n      eq\n      tag_11\n      jumpi\n      dup1\n      0xa9059cbb\n      eq\n      tag_12\n      jumpi\n      dup1\n      0xd505accf\n      eq\n      tag_13\n      jumpi\n      dup1\n      0xdd62ed3e\n      eq\n      tag_14\n      jumpi\n      jump(tag_2)\n    tag_15:\n      dup1\n      0x06fdde03\n      eq\n      tag_3\n      jumpi\n      dup1\n      0x095ea7b3\n      eq\n      tag_4\n      jumpi\n      dup1\n      0x18160ddd\n      eq\n      tag_5\n      jumpi\n      dup1\n      0x23b872dd\n      eq\n      tag_6\n      jumpi\n      dup1\n      0x313ce567\n      eq\n      tag_7\n      jumpi\n      dup1\n      0x3644e515\n      eq\n      tag_8\n      jumpi\n    tag_2:\n      0x00\n      dup1\n      revert\n        /* \"contracts/SimswapERC20.sol\":1153:1245  function name() public pure override returns (string memory) {\r... */\n    tag_3:\n      tag_16\n      tag_17\n      jump\t// in\n    tag_16:\n      mload(0x40)\n      tag_18\n      swap2\n      swap1\n      tag_19\n      jump\t// in\n    tag_18:\n      mload(0x40)\n      dup1\n      swap2\n      sub\n      swap1\n      return\n        /* \"contracts/SimswapERC20.sol\":3879:4040  function approve(address spender, uint256 amount) external override returns (bool) {\r... */\n    tag_4:\n      tag_20\n      0x04\n      dup1\n      calldatasize\n      sub\n      dup2\n      add\n      swap1\n      tag_21\n      swap2\n      swap1\n      tag_22\n      jump\t// in\n    tag_21:\n      tag_23\n      jump\t// in\n    tag_20:\n      mload(0x40)\n      tag_24\n      swap2\n      swap1\n      tag_25\n      jump\t// in\n    tag_24:\n      mload(0x40)\n      dup1\n      swap2\n      sub\n      swap1\n      return\n        /* \"contracts/SimswapERC20.sol\":1461:1561  function totalSupply() public view override returns (uint256) {\r... */\n    tag_5:\n      tag_26\n      tag_27\n      jump\t// in\n    tag_26:\n      mload(0x40)\n      tag_28\n      swap2\n      swap1\n      tag_29\n      jump\t// in\n    tag_28:\n      mload(0x40)\n      dup1\n      swap2\n      sub\n      swap1\n      return\n        /* \"contracts/SimswapERC20.sol\":4679:4888  function transferFrom(address from, address to, uint256 amount) external override returns (bool) {\r... */\n    tag_6:\n      tag_30\n      0x04\n      dup1\n      calldatasize\n      sub\n      dup2\n      add\n      swap1\n      tag_31\n      swap2\n      swap1\n      tag_32\n      jump\t// in\n    tag_31:\n      tag_33\n      jump\t// in\n    tag_30:\n      mload(0x40)\n      tag_34\n      swap2\n      swap1\n      tag_25\n      jump\t// in\n    tag_34:\n      mload(0x40)\n      dup1\n      swap2\n      sub\n      swap1\n      return\n        /* \"contracts/SimswapERC20.sol\":1361:1453  function decimals() public pure override returns (uint8) {\r... */\n    tag_7:\n      tag_35\n      tag_36\n      jump\t// in\n    tag_35:\n      mload(0x40)\n      tag_37\n      swap2\n      swap1\n      tag_38\n      jump\t// in\n    tag_37:\n      mload(0x40)\n      dup1\n      swap2\n      sub\n      swap1\n      return\n        /* \"contracts/SimswapERC20.sol\":6034:6213  function DOMAIN_SEPARATOR() public view virtual returns (bytes32) {\r... */\n    tag_8:\n      tag_39\n      tag_40\n      jump\t// in\n    tag_39:\n      mload(0x40)\n      tag_41\n      swap2\n      swap1\n      tag_42\n      jump\t// in\n    tag_41:\n      mload(0x40)\n      dup1\n      swap2\n      sub\n      swap1\n      return\n        /* \"contracts/SimswapERC20.sol\":1569:1688  function balanceOf(address account) public view override returns (uint256) {\r... */\n    tag_9:\n      tag_43\n      0x04\n      dup1\n      calldatasize\n      sub\n      dup2\n      add\n      swap1\n      tag_44\n      swap2\n      swap1\n      tag_45\n      jump\t// in\n    tag_44:\n      tag_46\n      jump\t// in\n    tag_43:\n      mload(0x40)\n      tag_47\n      swap2\n      swap1\n      tag_29\n      jump\t// in\n    tag_47:\n      mload(0x40)\n      dup1\n      swap2\n      sub\n      swap1\n      return\n        /* \"contracts/SimswapERC20.sol\":1848:1959  function nonces(address owner) public view override returns (uint256) { \r... */\n    tag_10:\n      tag_48\n      0x04\n      dup1\n      calldatasize\n      sub\n      dup2\n      add\n      swap1\n      tag_49\n      swap2\n      swap1\n      tag_45\n      jump\t// in\n    tag_49:\n      tag_50\n      jump\t// in\n    tag_48:\n      mload(0x40)\n      tag_51\n      swap2\n      swap1\n      tag_29\n      jump\t// in\n    tag_51:\n      mload(0x40)\n      dup1\n      swap2\n      sub\n      swap1\n      return\n        /* \"contracts/SimswapERC20.sol\":1253:1349  function symbol() public pure override returns (string memory) {\r... */\n    tag_11:\n      tag_52\n      tag_53\n      jump\t// in\n    tag_52:\n      mload(0x40)\n      tag_54\n      swap2\n      swap1\n      tag_19\n      jump\t// in\n    tag_54:\n      mload(0x40)\n      dup1\n      swap2\n      sub\n      swap1\n      return\n        /* \"contracts/SimswapERC20.sol\":4048:4211  function transfer(address account, uint256 amount) external override returns (bool) {\r... */\n    tag_12:\n      tag_55\n      0x04\n      dup1\n      calldatasize\n      sub\n      dup2\n      add\n      swap1\n      tag_56\n      swap2\n      swap1\n      tag_22\n      jump\t// in\n    tag_56:\n      tag_57\n      jump\t// in\n    tag_55:\n      mload(0x40)\n      tag_58\n      swap2\n      swap1\n      tag_25\n      jump\t// in\n    tag_58:\n      mload(0x40)\n      dup1\n      swap2\n      sub\n      swap1\n      return\n        /* \"contracts/SimswapERC20.sol\":4896:6026  function permit(address owner, address spender, uint256 amount, uint256 deadline, uint8 v, bytes32 r, bytes32 s) external override {\r... */\n    tag_13:\n      tag_59\n      0x04\n      dup1\n      calldatasize\n      sub\n      dup2\n      add\n      swap1\n      tag_60\n      swap2\n      swap1\n      tag_61\n      jump\t// in\n    tag_60:\n      tag_62\n      jump\t// in\n    tag_59:\n      stop\n        /* \"contracts/SimswapERC20.sol\":1696:1840  function allowance(address owner, address spender) public view override returns (uint256) { \r... */\n    tag_14:\n      tag_63\n      0x04\n      dup1\n      calldatasize\n      sub\n      dup2\n      add\n      swap1\n      tag_64\n      swap2\n      swap1\n      tag_65\n      jump\t// in\n    tag_64:\n      tag_66\n      jump\t// in\n    tag_63:\n      mload(0x40)\n      tag_67\n      swap2\n      swap1\n      tag_29\n      jump\t// in\n    tag_67:\n      mload(0x40)\n      dup1\n      swap2\n      sub\n      swap1\n      return\n        /* \"contracts/SimswapERC20.sol\":1153:1245  function name() public pure override returns (string memory) {\r... */\n    tag_17:\n        /* \"contracts/SimswapERC20.sol\":1199:1212  string memory */\n      0x60\n        /* \"contracts/SimswapERC20.sol\":1232:1237  _name */\n      mload(0x40)\n      dup1\n      0x40\n      add\n      0x40\n      mstore\n      dup1\n      0x07\n      dup2\n      mstore\n      0x20\n      add\n      0x53696d7377617000000000000000000000000000000000000000000000000000\n      dup2\n      mstore\n      pop\n        /* \"contracts/SimswapERC20.sol\":1225:1237  return _name */\n      swap1\n      pop\n        /* \"contracts/SimswapERC20.sol\":1153:1245  function name() public pure override returns (string memory) {\r... */\n      swap1\n      jump\t// out\n        /* \"contracts/SimswapERC20.sol\":3879:4040  function approve(address spender, uint256 amount) external override returns (bool) {\r... */\n    tag_23:\n        /* \"contracts/SimswapERC20.sol\":3956:3960  bool */\n      0x00\n        /* \"contracts/SimswapERC20.sol\":3973:4010  _approve(msg.sender, spender, amount) */\n      tag_70\n        /* \"contracts/SimswapERC20.sol\":3982:3992  msg.sender */\n      caller\n        /* \"contracts/SimswapERC20.sol\":3994:4001  spender */\n      dup5\n        /* \"contracts/SimswapERC20.sol\":4003:4009  amount */\n      dup5\n        /* \"contracts/SimswapERC20.sol\":3973:3981  _approve */\n      tag_71\n        /* \"contracts/SimswapERC20.sol\":3973:4010  _approve(msg.sender, spender, amount) */\n      jump\t// in\n    tag_70:\n        /* \"contracts/SimswapERC20.sol\":4028:4032  true */\n      0x01\n        /* \"contracts/SimswapERC20.sol\":4021:4032  return true */\n      swap1\n      pop\n        /* \"contracts/SimswapERC20.sol\":3879:4040  function approve(address spender, uint256 amount) external override returns (bool) {\r... */\n      swap3\n      swap2\n      pop\n      pop\n      jump\t// out\n        /* \"contracts/SimswapERC20.sol\":1461:1561  function totalSupply() public view override returns (uint256) {\r... */\n    tag_27:\n        /* \"contracts/SimswapERC20.sol\":1514:1521  uint256 */\n      0x00\n        /* \"contracts/SimswapERC20.sol\":1541:1553  _totalSupply */\n      dup1\n      sload\n        /* \"contracts/SimswapERC20.sol\":1534:1553  return _totalSupply */\n      swap1\n      pop\n        /* \"contracts/SimswapERC20.sol\":1461:1561  function totalSupply() public view override returns (uint256) {\r... */\n      swap1\n      jump\t// out\n        /* \"contracts/SimswapERC20.sol\":4679:4888  function transferFrom(address from, address to, uint256 amount) external override returns (bool) {\r... */\n    tag_33:\n        /* \"contracts/SimswapERC20.sol\":4770:4774  bool */\n      0x00\n        /* \"contracts/SimswapERC20.sol\":4787:4820  _spendAllowance(from, to, amount) */\n      tag_74\n        /* \"contracts/SimswapERC20.sol\":4803:4807  from */\n      dup5\n        /* \"contracts/SimswapERC20.sol\":4809:4811  to */\n      dup5\n        /* \"contracts/SimswapERC20.sol\":4813:4819  amount */\n      dup5\n        /* \"contracts/SimswapERC20.sol\":4787:4802  _spendAllowance */\n      tag_75\n        /* \"contracts/SimswapERC20.sol\":4787:4820  _spendAllowance(from, to, amount) */\n      jump\t// in\n    tag_74:\n        /* \"contracts/SimswapERC20.sol\":4831:4858  _transfer(from, to, amount) */\n      tag_76\n        /* \"contracts/SimswapERC20.sol\":4841:4845  from */\n      dup5\n        /* \"contracts/SimswapERC20.sol\":4847:4849  to */\n      dup5\n        /* \"contracts/SimswapERC20.sol\":4851:4857  amount */\n      dup5\n        /* \"contracts/SimswapERC20.sol\":4831:4840  _transfer */\n      tag_77\n        /* \"contracts/SimswapERC20.sol\":4831:4858  _transfer(from, to, amount) */\n      jump\t// in\n    tag_76:\n        /* \"contracts/SimswapERC20.sol\":4876:4880  true */\n      0x01\n        /* \"contracts/SimswapERC20.sol\":4869:4880  return true */\n      swap1\n      pop\n        /* \"contracts/SimswapERC20.sol\":4679:4888  function transferFrom(address from, address to, uint256 amount) external override returns (bool) {\r... */\n      swap4\n      swap3\n      pop\n      pop\n      pop\n      jump\t// out\n        /* \"contracts/SimswapERC20.sol\":1361:1453  function decimals() public pure override returns (uint8) {\r... */\n    tag_36:\n        /* \"contracts/SimswapERC20.sol\":1411:1416  uint8 */\n      0x00\n        /* \"contracts/SimswapERC20.sol\":370:372  18 */\n      0x12\n        /* \"contracts/SimswapERC20.sol\":1429:1445  return _decimals */\n      swap1\n      pop\n        /* \"contracts/SimswapERC20.sol\":1361:1453  function decimals() public pure override returns (uint8) {\r... */\n      swap1\n      jump\t// out\n        /* \"contracts/SimswapERC20.sol\":6034:6213  function DOMAIN_SEPARATOR() public view virtual returns (bytes32) {\r... */\n    tag_40:\n        /* \"contracts/SimswapERC20.sol\":6091:6098  bytes32 */\n      0x00\n        /* \"contracts/SimswapERC20.sol\":6135:6151  INITIAL_CHAIN_ID */\n      immutable(\"0x933c48a61c3bad621ebc5d57117f9e773fefae4468bceaf9d3198a3bf7c1d678\")\n        /* \"contracts/SimswapERC20.sol\":6118:6131  block.chainid */\n      chainid\n        /* \"contracts/SimswapERC20.sol\":6118:6151  block.chainid == INITIAL_CHAIN_ID */\n      eq\n        /* \"contracts/SimswapERC20.sol\":6118:6205  block.chainid == INITIAL_CHAIN_ID ? INITIAL_DOMAIN_SEPARATOR : computeDomainSeparator() */\n      tag_80\n      jumpi\n        /* \"contracts/SimswapERC20.sol\":6181:6205  computeDomainSeparator() */\n      tag_81\n        /* \"contracts/SimswapERC20.sol\":6181:6203  computeDomainSeparator */\n      tag_82\n        /* \"contracts/SimswapERC20.sol\":6181:6205  computeDomainSeparator() */\n      jump\t// in\n    tag_81:\n        /* \"contracts/SimswapERC20.sol\":6118:6205  block.chainid == INITIAL_CHAIN_ID ? INITIAL_DOMAIN_SEPARATOR : computeDomainSeparator() */\n      jump(tag_83)\n    tag_80:\n        /* \"contracts/SimswapERC20.sol\":6154:6178  INITIAL_DOMAIN_SEPARATOR */\n      immutable(\"0xed93c67e1a9b7f09d3b44ee593360f0073603a8e45415e2c3c69afc994a1103d\")\n        /* \"contracts/SimswapERC20.sol\":6118:6205  block.chainid == INITIAL_CHAIN_ID ? INITIAL_DOMAIN_SEPARATOR : computeDomainSeparator() */\n    tag_83:\n        /* \"contracts/SimswapERC20.sol\":6111:6205  return block.chainid == INITIAL_CHAIN_ID ? INITIAL_DOMAIN_SEPARATOR : computeDomainSeparator() */\n      swap1\n      pop\n        /* \"contracts/SimswapERC20.sol\":6034:6213  function DOMAIN_SEPARATOR() public view virtual returns (bytes32) {\r... */\n      swap1\n      jump\t// out\n        /* \"contracts/SimswapERC20.sol\":1569:1688  function balanceOf(address account) public view override returns (uint256) {\r... */\n    tag_46:\n        /* \"contracts/SimswapERC20.sol\":1635:1642  uint256 */\n      0x00\n        /* \"contracts/SimswapERC20.sol\":1662:1671  _balances */\n      0x01\n        /* \"contracts/SimswapERC20.sol\":1662:1680  _balances[account] */\n      0x00\n        /* \"contracts/SimswapERC20.sol\":1672:1679  account */\n      dup4\n        /* \"contracts/SimswapERC20.sol\":1662:1680  _balances[account] */\n      0xffffffffffffffffffffffffffffffffffffffff\n      and\n      0xffffffffffffffffffffffffffffffffffffffff\n      and\n      dup2\n      mstore\n      0x20\n      add\n      swap1\n      dup2\n      mstore\n      0x20\n      add\n      0x00\n      keccak256\n      sload\n        /* \"contracts/SimswapERC20.sol\":1655:1680  return _balances[account] */\n      swap1\n      pop\n        /* \"contracts/SimswapERC20.sol\":1569:1688  function balanceOf(address account) public view override returns (uint256) {\r... */\n      swap2\n      swap1\n      pop\n      jump\t// out\n        /* \"contracts/SimswapERC20.sol\":1848:1959  function nonces(address owner) public view override returns (uint256) { \r... */\n    tag_50:\n        /* \"contracts/SimswapERC20.sol\":1909:1916  uint256 */\n      0x00\n        /* \"contracts/SimswapERC20.sol\":1937:1944  _nonces */\n      0x03\n        /* \"contracts/SimswapERC20.sol\":1937:1951  _nonces[owner] */\n      0x00\n        /* \"contracts/SimswapERC20.sol\":1945:1950  owner */\n      dup4\n        /* \"contracts/SimswapERC20.sol\":1937:1951  _nonces[owner] */\n      0xffffffffffffffffffffffffffffffffffffffff\n      and\n      0xffffffffffffffffffffffffffffffffffffffff\n      and\n      dup2\n      mstore\n      0x20\n      add\n      swap1\n      dup2\n      mstore\n      0x20\n      add\n      0x00\n      keccak256\n      sload\n        /* \"contracts/SimswapERC20.sol\":1930:1951  return _nonces[owner] */\n      swap1\n      pop\n        /* \"contracts/SimswapERC20.sol\":1848:1959  function nonces(address owner) public view override returns (uint256) { \r... */\n      swap2\n      swap1\n      pop\n      jump\t// out\n        /* \"contracts/SimswapERC20.sol\":1253:1349  function symbol() public pure override returns (string memory) {\r... */\n    tag_53:\n        /* \"contracts/SimswapERC20.sol\":1301:1314  string memory */\n      0x60\n        /* \"contracts/SimswapERC20.sol\":1334:1341  _symbol */\n      mload(0x40)\n      dup1\n      0x40\n      add\n      0x40\n      mstore\n      dup1\n      0x04\n      dup2\n      mstore\n      0x20\n      add\n      0x73696d7000000000000000000000000000000000000000000000000000000000\n      dup2\n      mstore\n      pop\n        /* \"contracts/SimswapERC20.sol\":1327:1341  return _symbol */\n      swap1\n      pop\n        /* \"contracts/SimswapERC20.sol\":1253:1349  function symbol() public pure override returns (string memory) {\r... */\n      swap1\n      jump\t// out\n        /* \"contracts/SimswapERC20.sol\":4048:4211  function transfer(address account, uint256 amount) external override returns (bool) {\r... */\n    tag_57:\n        /* \"contracts/SimswapERC20.sol\":4126:4130  bool */\n      0x00\n        /* \"contracts/SimswapERC20.sol\":4143:4181  _transfer(msg.sender, account, amount) */\n      tag_88\n        /* \"contracts/SimswapERC20.sol\":4153:4163  msg.sender */\n      caller\n        /* \"contracts/SimswapERC20.sol\":4165:4172  account */\n      dup5\n        /* \"contracts/SimswapERC20.sol\":4174:4180  amount */\n      dup5\n        /* \"contracts/SimswapERC20.sol\":4143:4152  _transfer */\n      tag_77\n        /* \"contracts/SimswapERC20.sol\":4143:4181  _transfer(msg.sender, account, amount) */\n      jump\t// in\n    tag_88:\n        /* \"contracts/SimswapERC20.sol\":4199:4203  true */\n      0x01\n        /* \"contracts/SimswapERC20.sol\":4192:4203  return true */\n      swap1\n      pop\n        /* \"contracts/SimswapERC20.sol\":4048:4211  function transfer(address account, uint256 amount) external override returns (bool) {\r... */\n      swap3\n      swap2\n      pop\n      pop\n      jump\t// out\n        /* \"contracts/SimswapERC20.sol\":4896:6026  function permit(address owner, address spender, uint256 amount, uint256 deadline, uint8 v, bytes32 r, bytes32 s) external override {\r... */\n    tag_62:\n        /* \"contracts/SimswapERC20.sol\":5058:5073  block.timestamp */\n      timestamp\n        /* \"contracts/SimswapERC20.sol\":5046:5054  deadline */\n      dup5\n        /* \"contracts/SimswapERC20.sol\":5046:5073  deadline >= block.timestamp */\n      lt\n      iszero\n        /* \"contracts/SimswapERC20.sol\":5038:5094  require(deadline >= block.timestamp, 'Simswap: EXPIRED') */\n      tag_90\n      jumpi\n      mload(0x40)\n      0x08c379a000000000000000000000000000000000000000000000000000000000\n      dup2\n      mstore\n      0x04\n      add\n      tag_91\n      swap1\n      tag_92\n      jump\t// in\n    tag_91:\n      mload(0x40)\n      dup1\n      swap2\n      sub\n      swap1\n      revert\n    tag_90:\n        /* \"contracts/SimswapERC20.sol\":5132:5156  address recoveredAddress */\n      0x00\n        /* \"contracts/SimswapERC20.sol\":5159:5836  ecrecover(\r... */\n      0x01\n        /* \"contracts/SimswapERC20.sol\":5299:5317  DOMAIN_SEPARATOR() */\n      tag_93\n        /* \"contracts/SimswapERC20.sol\":5299:5315  DOMAIN_SEPARATOR */\n      tag_40\n        /* \"contracts/SimswapERC20.sol\":5299:5317  DOMAIN_SEPARATOR() */\n      jump\t// in\n    tag_93:\n        /* \"contracts/SimswapERC20.sol\":805:871  0x6e71edae12b1b97f4d1f60370fef10105fa2faae0126114a169c64845d6126c9 */\n      0x6e71edae12b1b97f4d1f60370fef10105fa2faae0126114a169c64845d6126c9\n        /* \"contracts/SimswapERC20.sol\":5429:5444  PERMIT_TYPEHASH */\n      0x00\n      shl\n        /* \"contracts/SimswapERC20.sol\":5479:5484  owner */\n      dup11\n        /* \"contracts/SimswapERC20.sol\":5519:5526  spender */\n      dup11\n        /* \"contracts/SimswapERC20.sol\":5561:5567  amount */\n      dup11\n        /* \"contracts/SimswapERC20.sol\":5602:5609  _nonces */\n      0x03\n        /* \"contracts/SimswapERC20.sol\":5602:5616  _nonces[owner] */\n      0x00\n        /* \"contracts/SimswapERC20.sol\":5610:5615  owner */\n      dup16\n        /* \"contracts/SimswapERC20.sol\":5602:5616  _nonces[owner] */\n      0xffffffffffffffffffffffffffffffffffffffff\n      and\n      0xffffffffffffffffffffffffffffffffffffffff\n      and\n      dup2\n      mstore\n      0x20\n      add\n      swap1\n      dup2\n      mstore\n      0x20\n      add\n      0x00\n      keccak256\n      0x00\n        /* \"contracts/SimswapERC20.sol\":5602:5618  _nonces[owner]++ */\n      dup2\n      sload\n      dup1\n      swap3\n      swap2\n      swap1\n      0x01\n      add\n      swap2\n      swap1\n      pop\n      sstore\n        /* \"contracts/SimswapERC20.sol\":5653:5661  deadline */\n      dup12\n        /* \"contracts/SimswapERC20.sol\":5384:5692  abi.encode(\r... */\n      add(0x20, mload(0x40))\n      tag_94\n      swap7\n      swap6\n      swap5\n      swap4\n      swap3\n      swap2\n      swap1\n      tag_95\n      jump\t// in\n    tag_94:\n      mload(0x40)\n      0x20\n      dup2\n      dup4\n      sub\n      sub\n      dup2\n      mstore\n      swap1\n      0x40\n      mstore\n        /* \"contracts/SimswapERC20.sol\":5344:5719  keccak256(\r... */\n      dup1\n      mload\n      swap1\n      0x20\n      add\n      keccak256\n        /* \"contracts/SimswapERC20.sol\":5219:5742  abi.encodePacked(\r... */\n      add(0x20, mload(0x40))\n      tag_96\n      swap3\n      swap2\n      swap1\n      tag_97\n      jump\t// in\n    tag_96:\n      mload(0x40)\n      0x20\n      dup2\n      dup4\n      sub\n      sub\n      dup2\n      mstore\n      swap1\n      0x40\n      mstore\n        /* \"contracts/SimswapERC20.sol\":5187:5761  keccak256(\r... */\n      dup1\n      mload\n      swap1\n      0x20\n      add\n      keccak256\n        /* \"contracts/SimswapERC20.sol\":5780:5781  v */\n      dup6\n        /* \"contracts/SimswapERC20.sol\":5800:5801  r */\n      dup6\n        /* \"contracts/SimswapERC20.sol\":5820:5821  s */\n      dup6\n        /* \"contracts/SimswapERC20.sol\":5159:5836  ecrecover(\r... */\n      mload(0x40)\n      0x00\n      dup2\n      mstore\n      0x20\n      add\n      0x40\n      mstore\n      mload(0x40)\n      tag_98\n      swap5\n      swap4\n      swap3\n      swap2\n      swap1\n      tag_99\n      jump\t// in\n    tag_98:\n      0x20\n      mload(0x40)\n      0x20\n      dup2\n      sub\n      swap1\n      dup1\n      dup5\n      sub\n      swap1\n      dup6\n      gas\n      staticcall\n      iszero\n      dup1\n      iszero\n      tag_101\n      jumpi\n      returndatasize\n      0x00\n      dup1\n      returndatacopy\n      revert(0x00, returndatasize)\n    tag_101:\n      pop\n      pop\n      pop\n      mload(sub(mload(0x40), 0x20))\n        /* \"contracts/SimswapERC20.sol\":5132:5836  address recoveredAddress = ecrecover(\r... */\n      swap1\n      pop\n        /* \"contracts/SimswapERC20.sol\":5887:5888  0 */\n      0x00\n        /* \"contracts/SimswapERC20.sol\":5859:5889  recoveredAddress != address(0) */\n      0xffffffffffffffffffffffffffffffffffffffff\n      and\n        /* \"contracts/SimswapERC20.sol\":5859:5875  recoveredAddress */\n      dup2\n        /* \"contracts/SimswapERC20.sol\":5859:5889  recoveredAddress != address(0) */\n      0xffffffffffffffffffffffffffffffffffffffff\n      and\n      eq\n      iszero\n        /* \"contracts/SimswapERC20.sol\":5859:5918  recoveredAddress != address(0) && recoveredAddress == owner */\n      dup1\n      iszero\n      tag_102\n      jumpi\n      pop\n        /* \"contracts/SimswapERC20.sol\":5913:5918  owner */\n      dup8\n        /* \"contracts/SimswapERC20.sol\":5893:5918  recoveredAddress == owner */\n      0xffffffffffffffffffffffffffffffffffffffff\n      and\n        /* \"contracts/SimswapERC20.sol\":5893:5909  recoveredAddress */\n      dup2\n        /* \"contracts/SimswapERC20.sol\":5893:5918  recoveredAddress == owner */\n      0xffffffffffffffffffffffffffffffffffffffff\n      and\n      eq\n        /* \"contracts/SimswapERC20.sol\":5859:5918  recoveredAddress != address(0) && recoveredAddress == owner */\n    tag_102:\n        /* \"contracts/SimswapERC20.sol\":5851:5949  require(recoveredAddress != address(0) && recoveredAddress == owner, 'Simswap: INVALID_SIGNATURE') */\n      tag_103\n      jumpi\n      mload(0x40)\n      0x08c379a000000000000000000000000000000000000000000000000000000000\n      dup2\n      mstore\n      0x04\n      add\n      tag_104\n      swap1\n      tag_105\n      jump\t// in\n    tag_104:\n      mload(0x40)\n      dup1\n      swap2\n      sub\n      swap1\n      revert\n    tag_103:\n        /* \"contracts/SimswapERC20.sol\":5964:6007  _approve(recoveredAddress, spender, amount) */\n      tag_106\n        /* \"contracts/SimswapERC20.sol\":5973:5989  recoveredAddress */\n      dup2\n        /* \"contracts/SimswapERC20.sol\":5991:5998  spender */\n      dup9\n        /* \"contracts/SimswapERC20.sol\":6000:6006  amount */\n      dup9\n        /* \"contracts/SimswapERC20.sol\":5964:5972  _approve */\n      tag_71\n        /* \"contracts/SimswapERC20.sol\":5964:6007  _approve(recoveredAddress, spender, amount) */\n      jump\t// in\n    tag_106:\n        /* \"contracts/SimswapERC20.sol\":5107:6019  unchecked {\r... */\n      pop\n        /* \"contracts/SimswapERC20.sol\":4896:6026  function permit(address owner, address spender, uint256 amount, uint256 deadline, uint8 v, bytes32 r, bytes32 s) external override {\r... */\n      pop\n      pop\n      pop\n      pop\n      pop\n      pop\n      pop\n      jump\t// out\n        /* \"contracts/SimswapERC20.sol\":1696:1840  function allowance(address owner, address spender) public view override returns (uint256) { \r... */\n    tag_66:\n        /* \"contracts/SimswapERC20.sol\":1777:1784  uint256 */\n      0x00\n        /* \"contracts/SimswapERC20.sol\":1805:1816  _allowances */\n      0x02\n        /* \"contracts/SimswapERC20.sol\":1805:1823  _allowances[owner] */\n      0x00\n        /* \"contracts/SimswapERC20.sol\":1817:1822  owner */\n      dup5\n        /* \"contracts/SimswapERC20.sol\":1805:1823  _allowances[owner] */\n      0xffffffffffffffffffffffffffffffffffffffff\n      and\n      0xffffffffffffffffffffffffffffffffffffffff\n      and\n      dup2\n      mstore\n      0x20\n      add\n      swap1\n      dup2\n      mstore\n      0x20\n      add\n      0x00\n      keccak256\n        /* \"contracts/SimswapERC20.sol\":1805:1832  _allowances[owner][spender] */\n      0x00\n        /* \"contracts/SimswapERC20.sol\":1824:1831  spender */\n      dup4\n        /* \"contracts/SimswapERC20.sol\":1805:1832  _allowances[owner][spender] */\n      0xffffffffffffffffffffffffffffffffffffffff\n      and\n      0xffffffffffffffffffffffffffffffffffffffff\n      and\n      dup2\n      mstore\n      0x20\n      add\n      swap1\n      dup2\n      mstore\n      0x20\n      add\n      0x00\n      keccak256\n      sload\n        /* \"contracts/SimswapERC20.sol\":1798:1832  return _allowances[owner][spender] */\n      swap1\n      pop\n        /* \"contracts/SimswapERC20.sol\":1696:1840  function allowance(address owner, address spender) public view override returns (uint256) { \r... */\n      swap3\n      swap2\n      pop\n      pop\n      jump\t// out\n        /* \"contracts/SimswapERC20.sol\":2917:3303  function _approve(\r... */\n    tag_71:\n        /* \"contracts/SimswapERC20.sol\":3062:3063  0 */\n      0x00\n        /* \"contracts/SimswapERC20.sol\":3045:3064  owner != address(0) */\n      0xffffffffffffffffffffffffffffffffffffffff\n      and\n        /* \"contracts/SimswapERC20.sol\":3045:3050  owner */\n      dup4\n        /* \"contracts/SimswapERC20.sol\":3045:3064  owner != address(0) */\n      0xffffffffffffffffffffffffffffffffffffffff\n      and\n      eq\n      iszero\n        /* \"contracts/SimswapERC20.sol\":3037:3112  require(owner != address(0), \"SimswapERC20: approve from the zero address\") */\n      tag_109\n      jumpi\n      mload(0x40)\n      0x08c379a000000000000000000000000000000000000000000000000000000000\n      dup2\n      mstore\n      0x04\n      add\n      tag_110\n      swap1\n      tag_111\n      jump\t// in\n    tag_110:\n      mload(0x40)\n      dup1\n      swap2\n      sub\n      swap1\n      revert\n    tag_109:\n        /* \"contracts/SimswapERC20.sol\":3150:3151  0 */\n      0x00\n        /* \"contracts/SimswapERC20.sol\":3131:3152  spender != address(0) */\n      0xffffffffffffffffffffffffffffffffffffffff\n      and\n        /* \"contracts/SimswapERC20.sol\":3131:3138  spender */\n      dup3\n        /* \"contracts/SimswapERC20.sol\":3131:3152  spender != address(0) */\n      0xffffffffffffffffffffffffffffffffffffffff\n      and\n      eq\n      iszero\n        /* \"contracts/SimswapERC20.sol\":3123:3198  require(spender != address(0), \"SimswapERC20: approve to the zero address\") */\n      tag_112\n      jumpi\n      mload(0x40)\n      0x08c379a000000000000000000000000000000000000000000000000000000000\n      dup2\n      mstore\n      0x04\n      add\n      tag_113\n      swap1\n      tag_114\n      jump\t// in\n    tag_113:\n      mload(0x40)\n      dup1\n      swap2\n      sub\n      swap1\n      revert\n    tag_112:\n        /* \"contracts/SimswapERC20.sol\":3241:3247  amount */\n      dup1\n        /* \"contracts/SimswapERC20.sol\":3211:3222  _allowances */\n      0x02\n        /* \"contracts/SimswapERC20.sol\":3211:3229  _allowances[owner] */\n      0x00\n        /* \"contracts/SimswapERC20.sol\":3223:3228  owner */\n      dup6\n        /* \"contracts/SimswapERC20.sol\":3211:3229  _allowances[owner] */\n      0xffffffffffffffffffffffffffffffffffffffff\n      and\n      0xffffffffffffffffffffffffffffffffffffffff\n      and\n      dup2\n      mstore\n      0x20\n      add\n      swap1\n      dup2\n      mstore\n      0x20\n      add\n      0x00\n      keccak256\n        /* \"contracts/SimswapERC20.sol\":3211:3238  _allowances[owner][spender] */\n      0x00\n        /* \"contracts/SimswapERC20.sol\":3230:3237  spender */\n      dup5\n        /* \"contracts/SimswapERC20.sol\":3211:3238  _allowances[owner][spender] */\n      0xffffffffffffffffffffffffffffffffffffffff\n      and\n      0xffffffffffffffffffffffffffffffffffffffff\n      and\n      dup2\n      mstore\n      0x20\n      add\n      swap1\n      dup2\n      mstore\n      0x20\n      add\n      0x00\n      keccak256\n        /* \"contracts/SimswapERC20.sol\":3211:3247  _allowances[owner][spender] = amount */\n      dup2\n      swap1\n      sstore\n      pop\n        /* \"contracts/SimswapERC20.sol\":3279:3286  spender */\n      dup2\n        /* \"contracts/SimswapERC20.sol\":3263:3295  Approval(owner, spender, amount) */\n      0xffffffffffffffffffffffffffffffffffffffff\n      and\n        /* \"contracts/SimswapERC20.sol\":3272:3277  owner */\n      dup4\n        /* \"contracts/SimswapERC20.sol\":3263:3295  Approval(owner, spender, amount) */\n      0xffffffffffffffffffffffffffffffffffffffff\n      and\n      0x8c5be1e5ebec7d5bd14f71427d1e84f3dd0314c0f7b2291e5b200ac8c7c3b925\n        /* \"contracts/SimswapERC20.sol\":3288:3294  amount */\n      dup4\n        /* \"contracts/SimswapERC20.sol\":3263:3295  Approval(owner, spender, amount) */\n      mload(0x40)\n      tag_115\n      swap2\n      swap1\n      tag_29\n      jump\t// in\n    tag_115:\n      mload(0x40)\n      dup1\n      swap2\n      sub\n      swap1\n      log3\n        /* \"contracts/SimswapERC20.sol\":2917:3303  function _approve(\r... */\n      pop\n      pop\n      pop\n      jump\t// out\n        /* \"contracts/SimswapERC20.sol\":4219:4671  function _spendAllowance(\r... */\n    tag_75:\n        /* \"contracts/SimswapERC20.sol\":4346:4370  uint256 currentAllowance */\n      0x00\n        /* \"contracts/SimswapERC20.sol\":4373:4398  allowance(owner, spender) */\n      tag_117\n        /* \"contracts/SimswapERC20.sol\":4383:4388  owner */\n      dup5\n        /* \"contracts/SimswapERC20.sol\":4390:4397  spender */\n      dup5\n        /* \"contracts/SimswapERC20.sol\":4373:4382  allowance */\n      tag_66\n        /* \"contracts/SimswapERC20.sol\":4373:4398  allowance(owner, spender) */\n      jump\t// in\n    tag_117:\n        /* \"contracts/SimswapERC20.sol\":4346:4398  uint256 currentAllowance = allowance(owner, spender) */\n      swap1\n      pop\n        /* \"contracts/SimswapERC20.sol\":4433:4450  type(uint256).max */\n      0xffffffffffffffffffffffffffffffffffffffffffffffffffffffffffffffff\n        /* \"contracts/SimswapERC20.sol\":4413:4429  currentAllowance */\n      dup2\n        /* \"contracts/SimswapERC20.sol\":4413:4450  currentAllowance != type(uint256).max */\n      eq\n        /* \"contracts/SimswapERC20.sol\":4409:4664  if (currentAllowance != type(uint256).max) {\r... */\n      tag_118\n      jumpi\n        /* \"contracts/SimswapERC20.sol\":4495:4501  amount */\n      dup2\n        /* \"contracts/SimswapERC20.sol\":4475:4491  currentAllowance */\n      dup2\n        /* \"contracts/SimswapERC20.sol\":4475:4501  currentAllowance >= amount */\n      lt\n      iszero\n        /* \"contracts/SimswapERC20.sol\":4467:4542  require(currentAllowance >= amount, \"SimswapERC20: insufficient allowance\") */\n      tag_119\n      jumpi\n      mload(0x40)\n      0x08c379a000000000000000000000000000000000000000000000000000000000\n      dup2\n      mstore\n      0x04\n      add\n      tag_120\n      swap1\n      tag_121\n      jump\t// in\n    tag_120:\n      mload(0x40)\n      dup1\n      swap2\n      sub\n      swap1\n      revert\n    tag_119:\n        /* \"contracts/SimswapERC20.sol\":4586:4637  _approve(owner, spender, currentAllowance - amount) */\n      tag_122\n        /* \"contracts/SimswapERC20.sol\":4595:4600  owner */\n      dup5\n        /* \"contracts/SimswapERC20.sol\":4602:4609  spender */\n      dup5\n        /* \"contracts/SimswapERC20.sol\":4630:4636  amount */\n      dup5\n        /* \"contracts/SimswapERC20.sol\":4611:4627  currentAllowance */\n      dup5\n        /* \"contracts/SimswapERC20.sol\":4611:4636  currentAllowance - amount */\n      sub\n        /* \"contracts/SimswapERC20.sol\":4586:4594  _approve */\n      tag_71\n        /* \"contracts/SimswapERC20.sol\":4586:4637  _approve(owner, spender, currentAllowance - amount) */\n      jump\t// in\n    tag_122:\n        /* \"contracts/SimswapERC20.sol\":4409:4664  if (currentAllowance != type(uint256).max) {\r... */\n    tag_118:\n        /* \"contracts/SimswapERC20.sol\":4335:4671  {\r... */\n      pop\n        /* \"contracts/SimswapERC20.sol\":4219:4671  function _spendAllowance(\r... */\n      pop\n      pop\n      pop\n      jump\t// out\n        /* \"contracts/SimswapERC20.sol\":3311:3871  function _transfer(address from, address to, uint256 amount) internal {\r... */\n    tag_77:\n        /* \"contracts/SimswapERC20.sol\":3416:3417  0 */\n      0x00\n        /* \"contracts/SimswapERC20.sol\":3400:3418  from != address(0) */\n      0xffffffffffffffffffffffffffffffffffffffff\n      and\n        /* \"contracts/SimswapERC20.sol\":3400:3404  from */\n      dup4\n        /* \"contracts/SimswapERC20.sol\":3400:3418  from != address(0) */\n      0xffffffffffffffffffffffffffffffffffffffff\n      and\n      eq\n      iszero\n        /* \"contracts/SimswapERC20.sol\":3392:3467  require(from != address(0), \"SimswapERC20: transfer from the zero address\") */\n      tag_124\n      jumpi\n      mload(0x40)\n      0x08c379a000000000000000000000000000000000000000000000000000000000\n      dup2\n      mstore\n      0x04\n      add\n      tag_125\n      swap1\n      tag_126\n      jump\t// in\n    tag_125:\n      mload(0x40)\n      dup1\n      swap2\n      sub\n      swap1\n      revert\n    tag_124:\n        /* \"contracts/SimswapERC20.sol\":3500:3501  0 */\n      0x00\n        /* \"contracts/SimswapERC20.sol\":3486:3502  to != address(0) */\n      0xffffffffffffffffffffffffffffffffffffffff\n      and\n        /* \"contracts/SimswapERC20.sol\":3486:3488  to */\n      dup3\n        /* \"contracts/SimswapERC20.sol\":3486:3502  to != address(0) */\n      0xffffffffffffffffffffffffffffffffffffffff\n      and\n      eq\n      iszero\n        /* \"contracts/SimswapERC20.sol\":3478:3549  require(to != address(0), \"SimswapERC20: transfer to the zero address\") */\n      tag_127\n      jumpi\n      mload(0x40)\n      0x08c379a000000000000000000000000000000000000000000000000000000000\n      dup2\n      mstore\n      0x04\n      add\n      tag_128\n      swap1\n      tag_129\n      jump\t// in\n    tag_128:\n      mload(0x40)\n      dup1\n      swap2\n      sub\n      swap1\n      revert\n    tag_127:\n        /* \"contracts/SimswapERC20.sol\":3560:3579  uint256 fromBalance */\n      0x00\n        /* \"contracts/SimswapERC20.sol\":3582:3591  _balances */\n      0x01\n        /* \"contracts/SimswapERC20.sol\":3582:3597  _balances[from] */\n      0x00\n        /* \"contracts/SimswapERC20.sol\":3592:3596  from */\n      dup6\n        /* \"contracts/SimswapERC20.sol\":3582:3597  _balances[from] */\n      0xffffffffffffffffffffffffffffffffffffffff\n      and\n      0xffffffffffffffffffffffffffffffffffffffff\n      and\n      dup2\n      mstore\n      0x20\n      add\n      swap1\n      dup2\n      mstore\n      0x20\n      add\n      0x00\n      keccak256\n      sload\n        /* \"contracts/SimswapERC20.sol\":3560:3597  uint256 fromBalance = _balances[from] */\n      swap1\n      pop\n        /* \"contracts/SimswapERC20.sol\":3631:3637  amount */\n      dup2\n        /* \"contracts/SimswapERC20.sol\":3616:3627  fromBalance */\n      dup2\n        /* \"contracts/SimswapERC20.sol\":3616:3637  fromBalance >= amount */\n      lt\n      iszero\n        /* \"contracts/SimswapERC20.sol\":3608:3687  require(fromBalance >= amount, \"SimswapERC20: transfer amount exceeds balance\") */\n      tag_130\n      jumpi\n      mload(0x40)\n      0x08c379a000000000000000000000000000000000000000000000000000000000\n      dup2\n      mstore\n      0x04\n      add\n      tag_131\n      swap1\n      tag_132\n      jump\t// in\n    tag_131:\n      mload(0x40)\n      dup1\n      swap2\n      sub\n      swap1\n      revert\n    tag_130:\n        /* \"contracts/SimswapERC20.sol\":3755:3761  amount */\n      dup2\n        /* \"contracts/SimswapERC20.sol\":3741:3752  fromBalance */\n      dup2\n        /* \"contracts/SimswapERC20.sol\":3741:3761  fromBalance - amount */\n      sub\n        /* \"contracts/SimswapERC20.sol\":3723:3732  _balances */\n      0x01\n        /* \"contracts/SimswapERC20.sol\":3723:3738  _balances[from] */\n      0x00\n        /* \"contracts/SimswapERC20.sol\":3733:3737  from */\n      dup7\n        /* \"contracts/SimswapERC20.sol\":3723:3738  _balances[from] */\n      0xffffffffffffffffffffffffffffffffffffffff\n      and\n      0xffffffffffffffffffffffffffffffffffffffff\n      and\n      dup2\n      mstore\n      0x20\n      add\n      swap1\n      dup2\n      mstore\n      0x20\n      add\n      0x00\n      keccak256\n        /* \"contracts/SimswapERC20.sol\":3723:3761  _balances[from] = fromBalance - amount */\n      dup2\n      swap1\n      sstore\n      pop\n        /* \"contracts/SimswapERC20.sol\":3815:3821  amount */\n      dup2\n        /* \"contracts/SimswapERC20.sol\":3799:3808  _balances */\n      0x01\n        /* \"contracts/SimswapERC20.sol\":3799:3812  _balances[to] */\n      0x00\n        /* \"contracts/SimswapERC20.sol\":3809:3811  to */\n      dup6\n        /* \"contracts/SimswapERC20.sol\":3799:3812  _balances[to] */\n      0xffffffffffffffffffffffffffffffffffffffff\n      and\n      0xffffffffffffffffffffffffffffffffffffffff\n      and\n      dup2\n      mstore\n      0x20\n      add\n      swap1\n      dup2\n      mstore\n      0x20\n      add\n      0x00\n      keccak256\n      sload\n        /* \"contracts/SimswapERC20.sol\":3799:3821  _balances[to] + amount */\n      tag_133\n      swap2\n      swap1\n      tag_134\n      jump\t// in\n    tag_133:\n        /* \"contracts/SimswapERC20.sol\":3783:3792  _balances */\n      0x01\n        /* \"contracts/SimswapERC20.sol\":3783:3796  _balances[to] */\n      0x00\n        /* \"contracts/SimswapERC20.sol\":3793:3795  to */\n      dup6\n        /* \"contracts/SimswapERC20.sol\":3783:3796  _balances[to] */\n      0xffffffffffffffffffffffffffffffffffffffff\n      and\n      0xffffffffffffffffffffffffffffffffffffffff\n      and\n      dup2\n      mstore\n      0x20\n      add\n      swap1\n      dup2\n      mstore\n      0x20\n      add\n      0x00\n      keccak256\n        /* \"contracts/SimswapERC20.sol\":3783:3821  _balances[to] = _balances[to] + amount */\n      dup2\n      swap1\n      sstore\n      pop\n        /* \"contracts/SimswapERC20.sol\":3852:3854  to */\n      dup3\n        /* \"contracts/SimswapERC20.sol\":3837:3863  Transfer(from, to, amount) */\n      0xffffffffffffffffffffffffffffffffffffffff\n      and\n        /* \"contracts/SimswapERC20.sol\":3846:3850  from */\n      dup5\n        /* \"contracts/SimswapERC20.sol\":3837:3863  Transfer(from, to, amount) */\n      0xffffffffffffffffffffffffffffffffffffffff\n      and\n      0xddf252ad1be2c89b69c2b068fc378daa952ba7f163c4a11628f55a4df523b3ef\n        /* \"contracts/SimswapERC20.sol\":3856:3862  amount */\n      dup5\n        /* \"contracts/SimswapERC20.sol\":3837:3863  Transfer(from, to, amount) */\n      mload(0x40)\n      tag_135\n      swap2\n      swap1\n      tag_29\n      jump\t// in\n    tag_135:\n      mload(0x40)\n      dup1\n      swap2\n      sub\n      swap1\n      log3\n        /* \"contracts/SimswapERC20.sol\":3381:3871  {\r... */\n      pop\n        /* \"contracts/SimswapERC20.sol\":3311:3871  function _transfer(address from, address to, uint256 amount) internal {\r... */\n      pop\n      pop\n      pop\n      jump\t// out\n        /* \"contracts/SimswapERC20.sol\":6221:6599  function computeDomainSeparator() internal view virtual returns (bytes32) {\r... */\n    tag_82:\n        /* \"contracts/SimswapERC20.sol\":6286:6293  bytes32 */\n      0x00\n        /* \"contracts/SimswapERC20.sol\":1026:1092  0x8b73c3c69bb8fe3d512ecc4cf759cc79239f7b179b0ffacaa9a75d522b39400f */\n      0x8b73c3c69bb8fe3d512ecc4cf759cc79239f7b179b0ffacaa9a75d522b39400f\n        /* \"contracts/SimswapERC20.sol\":6387:6402  DOMAIN_TYPEHASH */\n      0x00\n      shl\n        /* \"contracts/SimswapERC20.sol\":6441:6446  _name */\n      mload(0x40)\n      dup1\n      0x40\n      add\n      0x40\n      mstore\n      dup1\n      0x07\n      dup2\n      mstore\n      0x20\n      add\n      0x53696d7377617000000000000000000000000000000000000000000000000000\n      dup2\n      mstore\n      pop\n        /* \"contracts/SimswapERC20.sol\":6425:6448  keccak256(bytes(_name)) */\n      dup1\n      mload\n      swap1\n      0x20\n      add\n      keccak256\n        /* \"contracts/SimswapERC20.sol\":6471:6485  keccak256(\"1\") */\n      0xc89efdaa54c0f20c7adf612882df0950f5a951637e0307cdcb4c672f298b8bc6\n        /* \"contracts/SimswapERC20.sol\":6508:6521  block.chainid */\n      chainid\n        /* \"contracts/SimswapERC20.sol\":6552:6556  this */\n      address\n        /* \"contracts/SimswapERC20.sol\":6354:6576  abi.encode(\r... */\n      add(0x20, mload(0x40))\n      tag_137\n      swap6\n      swap5\n      swap4\n      swap3\n      swap2\n      swap1\n      tag_138\n      jump\t// in\n    tag_137:\n      mload(0x40)\n      0x20\n      dup2\n      dup4\n      sub\n      sub\n      dup2\n      mstore\n      swap1\n      0x40\n      mstore\n        /* \"contracts/SimswapERC20.sol\":6326:6591  keccak256(\r... */\n      dup1\n      mload\n      swap1\n      0x20\n      add\n      keccak256\n        /* \"contracts/SimswapERC20.sol\":6306:6591  return\r... */\n      swap1\n      pop\n        /* \"contracts/SimswapERC20.sol\":6221:6599  function computeDomainSeparator() internal view virtual returns (bytes32) {\r... */\n      swap1\n      jump\t// out\n        /* \"#utility.yul\":7:146   */\n    tag_140:\n        /* \"#utility.yul\":53:58   */\n      0x00\n        /* \"#utility.yul\":91:97   */\n      dup2\n        /* \"#utility.yul\":78:98   */\n      calldataload\n        /* \"#utility.yul\":69:98   */\n      swap1\n      pop\n        /* \"#utility.yul\":107:140   */\n      tag_142\n        /* \"#utility.yul\":134:139   */\n      dup2\n        /* \"#utility.yul\":107:140   */\n      tag_143\n      jump\t// in\n    tag_142:\n        /* \"#utility.yul\":7:146   */\n      swap3\n      swap2\n      pop\n      pop\n      jump\t// out\n        /* \"#utility.yul\":152:291   */\n    tag_144:\n        /* \"#utility.yul\":198:203   */\n      0x00\n        /* \"#utility.yul\":236:242   */\n      dup2\n        /* \"#utility.yul\":223:243   */\n      calldataload\n        /* \"#utility.yul\":214:243   */\n      swap1\n      pop\n        /* \"#utility.yul\":252:285   */\n      tag_146\n        /* \"#utility.yul\":279:284   */\n      dup2\n        /* \"#utility.yul\":252:285   */\n      tag_147\n      jump\t// in\n    tag_146:\n        /* \"#utility.yul\":152:291   */\n      swap3\n      swap2\n      pop\n      pop\n      jump\t// out\n        /* \"#utility.yul\":297:436   */\n    tag_148:\n        /* \"#utility.yul\":343:348   */\n      0x00\n        /* \"#utility.yul\":381:387   */\n      dup2\n        /* \"#utility.yul\":368:388   */\n      calldataload\n        /* \"#utility.yul\":359:388   */\n      swap1\n      pop\n        /* \"#utility.yul\":397:430   */\n      tag_150\n        /* \"#utility.yul\":424:429   */\n      dup2\n        /* \"#utility.yul\":397:430   */\n      tag_151\n      jump\t// in\n    tag_150:\n        /* \"#utility.yul\":297:436   */\n      swap3\n      swap2\n      pop\n      pop\n      jump\t// out\n        /* \"#utility.yul\":442:577   */\n    tag_152:\n        /* \"#utility.yul\":486:491   */\n      0x00\n        /* \"#utility.yul\":524:530   */\n      dup2\n        /* \"#utility.yul\":511:531   */\n      calldataload\n        /* \"#utility.yul\":502:531   */\n      swap1\n      pop\n        /* \"#utility.yul\":540:571   */\n      tag_154\n        /* \"#utility.yul\":565:570   */\n      dup2\n        /* \"#utility.yul\":540:571   */\n      tag_155\n      jump\t// in\n    tag_154:\n        /* \"#utility.yul\":442:577   */\n      swap3\n      swap2\n      pop\n      pop\n      jump\t// out\n        /* \"#utility.yul\":583:912   */\n    tag_45:\n        /* \"#utility.yul\":642:648   */\n      0x00\n        /* \"#utility.yul\":691:693   */\n      0x20\n        /* \"#utility.yul\":679:688   */\n      dup3\n        /* \"#utility.yul\":670:677   */\n      dup5\n        /* \"#utility.yul\":666:689   */\n      sub\n        /* \"#utility.yul\":662:694   */\n      slt\n        /* \"#utility.yul\":659:778   */\n      iszero\n      tag_157\n      jumpi\n        /* \"#utility.yul\":697:776   */\n      tag_158\n      tag_159\n      jump\t// in\n    tag_158:\n        /* \"#utility.yul\":659:778   */\n    tag_157:\n        /* \"#utility.yul\":817:818   */\n      0x00\n        /* \"#utility.yul\":842:895   */\n      tag_160\n        /* \"#utility.yul\":887:894   */\n      dup5\n        /* \"#utility.yul\":878:884   */\n      dup3\n        /* \"#utility.yul\":867:876   */\n      dup6\n        /* \"#utility.yul\":863:885   */\n      add\n        /* \"#utility.yul\":842:895   */\n      tag_140\n      jump\t// in\n    tag_160:\n        /* \"#utility.yul\":832:895   */\n      swap2\n      pop\n        /* \"#utility.yul\":788:905   */\n      pop\n        /* \"#utility.yul\":583:912   */\n      swap3\n      swap2\n      pop\n      pop\n      jump\t// out\n        /* \"#utility.yul\":918:1392   */\n    tag_65:\n        /* \"#utility.yul\":986:992   */\n      0x00\n        /* \"#utility.yul\":994:1000   */\n      dup1\n        /* \"#utility.yul\":1043:1045   */\n      0x40\n        /* \"#utility.yul\":1031:1040   */\n      dup4\n        /* \"#utility.yul\":1022:1029   */\n      dup6\n        /* \"#utility.yul\":1018:1041   */\n      sub\n        /* \"#utility.yul\":1014:1046   */\n      slt\n        /* \"#utility.yul\":1011:1130   */\n      iszero\n      tag_162\n      jumpi\n        /* \"#utility.yul\":1049:1128   */\n      tag_163\n      tag_159\n      jump\t// in\n    tag_163:\n        /* \"#utility.yul\":1011:1130   */\n    tag_162:\n        /* \"#utility.yul\":1169:1170   */\n      0x00\n        /* \"#utility.yul\":1194:1247   */\n      tag_164\n        /* \"#utility.yul\":1239:1246   */\n      dup6\n        /* \"#utility.yul\":1230:1236   */\n      dup3\n        /* \"#utility.yul\":1219:1228   */\n      dup7\n        /* \"#utility.yul\":1215:1237   */\n      add\n        /* \"#utility.yul\":1194:1247   */\n      tag_140\n      jump\t// in\n    tag_164:\n        /* \"#utility.yul\":1184:1247   */\n      swap3\n      pop\n        /* \"#utility.yul\":1140:1257   */\n      pop\n        /* \"#utility.yul\":1296:1298   */\n      0x20\n        /* \"#utility.yul\":1322:1375   */\n      tag_165\n        /* \"#utility.yul\":1367:1374   */\n      dup6\n        /* \"#utility.yul\":1358:1364   */\n      dup3\n        /* \"#utility.yul\":1347:1356   */\n      dup7\n        /* \"#utility.yul\":1343:1365   */\n      add\n        /* \"#utility.yul\":1322:1375   */\n      tag_140\n      jump\t// in\n    tag_165:\n        /* \"#utility.yul\":1312:1375   */\n      swap2\n      pop\n        /* \"#utility.yul\":1267:1385   */\n      pop\n        /* \"#utility.yul\":918:1392   */\n      swap3\n      pop\n      swap3\n      swap1\n      pop\n      jump\t// out\n        /* \"#utility.yul\":1398:2017   */\n    tag_32:\n        /* \"#utility.yul\":1475:1481   */\n      0x00\n        /* \"#utility.yul\":1483:1489   */\n      dup1\n        /* \"#utility.yul\":1491:1497   */\n      0x00\n        /* \"#utility.yul\":1540:1542   */\n      0x60\n        /* \"#utility.yul\":1528:1537   */\n      dup5\n        /* \"#utility.yul\":1519:1526   */\n      dup7\n        /* \"#utility.yul\":1515:1538   */\n      sub\n        /* \"#utility.yul\":1511:1543   */\n      slt\n        /* \"#utility.yul\":1508:1627   */\n      iszero\n      tag_167\n      jumpi\n        /* \"#utility.yul\":1546:1625   */\n      tag_168\n      tag_159\n      jump\t// in\n    tag_168:\n        /* \"#utility.yul\":1508:1627   */\n    tag_167:\n        /* \"#utility.yul\":1666:1667   */\n      0x00\n        /* \"#utility.yul\":1691:1744   */\n      tag_169\n        /* \"#utility.yul\":1736:1743   */\n      dup7\n        /* \"#utility.yul\":1727:1733   */\n      dup3\n        /* \"#utility.yul\":1716:1725   */\n      dup8\n        /* \"#utility.yul\":1712:1734   */\n      add\n        /* \"#utility.yul\":1691:1744   */\n      tag_140\n      jump\t// in\n    tag_169:\n        /* \"#utility.yul\":1681:1744   */\n      swap4\n      pop\n        /* \"#utility.yul\":1637:1754   */\n      pop\n        /* \"#utility.yul\":1793:1795   */\n      0x20\n        /* \"#utility.yul\":1819:1872   */\n      tag_170\n        /* \"#utility.yul\":1864:1871   */\n      dup7\n        /* \"#utility.yul\":1855:1861   */\n      dup3\n        /* \"#utility.yul\":1844:1853   */\n      dup8\n        /* \"#utility.yul\":1840:1862   */\n      add\n        /* \"#utility.yul\":1819:1872   */\n      tag_140\n      jump\t// in\n    tag_170:\n        /* \"#utility.yul\":1809:1872   */\n      swap3\n      pop\n        /* \"#utility.yul\":1764:1882   */\n      pop\n        /* \"#utility.yul\":1921:1923   */\n      0x40\n        /* \"#utility.yul\":1947:2000   */\n      tag_171\n        /* \"#utility.yul\":1992:1999   */\n      dup7\n        /* \"#utility.yul\":1983:1989   */\n      dup3\n        /* \"#utility.yul\":1972:1981   */\n      dup8\n        /* \"#utility.yul\":1968:1990   */\n      add\n        /* \"#utility.yul\":1947:2000   */\n      tag_148\n      jump\t// in\n    tag_171:\n        /* \"#utility.yul\":1937:2000   */\n      swap2\n      pop\n        /* \"#utility.yul\":1892:2010   */\n      pop\n        /* \"#utility.yul\":1398:2017   */\n      swap3\n      pop\n      swap3\n      pop\n      swap3\n      jump\t// out\n        /* \"#utility.yul\":2023:3222   */\n    tag_61:\n        /* \"#utility.yul\":2134:2140   */\n      0x00\n        /* \"#utility.yul\":2142:2148   */\n      dup1\n        /* \"#utility.yul\":2150:2156   */\n      0x00\n        /* \"#utility.yul\":2158:2164   */\n      dup1\n        /* \"#utility.yul\":2166:2172   */\n      0x00\n        /* \"#utility.yul\":2174:2180   */\n      dup1\n        /* \"#utility.yul\":2182:2188   */\n      0x00\n        /* \"#utility.yul\":2231:2234   */\n      0xe0\n        /* \"#utility.yul\":2219:2228   */\n      dup9\n        /* \"#utility.yul\":2210:2217   */\n      dup11\n        /* \"#utility.yul\":2206:2229   */\n      sub\n        /* \"#utility.yul\":2202:2235   */\n      slt\n        /* \"#utility.yul\":2199:2319   */\n      iszero\n      tag_173\n      jumpi\n        /* \"#utility.yul\":2238:2317   */\n      tag_174\n      tag_159\n      jump\t// in\n    tag_174:\n        /* \"#utility.yul\":2199:2319   */\n    tag_173:\n        /* \"#utility.yul\":2358:2359   */\n      0x00\n        /* \"#utility.yul\":2383:2436   */\n      tag_175\n        /* \"#utility.yul\":2428:2435   */\n      dup11\n        /* \"#utility.yul\":2419:2425   */\n      dup3\n        /* \"#utility.yul\":2408:2417   */\n      dup12\n        /* \"#utility.yul\":2404:2426   */\n      add\n        /* \"#utility.yul\":2383:2436   */\n      tag_140\n      jump\t// in\n    tag_175:\n        /* \"#utility.yul\":2373:2436   */\n      swap8\n      pop\n        /* \"#utility.yul\":2329:2446   */\n      pop\n        /* \"#utility.yul\":2485:2487   */\n      0x20\n        /* \"#utility.yul\":2511:2564   */\n      tag_176\n        /* \"#utility.yul\":2556:2563   */\n      dup11\n        /* \"#utility.yul\":2547:2553   */\n      dup3\n        /* \"#utility.yul\":2536:2545   */\n      dup12\n        /* \"#utility.yul\":2532:2554   */\n      add\n        /* \"#utility.yul\":2511:2564   */\n      tag_140\n      jump\t// in\n    tag_176:\n        /* \"#utility.yul\":2501:2564   */\n      swap7\n      pop\n        /* \"#utility.yul\":2456:2574   */\n      pop\n        /* \"#utility.yul\":2613:2615   */\n      0x40\n        /* \"#utility.yul\":2639:2692   */\n      tag_177\n        /* \"#utility.yul\":2684:2691   */\n      dup11\n        /* \"#utility.yul\":2675:2681   */\n      dup3\n        /* \"#utility.yul\":2664:2673   */\n      dup12\n        /* \"#utility.yul\":2660:2682   */\n      add\n        /* \"#utility.yul\":2639:2692   */\n      tag_148\n      jump\t// in\n    tag_177:\n        /* \"#utility.yul\":2629:2692   */\n      swap6\n      pop\n        /* \"#utility.yul\":2584:2702   */\n      pop\n        /* \"#utility.yul\":2741:2743   */\n      0x60\n        /* \"#utility.yul\":2767:2820   */\n      tag_178\n        /* \"#utility.yul\":2812:2819   */\n      dup11\n        /* \"#utility.yul\":2803:2809   */\n      dup3\n        /* \"#utility.yul\":2792:2801   */\n      dup12\n        /* \"#utility.yul\":2788:2810   */\n      add\n        /* \"#utility.yul\":2767:2820   */\n      tag_148\n      jump\t// in\n    tag_178:\n        /* \"#utility.yul\":2757:2820   */\n      swap5\n      pop\n        /* \"#utility.yul\":2712:2830   */\n      pop\n        /* \"#utility.yul\":2869:2872   */\n      0x80\n        /* \"#utility.yul\":2896:2947   */\n      tag_179\n        /* \"#utility.yul\":2939:2946   */\n      dup11\n        /* \"#utility.yul\":2930:2936   */\n      dup3\n        /* \"#utility.yul\":2919:2928   */\n      dup12\n        /* \"#utility.yul\":2915:2937   */\n      add\n        /* \"#utility.yul\":2896:2947   */\n      tag_152\n      jump\t// in\n    tag_179:\n        /* \"#utility.yul\":2886:2947   */\n      swap4\n      pop\n        /* \"#utility.yul\":2840:2957   */\n      pop\n        /* \"#utility.yul\":2996:2999   */\n      0xa0\n        /* \"#utility.yul\":3023:3076   */\n      tag_180\n        /* \"#utility.yul\":3068:3075   */\n      dup11\n        /* \"#utility.yul\":3059:3065   */\n      dup3\n        /* \"#utility.yul\":3048:3057   */\n      dup12\n        /* \"#utility.yul\":3044:3066   */\n      add\n        /* \"#utility.yul\":3023:3076   */\n      tag_144\n      jump\t// in\n    tag_180:\n        /* \"#utility.yul\":3013:3076   */\n      swap3\n      pop\n        /* \"#utility.yul\":2967:3086   */\n      pop\n        /* \"#utility.yul\":3125:3128   */\n      0xc0\n        /* \"#utility.yul\":3152:3205   */\n      tag_181\n        /* \"#utility.yul\":3197:3204   */\n      dup11\n        /* \"#utility.yul\":3188:3194   */\n      dup3\n        /* \"#utility.yul\":3177:3186   */\n      dup12\n        /* \"#utility.yul\":3173:3195   */\n      add\n        /* \"#utility.yul\":3152:3205   */\n      tag_144\n      jump\t// in\n    tag_181:\n        /* \"#utility.yul\":3142:3205   */\n      swap2\n      pop\n        /* \"#utility.yul\":3096:3215   */\n      pop\n        /* \"#utility.yul\":2023:3222   */\n      swap3\n      swap6\n      swap9\n      swap2\n      swap5\n      swap8\n      pop\n      swap3\n      swap6\n      pop\n      jump\t// out\n        /* \"#utility.yul\":3228:3702   */\n    tag_22:\n        /* \"#utility.yul\":3296:3302   */\n      0x00\n        /* \"#utility.yul\":3304:3310   */\n      dup1\n        /* \"#utility.yul\":3353:3355   */\n      0x40\n        /* \"#utility.yul\":3341:3350   */\n      dup4\n        /* \"#utility.yul\":3332:3339   */\n      dup6\n        /* \"#utility.yul\":3328:3351   */\n      sub\n        /* \"#utility.yul\":3324:3356   */\n      slt\n        /* \"#utility.yul\":3321:3440   */\n      iszero\n      tag_183\n      jumpi\n        /* \"#utility.yul\":3359:3438   */\n      tag_184\n      tag_159\n      jump\t// in\n    tag_184:\n        /* \"#utility.yul\":3321:3440   */\n    tag_183:\n        /* \"#utility.yul\":3479:3480   */\n      0x00\n        /* \"#utility.yul\":3504:3557   */\n      tag_185\n        /* \"#utility.yul\":3549:3556   */\n      dup6\n        /* \"#utility.yul\":3540:3546   */\n      dup3\n        /* \"#utility.yul\":3529:3538   */\n      dup7\n        /* \"#utility.yul\":3525:3547   */\n      add\n        /* \"#utility.yul\":3504:3557   */\n      tag_140\n      jump\t// in\n    tag_185:\n        /* \"#utility.yul\":3494:3557   */\n      swap3\n      pop\n        /* \"#utility.yul\":3450:3567   */\n      pop\n        /* \"#utility.yul\":3606:3608   */\n      0x20\n        /* \"#utility.yul\":3632:3685   */\n      tag_186\n        /* \"#utility.yul\":3677:3684   */\n      dup6\n        /* \"#utility.yul\":3668:3674   */\n      dup3\n        /* \"#utility.yul\":3657:3666   */\n      dup7\n        /* \"#utility.yul\":3653:3675   */\n      add\n        /* \"#utility.yul\":3632:3685   */\n      tag_148\n      jump\t// in\n    tag_186:\n        /* \"#utility.yul\":3622:3685   */\n      swap2\n      pop\n        /* \"#utility.yul\":3577:3695   */\n      pop\n        /* \"#utility.yul\":3228:3702   */\n      swap3\n      pop\n      swap3\n      swap1\n      pop\n      jump\t// out\n        /* \"#utility.yul\":3708:3826   */\n    tag_187:\n        /* \"#utility.yul\":3795:3819   */\n      tag_189\n        /* \"#utility.yul\":3813:3818   */\n      dup2\n        /* \"#utility.yul\":3795:3819   */\n      tag_190\n      jump\t// in\n    tag_189:\n        /* \"#utility.yul\":3790:3793   */\n      dup3\n        /* \"#utility.yul\":3783:3820   */\n      mstore\n        /* \"#utility.yul\":3708:3826   */\n      pop\n      pop\n      jump\t// out\n        /* \"#utility.yul\":3832:3941   */\n    tag_191:\n        /* \"#utility.yul\":3913:3934   */\n      tag_193\n        /* \"#utility.yul\":3928:3933   */\n      dup2\n        /* \"#utility.yul\":3913:3934   */\n      tag_194\n      jump\t// in\n    tag_193:\n        /* \"#utility.yul\":3908:3911   */\n      dup3\n        /* \"#utility.yul\":3901:3935   */\n      mstore\n        /* \"#utility.yul\":3832:3941   */\n      pop\n      pop\n      jump\t// out\n        /* \"#utility.yul\":3947:4065   */\n    tag_195:\n        /* \"#utility.yul\":4034:4058   */\n      tag_197\n        /* \"#utility.yul\":4052:4057   */\n      dup2\n        /* \"#utility.yul\":4034:4058   */\n      tag_198\n      jump\t// in\n    tag_197:\n        /* \"#utility.yul\":4029:4032   */\n      dup3\n        /* \"#utility.yul\":4022:4059   */\n      mstore\n        /* \"#utility.yul\":3947:4065   */\n      pop\n      pop\n      jump\t// out\n        /* \"#utility.yul\":4071:4228   */\n    tag_199:\n        /* \"#utility.yul\":4176:4221   */\n      tag_201\n        /* \"#utility.yul\":4196:4220   */\n      tag_202\n        /* \"#utility.yul\":4214:4219   */\n      dup3\n        /* \"#utility.yul\":4196:4220   */\n      tag_198\n      jump\t// in\n    tag_202:\n        /* \"#utility.yul\":4176:4221   */\n      tag_203\n      jump\t// in\n    tag_201:\n        /* \"#utility.yul\":4171:4174   */\n      dup3\n        /* \"#utility.yul\":4164:4222   */\n      mstore\n        /* \"#utility.yul\":4071:4228   */\n      pop\n      pop\n      jump\t// out\n        /* \"#utility.yul\":4234:4598   */\n    tag_204:\n        /* \"#utility.yul\":4322:4325   */\n      0x00\n        /* \"#utility.yul\":4350:4389   */\n      tag_206\n        /* \"#utility.yul\":4383:4388   */\n      dup3\n        /* \"#utility.yul\":4350:4389   */\n      tag_207\n      jump\t// in\n    tag_206:\n        /* \"#utility.yul\":4405:4476   */\n      tag_208\n        /* \"#utility.yul\":4469:4475   */\n      dup2\n        /* \"#utility.yul\":4464:4467   */\n      dup6\n        /* \"#utility.yul\":4405:4476   */\n      tag_209\n      jump\t// in\n    tag_208:\n        /* \"#utility.yul\":4398:4476   */\n      swap4\n      pop\n        /* \"#utility.yul\":4485:4537   */\n      tag_210\n        /* \"#utility.yul\":4530:4536   */\n      dup2\n        /* \"#utility.yul\":4525:4528   */\n      dup6\n        /* \"#utility.yul\":4518:4522   */\n      0x20\n        /* \"#utility.yul\":4511:4516   */\n      dup7\n        /* \"#utility.yul\":4507:4523   */\n      add\n        /* \"#utility.yul\":4485:4537   */\n      tag_211\n      jump\t// in\n    tag_210:\n        /* \"#utility.yul\":4562:4591   */\n      tag_212\n        /* \"#utility.yul\":4584:4590   */\n      dup2\n        /* \"#utility.yul\":4562:4591   */\n      tag_213\n      jump\t// in\n    tag_212:\n        /* \"#utility.yul\":4557:4560   */\n      dup5\n        /* \"#utility.yul\":4553:4592   */\n      add\n        /* \"#utility.yul\":4546:4592   */\n      swap2\n      pop\n        /* \"#utility.yul\":4326:4598   */\n      pop\n        /* \"#utility.yul\":4234:4598   */\n      swap3\n      swap2\n      pop\n      pop\n      jump\t// out\n        /* \"#utility.yul\":4604:4970   */\n    tag_214:\n        /* \"#utility.yul\":4746:4749   */\n      0x00\n        /* \"#utility.yul\":4767:4834   */\n      tag_216\n        /* \"#utility.yul\":4831:4833   */\n      0x1a\n        /* \"#utility.yul\":4826:4829   */\n      dup4\n        /* \"#utility.yul\":4767:4834   */\n      tag_209\n      jump\t// in\n    tag_216:\n        /* \"#utility.yul\":4760:4834   */\n      swap2\n      pop\n        /* \"#utility.yul\":4843:4936   */\n      tag_217\n        /* \"#utility.yul\":4932:4935   */\n      dup3\n        /* \"#utility.yul\":4843:4936   */\n      tag_218\n      jump\t// in\n    tag_217:\n        /* \"#utility.yul\":4961:4963   */\n      0x20\n        /* \"#utility.yul\":4956:4959   */\n      dup3\n        /* \"#utility.yul\":4952:4964   */\n      add\n        /* \"#utility.yul\":4945:4964   */\n      swap1\n      pop\n        /* \"#utility.yul\":4604:4970   */\n      swap2\n      swap1\n      pop\n      jump\t// out\n        /* \"#utility.yul\":4976:5342   */\n    tag_219:\n        /* \"#utility.yul\":5118:5121   */\n      0x00\n        /* \"#utility.yul\":5139:5206   */\n      tag_221\n        /* \"#utility.yul\":5203:5205   */\n      0x24\n        /* \"#utility.yul\":5198:5201   */\n      dup4\n        /* \"#utility.yul\":5139:5206   */\n      tag_209\n      jump\t// in\n    tag_221:\n        /* \"#utility.yul\":5132:5206   */\n      swap2\n      pop\n        /* \"#utility.yul\":5215:5308   */\n      tag_222\n        /* \"#utility.yul\":5304:5307   */\n      dup3\n        /* \"#utility.yul\":5215:5308   */\n      tag_223\n      jump\t// in\n    tag_222:\n        /* \"#utility.yul\":5333:5335   */\n      0x40\n        /* \"#utility.yul\":5328:5331   */\n      dup3\n        /* \"#utility.yul\":5324:5336   */\n      add\n        /* \"#utility.yul\":5317:5336   */\n      swap1\n      pop\n        /* \"#utility.yul\":4976:5342   */\n      swap2\n      swap1\n      pop\n      jump\t// out\n        /* \"#utility.yul\":5348:5748   */\n    tag_224:\n        /* \"#utility.yul\":5508:5511   */\n      0x00\n        /* \"#utility.yul\":5529:5613   */\n      tag_226\n        /* \"#utility.yul\":5611:5612   */\n      0x02\n        /* \"#utility.yul\":5606:5609   */\n      dup4\n        /* \"#utility.yul\":5529:5613   */\n      tag_227\n      jump\t// in\n    tag_226:\n        /* \"#utility.yul\":5522:5613   */\n      swap2\n      pop\n        /* \"#utility.yul\":5622:5715   */\n      tag_228\n        /* \"#utility.yul\":5711:5714   */\n      dup3\n        /* \"#utility.yul\":5622:5715   */\n      tag_229\n      jump\t// in\n    tag_228:\n        /* \"#utility.yul\":5740:5741   */\n      0x02\n        /* \"#utility.yul\":5735:5738   */\n      dup3\n        /* \"#utility.yul\":5731:5742   */\n      add\n        /* \"#utility.yul\":5724:5742   */\n      swap1\n      pop\n        /* \"#utility.yul\":5348:5748   */\n      swap2\n      swap1\n      pop\n      jump\t// out\n        /* \"#utility.yul\":5754:6120   */\n    tag_230:\n        /* \"#utility.yul\":5896:5899   */\n      0x00\n        /* \"#utility.yul\":5917:5984   */\n      tag_232\n        /* \"#utility.yul\":5981:5983   */\n      0x2a\n        /* \"#utility.yul\":5976:5979   */\n      dup4\n        /* \"#utility.yul\":5917:5984   */\n      tag_209\n      jump\t// in\n    tag_232:\n        /* \"#utility.yul\":5910:5984   */\n      swap2\n      pop\n        /* \"#utility.yul\":5993:6086   */\n      tag_233\n        /* \"#utility.yul\":6082:6085   */\n      dup3\n        /* \"#utility.yul\":5993:6086   */\n      tag_234\n      jump\t// in\n    tag_233:\n        /* \"#utility.yul\":6111:6113   */\n      0x40\n        /* \"#utility.yul\":6106:6109   */\n      dup3\n        /* \"#utility.yul\":6102:6114   */\n      add\n        /* \"#utility.yul\":6095:6114   */\n      swap1\n      pop\n        /* \"#utility.yul\":5754:6120   */\n      swap2\n      swap1\n      pop\n      jump\t// out\n        /* \"#utility.yul\":6126:6492   */\n    tag_235:\n        /* \"#utility.yul\":6268:6271   */\n      0x00\n        /* \"#utility.yul\":6289:6356   */\n      tag_237\n        /* \"#utility.yul\":6353:6355   */\n      0x10\n        /* \"#utility.yul\":6348:6351   */\n      dup4\n        /* \"#utility.yul\":6289:6356   */\n      tag_209\n      jump\t// in\n    tag_237:\n        /* \"#utility.yul\":6282:6356   */\n      swap2\n      pop\n        /* \"#utility.yul\":6365:6458   */\n      tag_238\n        /* \"#utility.yul\":6454:6457   */\n      dup3\n        /* \"#utility.yul\":6365:6458   */\n      tag_239\n      jump\t// in\n    tag_238:\n        /* \"#utility.yul\":6483:6485   */\n      0x20\n        /* \"#utility.yul\":6478:6481   */\n      dup3\n        /* \"#utility.yul\":6474:6486   */\n      add\n        /* \"#utility.yul\":6467:6486   */\n      swap1\n      pop\n        /* \"#utility.yul\":6126:6492   */\n      swap2\n      swap1\n      pop\n      jump\t// out\n        /* \"#utility.yul\":6498:6864   */\n    tag_240:\n        /* \"#utility.yul\":6640:6643   */\n      0x00\n        /* \"#utility.yul\":6661:6728   */\n      tag_242\n        /* \"#utility.yul\":6725:6727   */\n      0x2b\n        /* \"#utility.yul\":6720:6723   */\n      dup4\n        /* \"#utility.yul\":6661:6728   */\n      tag_209\n      jump\t// in\n    tag_242:\n        /* \"#utility.yul\":6654:6728   */\n      swap2\n      pop\n        /* \"#utility.yul\":6737:6830   */\n      tag_243\n        /* \"#utility.yul\":6826:6829   */\n      dup3\n        /* \"#utility.yul\":6737:6830   */\n      tag_244\n      jump\t// in\n    tag_243:\n        /* \"#utility.yul\":6855:6857   */\n      0x40\n        /* \"#utility.yul\":6850:6853   */\n      dup3\n        /* \"#utility.yul\":6846:6858   */\n      add\n        /* \"#utility.yul\":6839:6858   */\n      swap1\n      pop\n        /* \"#utility.yul\":6498:6864   */\n      swap2\n      swap1\n      pop\n      jump\t// out\n        /* \"#utility.yul\":6870:7236   */\n    tag_245:\n        /* \"#utility.yul\":7012:7015   */\n      0x00\n        /* \"#utility.yul\":7033:7100   */\n      tag_247\n        /* \"#utility.yul\":7097:7099   */\n      0x2c\n        /* \"#utility.yul\":7092:7095   */\n      dup4\n        /* \"#utility.yul\":7033:7100   */\n      tag_209\n      jump\t// in\n    tag_247:\n        /* \"#utility.yul\":7026:7100   */\n      swap2\n      pop\n        /* \"#utility.yul\":7109:7202   */\n      tag_248\n        /* \"#utility.yul\":7198:7201   */\n      dup3\n        /* \"#utility.yul\":7109:7202   */\n      tag_249\n      jump\t// in\n    tag_248:\n        /* \"#utility.yul\":7227:7229   */\n      0x40\n        /* \"#utility.yul\":7222:7225   */\n      dup3\n        /* \"#utility.yul\":7218:7230   */\n      add\n        /* \"#utility.yul\":7211:7230   */\n      swap1\n      pop\n        /* \"#utility.yul\":6870:7236   */\n      swap2\n      swap1\n      pop\n      jump\t// out\n        /* \"#utility.yul\":7242:7608   */\n    tag_250:\n        /* \"#utility.yul\":7384:7387   */\n      0x00\n        /* \"#utility.yul\":7405:7472   */\n      tag_252\n        /* \"#utility.yul\":7469:7471   */\n      0x2d\n        /* \"#utility.yul\":7464:7467   */\n      dup4\n        /* \"#utility.yul\":7405:7472   */\n      tag_209\n      jump\t// in\n    tag_252:\n        /* \"#utility.yul\":7398:7472   */\n      swap2\n      pop\n        /* \"#utility.yul\":7481:7574   */\n      tag_253\n        /* \"#utility.yul\":7570:7573   */\n      dup3\n        /* \"#utility.yul\":7481:7574   */\n      tag_254\n      jump\t// in\n    tag_253:\n        /* \"#utility.yul\":7599:7601   */\n      0x40\n        /* \"#utility.yul\":7594:7597   */\n      dup3\n        /* \"#utility.yul\":7590:7602   */\n      add\n        /* \"#utility.yul\":7583:7602   */\n      swap1\n      pop\n        /* \"#utility.yul\":7242:7608   */\n      swap2\n      swap1\n      pop\n      jump\t// out\n        /* \"#utility.yul\":7614:7980   */\n    tag_255:\n        /* \"#utility.yul\":7756:7759   */\n      0x00\n        /* \"#utility.yul\":7777:7844   */\n      tag_257\n        /* \"#utility.yul\":7841:7843   */\n      0x29\n        /* \"#utility.yul\":7836:7839   */\n      dup4\n        /* \"#utility.yul\":7777:7844   */\n      tag_209\n      jump\t// in\n    tag_257:\n        /* \"#utility.yul\":7770:7844   */\n      swap2\n      pop\n        /* \"#utility.yul\":7853:7946   */\n      tag_258\n        /* \"#utility.yul\":7942:7945   */\n      dup3\n        /* \"#utility.yul\":7853:7946   */\n      tag_259\n      jump\t// in\n    tag_258:\n        /* \"#utility.yul\":7971:7973   */\n      0x40\n        /* \"#utility.yul\":7966:7969   */\n      dup3\n        /* \"#utility.yul\":7962:7974   */\n      add\n        /* \"#utility.yul\":7955:7974   */\n      swap1\n      pop\n        /* \"#utility.yul\":7614:7980   */\n      swap2\n      swap1\n      pop\n      jump\t// out\n        /* \"#utility.yul\":7986:8104   */\n    tag_260:\n        /* \"#utility.yul\":8073:8097   */\n      tag_262\n        /* \"#utility.yul\":8091:8096   */\n      dup2\n        /* \"#utility.yul\":8073:8097   */\n      tag_263\n      jump\t// in\n    tag_262:\n        /* \"#utility.yul\":8068:8071   */\n      dup3\n        /* \"#utility.yul\":8061:8098   */\n      mstore\n        /* \"#utility.yul\":7986:8104   */\n      pop\n      pop\n      jump\t// out\n        /* \"#utility.yul\":8110:8222   */\n    tag_264:\n        /* \"#utility.yul\":8193:8215   */\n      tag_266\n        /* \"#utility.yul\":8209:8214   */\n      dup2\n        /* \"#utility.yul\":8193:8215   */\n      tag_267\n      jump\t// in\n    tag_266:\n        /* \"#utility.yul\":8188:8191   */\n      dup3\n        /* \"#utility.yul\":8181:8216   */\n      mstore\n        /* \"#utility.yul\":8110:8222   */\n      pop\n      pop\n      jump\t// out\n        /* \"#utility.yul\":8228:8891   */\n    tag_97:\n        /* \"#utility.yul\":8469:8472   */\n      0x00\n        /* \"#utility.yul\":8491:8639   */\n      tag_269\n        /* \"#utility.yul\":8635:8638   */\n      dup3\n        /* \"#utility.yul\":8491:8639   */\n      tag_224\n      jump\t// in\n    tag_269:\n        /* \"#utility.yul\":8484:8639   */\n      swap2\n      pop\n        /* \"#utility.yul\":8649:8724   */\n      tag_270\n        /* \"#utility.yul\":8720:8723   */\n      dup3\n        /* \"#utility.yul\":8711:8717   */\n      dup6\n        /* \"#utility.yul\":8649:8724   */\n      tag_199\n      jump\t// in\n    tag_270:\n        /* \"#utility.yul\":8749:8751   */\n      0x20\n        /* \"#utility.yul\":8744:8747   */\n      dup3\n        /* \"#utility.yul\":8740:8752   */\n      add\n        /* \"#utility.yul\":8733:8752   */\n      swap2\n      pop\n        /* \"#utility.yul\":8762:8837   */\n      tag_271\n        /* \"#utility.yul\":8833:8836   */\n      dup3\n        /* \"#utility.yul\":8824:8830   */\n      dup5\n        /* \"#utility.yul\":8762:8837   */\n      tag_199\n      jump\t// in\n    tag_271:\n        /* \"#utility.yul\":8862:8864   */\n      0x20\n        /* \"#utility.yul\":8857:8860   */\n      dup3\n        /* \"#utility.yul\":8853:8865   */\n      add\n        /* \"#utility.yul\":8846:8865   */\n      swap2\n      pop\n        /* \"#utility.yul\":8882:8885   */\n      dup2\n        /* \"#utility.yul\":8875:8885   */\n      swap1\n      pop\n        /* \"#utility.yul\":8228:8891   */\n      swap4\n      swap3\n      pop\n      pop\n      pop\n      jump\t// out\n        /* \"#utility.yul\":8897:9107   */\n    tag_25:\n        /* \"#utility.yul\":8984:8988   */\n      0x00\n        /* \"#utility.yul\":9022:9024   */\n      0x20\n        /* \"#utility.yul\":9011:9020   */\n      dup3\n        /* \"#utility.yul\":9007:9025   */\n      add\n        /* \"#utility.yul\":8999:9025   */\n      swap1\n      pop\n        /* \"#utility.yul\":9035:9100   */\n      tag_273\n        /* \"#utility.yul\":9097:9098   */\n      0x00\n        /* \"#utility.yul\":9086:9095   */\n      dup4\n        /* \"#utility.yul\":9082:9099   */\n      add\n        /* \"#utility.yul\":9073:9079   */\n      dup5\n        /* \"#utility.yul\":9035:9100   */\n      tag_191\n      jump\t// in\n    tag_273:\n        /* \"#utility.yul\":8897:9107   */\n      swap3\n      swap2\n      pop\n      pop\n      jump\t// out\n        /* \"#utility.yul\":9113:9335   */\n    tag_42:\n        /* \"#utility.yul\":9206:9210   */\n      0x00\n        /* \"#utility.yul\":9244:9246   */\n      0x20\n        /* \"#utility.yul\":9233:9242   */\n      dup3\n        /* \"#utility.yul\":9229:9247   */\n      add\n        /* \"#utility.yul\":9221:9247   */\n      swap1\n      pop\n        /* \"#utility.yul\":9257:9328   */\n      tag_275\n        /* \"#utility.yul\":9325:9326   */\n      0x00\n        /* \"#utility.yul\":9314:9323   */\n      dup4\n        /* \"#utility.yul\":9310:9327   */\n      add\n        /* \"#utility.yul\":9301:9307   */\n      dup5\n        /* \"#utility.yul\":9257:9328   */\n      tag_195\n      jump\t// in\n    tag_275:\n        /* \"#utility.yul\":9113:9335   */\n      swap3\n      swap2\n      pop\n      pop\n      jump\t// out\n        /* \"#utility.yul\":9341:10116   */\n    tag_95:\n        /* \"#utility.yul\":9574:9578   */\n      0x00\n        /* \"#utility.yul\":9612:9615   */\n      0xc0\n        /* \"#utility.yul\":9601:9610   */\n      dup3\n        /* \"#utility.yul\":9597:9616   */\n      add\n        /* \"#utility.yul\":9589:9616   */\n      swap1\n      pop\n        /* \"#utility.yul\":9626:9697   */\n      tag_277\n        /* \"#utility.yul\":9694:9695   */\n      0x00\n        /* \"#utility.yul\":9683:9692   */\n      dup4\n        /* \"#utility.yul\":9679:9696   */\n      add\n        /* \"#utility.yul\":9670:9676   */\n      dup10\n        /* \"#utility.yul\":9626:9697   */\n      tag_195\n      jump\t// in\n    tag_277:\n        /* \"#utility.yul\":9707:9779   */\n      tag_278\n        /* \"#utility.yul\":9775:9777   */\n      0x20\n        /* \"#utility.yul\":9764:9773   */\n      dup4\n        /* \"#utility.yul\":9760:9778   */\n      add\n        /* \"#utility.yul\":9751:9757   */\n      dup9\n        /* \"#utility.yul\":9707:9779   */\n      tag_187\n      jump\t// in\n    tag_278:\n        /* \"#utility.yul\":9789:9861   */\n      tag_279\n        /* \"#utility.yul\":9857:9859   */\n      0x40\n        /* \"#utility.yul\":9846:9855   */\n      dup4\n        /* \"#utility.yul\":9842:9860   */\n      add\n        /* \"#utility.yul\":9833:9839   */\n      dup8\n        /* \"#utility.yul\":9789:9861   */\n      tag_187\n      jump\t// in\n    tag_279:\n        /* \"#utility.yul\":9871:9943   */\n      tag_280\n        /* \"#utility.yul\":9939:9941   */\n      0x60\n        /* \"#utility.yul\":9928:9937   */\n      dup4\n        /* \"#utility.yul\":9924:9942   */\n      add\n        /* \"#utility.yul\":9915:9921   */\n      dup7\n        /* \"#utility.yul\":9871:9943   */\n      tag_260\n      jump\t// in\n    tag_280:\n        /* \"#utility.yul\":9953:10026   */\n      tag_281\n        /* \"#utility.yul\":10021:10024   */\n      0x80\n        /* \"#utility.yul\":10010:10019   */\n      dup4\n        /* \"#utility.yul\":10006:10025   */\n      add\n        /* \"#utility.yul\":9997:10003   */\n      dup6\n        /* \"#utility.yul\":9953:10026   */\n      tag_260\n      jump\t// in\n    tag_281:\n        /* \"#utility.yul\":10036:10109   */\n      tag_282\n        /* \"#utility.yul\":10104:10107   */\n      0xa0\n        /* \"#utility.yul\":10093:10102   */\n      dup4\n        /* \"#utility.yul\":10089:10108   */\n      add\n        /* \"#utility.yul\":10080:10086   */\n      dup5\n        /* \"#utility.yul\":10036:10109   */\n      tag_260\n      jump\t// in\n    tag_282:\n        /* \"#utility.yul\":9341:10116   */\n      swap8\n      swap7\n      pop\n      pop\n      pop\n      pop\n      pop\n      pop\n      pop\n      jump\t// out\n        /* \"#utility.yul\":10122:10786   */\n    tag_138:\n        /* \"#utility.yul\":10327:10331   */\n      0x00\n        /* \"#utility.yul\":10365:10368   */\n      0xa0\n        /* \"#utility.yul\":10354:10363   */\n      dup3\n        /* \"#utility.yul\":10350:10369   */\n      add\n        /* \"#utility.yul\":10342:10369   */\n      swap1\n      pop\n        /* \"#utility.yul\":10379:10450   */\n      tag_284\n        /* \"#utility.yul\":10447:10448   */\n      0x00\n        /* \"#utility.yul\":10436:10445   */\n      dup4\n        /* \"#utility.yul\":10432:10449   */\n      add\n        /* \"#utility.yul\":10423:10429   */\n      dup9\n        /* \"#utility.yul\":10379:10450   */\n      tag_195\n      jump\t// in\n    tag_284:\n        /* \"#utility.yul\":10460:10532   */\n      tag_285\n        /* \"#utility.yul\":10528:10530   */\n      0x20\n        /* \"#utility.yul\":10517:10526   */\n      dup4\n        /* \"#utility.yul\":10513:10531   */\n      add\n        /* \"#utility.yul\":10504:10510   */\n      dup8\n        /* \"#utility.yul\":10460:10532   */\n      tag_195\n      jump\t// in\n    tag_285:\n        /* \"#utility.yul\":10542:10614   */\n      tag_286\n        /* \"#utility.yul\":10610:10612   */\n      0x40\n        /* \"#utility.yul\":10599:10608   */\n      dup4\n        /* \"#utility.yul\":10595:10613   */\n      add\n        /* \"#utility.yul\":10586:10592   */\n      dup7\n        /* \"#utility.yul\":10542:10614   */\n      tag_195\n      jump\t// in\n    tag_286:\n        /* \"#utility.yul\":10624:10696   */\n      tag_287\n        /* \"#utility.yul\":10692:10694   */\n      0x60\n        /* \"#utility.yul\":10681:10690   */\n      dup4\n        /* \"#utility.yul\":10677:10695   */\n      add\n        /* \"#utility.yul\":10668:10674   */\n      dup6\n        /* \"#utility.yul\":10624:10696   */\n      tag_260\n      jump\t// in\n    tag_287:\n        /* \"#utility.yul\":10706:10779   */\n      tag_288\n        /* \"#utility.yul\":10774:10777   */\n      0x80\n        /* \"#utility.yul\":10763:10772   */\n      dup4\n        /* \"#utility.yul\":10759:10778   */\n      add\n        /* \"#utility.yul\":10750:10756   */\n      dup5\n        /* \"#utility.yul\":10706:10779   */\n      tag_187\n      jump\t// in\n    tag_288:\n        /* \"#utility.yul\":10122:10786   */\n      swap7\n      swap6\n      pop\n      pop\n      pop\n      pop\n      pop\n      pop\n      jump\t// out\n        /* \"#utility.yul\":10792:11337   */\n    tag_99:\n        /* \"#utility.yul\":10965:10969   */\n      0x00\n        /* \"#utility.yul\":11003:11006   */\n      0x80\n        /* \"#utility.yul\":10992:11001   */\n      dup3\n        /* \"#utility.yul\":10988:11007   */\n      add\n        /* \"#utility.yul\":10980:11007   */\n      swap1\n      pop\n        /* \"#utility.yul\":11017:11088   */\n      tag_290\n        /* \"#utility.yul\":11085:11086   */\n      0x00\n        /* \"#utility.yul\":11074:11083   */\n      dup4\n        /* \"#utility.yul\":11070:11087   */\n      add\n        /* \"#utility.yul\":11061:11067   */\n      dup8\n        /* \"#utility.yul\":11017:11088   */\n      tag_195\n      jump\t// in\n    tag_290:\n        /* \"#utility.yul\":11098:11166   */\n      tag_291\n        /* \"#utility.yul\":11162:11164   */\n      0x20\n        /* \"#utility.yul\":11151:11160   */\n      dup4\n        /* \"#utility.yul\":11147:11165   */\n      add\n        /* \"#utility.yul\":11138:11144   */\n      dup7\n        /* \"#utility.yul\":11098:11166   */\n      tag_264\n      jump\t// in\n    tag_291:\n        /* \"#utility.yul\":11176:11248   */\n      tag_292\n        /* \"#utility.yul\":11244:11246   */\n      0x40\n        /* \"#utility.yul\":11233:11242   */\n      dup4\n        /* \"#utility.yul\":11229:11247   */\n      add\n        /* \"#utility.yul\":11220:11226   */\n      dup6\n        /* \"#utility.yul\":11176:11248   */\n      tag_195\n      jump\t// in\n    tag_292:\n        /* \"#utility.yul\":11258:11330   */\n      tag_293\n        /* \"#utility.yul\":11326:11328   */\n      0x60\n        /* \"#utility.yul\":11315:11324   */\n      dup4\n        /* \"#utility.yul\":11311:11329   */\n      add\n        /* \"#utility.yul\":11302:11308   */\n      dup5\n        /* \"#utility.yul\":11258:11330   */\n      tag_195\n      jump\t// in\n    tag_293:\n        /* \"#utility.yul\":10792:11337   */\n      swap6\n      swap5\n      pop\n      pop\n      pop\n      pop\n      pop\n      jump\t// out\n        /* \"#utility.yul\":11343:11656   */\n    tag_19:\n        /* \"#utility.yul\":11456:11460   */\n      0x00\n        /* \"#utility.yul\":11494:11496   */\n      0x20\n        /* \"#utility.yul\":11483:11492   */\n      dup3\n        /* \"#utility.yul\":11479:11497   */\n      add\n        /* \"#utility.yul\":11471:11497   */\n      swap1\n      pop\n        /* \"#utility.yul\":11543:11552   */\n      dup2\n        /* \"#utility.yul\":11537:11541   */\n      dup2\n        /* \"#utility.yul\":11533:11553   */\n      sub\n        /* \"#utility.yul\":11529:11530   */\n      0x00\n        /* \"#utility.yul\":11518:11527   */\n      dup4\n        /* \"#utility.yul\":11514:11531   */\n      add\n        /* \"#utility.yul\":11507:11554   */\n      mstore\n        /* \"#utility.yul\":11571:11649   */\n      tag_295\n        /* \"#utility.yul\":11644:11648   */\n      dup2\n        /* \"#utility.yul\":11635:11641   */\n      dup5\n        /* \"#utility.yul\":11571:11649   */\n      tag_204\n      jump\t// in\n    tag_295:\n        /* \"#utility.yul\":11563:11649   */\n      swap1\n      pop\n        /* \"#utility.yul\":11343:11656   */\n      swap3\n      swap2\n      pop\n      pop\n      jump\t// out\n        /* \"#utility.yul\":11662:12081   */\n    tag_105:\n        /* \"#utility.yul\":11828:11832   */\n      0x00\n        /* \"#utility.yul\":11866:11868   */\n      0x20\n        /* \"#utility.yul\":11855:11864   */\n      dup3\n        /* \"#utility.yul\":11851:11869   */\n      add\n        /* \"#utility.yul\":11843:11869   */\n      swap1\n      pop\n        /* \"#utility.yul\":11915:11924   */\n      dup2\n        /* \"#utility.yul\":11909:11913   */\n      dup2\n        /* \"#utility.yul\":11905:11925   */\n      sub\n        /* \"#utility.yul\":11901:11902   */\n      0x00\n        /* \"#utility.yul\":11890:11899   */\n      dup4\n        /* \"#utility.yul\":11886:11903   */\n      add\n        /* \"#utility.yul\":11879:11926   */\n      mstore\n        /* \"#utility.yul\":11943:12074   */\n      tag_297\n        /* \"#utility.yul\":12069:12073   */\n      dup2\n        /* \"#utility.yul\":11943:12074   */\n      tag_214\n      jump\t// in\n    tag_297:\n        /* \"#utility.yul\":11935:12074   */\n      swap1\n      pop\n        /* \"#utility.yul\":11662:12081   */\n      swap2\n      swap1\n      pop\n      jump\t// out\n        /* \"#utility.yul\":12087:12506   */\n    tag_121:\n        /* \"#utility.yul\":12253:12257   */\n      0x00\n        /* \"#utility.yul\":12291:12293   */\n      0x20\n        /* \"#utility.yul\":12280:12289   */\n      dup3\n        /* \"#utility.yul\":12276:12294   */\n      add\n        /* \"#utility.yul\":12268:12294   */\n      swap1\n      pop\n        /* \"#utility.yul\":12340:12349   */\n      dup2\n        /* \"#utility.yul\":12334:12338   */\n      dup2\n        /* \"#utility.yul\":12330:12350   */\n      sub\n        /* \"#utility.yul\":12326:12327   */\n      0x00\n        /* \"#utility.yul\":12315:12324   */\n      dup4\n        /* \"#utility.yul\":12311:12328   */\n      add\n        /* \"#utility.yul\":12304:12351   */\n      mstore\n        /* \"#utility.yul\":12368:12499   */\n      tag_299\n        /* \"#utility.yul\":12494:12498   */\n      dup2\n        /* \"#utility.yul\":12368:12499   */\n      tag_219\n      jump\t// in\n    tag_299:\n        /* \"#utility.yul\":12360:12499   */\n      swap1\n      pop\n        /* \"#utility.yul\":12087:12506   */\n      swap2\n      swap1\n      pop\n      jump\t// out\n        /* \"#utility.yul\":12512:12931   */\n    tag_129:\n        /* \"#utility.yul\":12678:12682   */\n      0x00\n        /* \"#utility.yul\":12716:12718   */\n      0x20\n        /* \"#utility.yul\":12705:12714   */\n      dup3\n        /* \"#utility.yul\":12701:12719   */\n      add\n        /* \"#utility.yul\":12693:12719   */\n      swap1\n      pop\n        /* \"#utility.yul\":12765:12774   */\n      dup2\n        /* \"#utility.yul\":12759:12763   */\n      dup2\n        /* \"#utility.yul\":12755:12775   */\n      sub\n        /* \"#utility.yul\":12751:12752   */\n      0x00\n        /* \"#utility.yul\":12740:12749   */\n      dup4\n        /* \"#utility.yul\":12736:12753   */\n      add\n        /* \"#utility.yul\":12729:12776   */\n      mstore\n        /* \"#utility.yul\":12793:12924   */\n      tag_301\n        /* \"#utility.yul\":12919:12923   */\n      dup2\n        /* \"#utility.yul\":12793:12924   */\n      tag_230\n      jump\t// in\n    tag_301:\n        /* \"#utility.yul\":12785:12924   */\n      swap1\n      pop\n        /* \"#utility.yul\":12512:12931   */\n      swap2\n      swap1\n      pop\n      jump\t// out\n        /* \"#utility.yul\":12937:13356   */\n    tag_92:\n        /* \"#utility.yul\":13103:13107   */\n      0x00\n        /* \"#utility.yul\":13141:13143   */\n      0x20\n        /* \"#utility.yul\":13130:13139   */\n      dup3\n        /* \"#utility.yul\":13126:13144   */\n      add\n        /* \"#utility.yul\":13118:13144   */\n      swap1\n      pop\n        /* \"#utility.yul\":13190:13199   */\n      dup2\n        /* \"#utility.yul\":13184:13188   */\n      dup2\n        /* \"#utility.yul\":13180:13200   */\n      sub\n        /* \"#utility.yul\":13176:13177   */\n      0x00\n        /* \"#utility.yul\":13165:13174   */\n      dup4\n        /* \"#utility.yul\":13161:13178   */\n      add\n        /* \"#utility.yul\":13154:13201   */\n      mstore\n        /* \"#utility.yul\":13218:13349   */\n      tag_303\n        /* \"#utility.yul\":13344:13348   */\n      dup2\n        /* \"#utility.yul\":13218:13349   */\n      tag_235\n      jump\t// in\n    tag_303:\n        /* \"#utility.yul\":13210:13349   */\n      swap1\n      pop\n        /* \"#utility.yul\":12937:13356   */\n      swap2\n      swap1\n      pop\n      jump\t// out\n        /* \"#utility.yul\":13362:13781   */\n    tag_111:\n        /* \"#utility.yul\":13528:13532   */\n      0x00\n        /* \"#utility.yul\":13566:13568   */\n      0x20\n        /* \"#utility.yul\":13555:13564   */\n      dup3\n        /* \"#utility.yul\":13551:13569   */\n      add\n        /* \"#utility.yul\":13543:13569   */\n      swap1\n      pop\n        /* \"#utility.yul\":13615:13624   */\n      dup2\n        /* \"#utility.yul\":13609:13613   */\n      dup2\n        /* \"#utility.yul\":13605:13625   */\n      sub\n        /* \"#utility.yul\":13601:13602   */\n      0x00\n        /* \"#utility.yul\":13590:13599   */\n      dup4\n        /* \"#utility.yul\":13586:13603   */\n      add\n        /* \"#utility.yul\":13579:13626   */\n      mstore\n        /* \"#utility.yul\":13643:13774   */\n      tag_305\n        /* \"#utility.yul\":13769:13773   */\n      dup2\n        /* \"#utility.yul\":13643:13774   */\n      tag_240\n      jump\t// in\n    tag_305:\n        /* \"#utility.yul\":13635:13774   */\n      swap1\n      pop\n        /* \"#utility.yul\":13362:13781   */\n      swap2\n      swap1\n      pop\n      jump\t// out\n        /* \"#utility.yul\":13787:14206   */\n    tag_126:\n        /* \"#utility.yul\":13953:13957   */\n      0x00\n        /* \"#utility.yul\":13991:13993   */\n      0x20\n        /* \"#utility.yul\":13980:13989   */\n      dup3\n        /* \"#utility.yul\":13976:13994   */\n      add\n        /* \"#utility.yul\":13968:13994   */\n      swap1\n      pop\n        /* \"#utility.yul\":14040:14049   */\n      dup2\n        /* \"#utility.yul\":14034:14038   */\n      dup2\n        /* \"#utility.yul\":14030:14050   */\n      sub\n        /* \"#utility.yul\":14026:14027   */\n      0x00\n        /* \"#utility.yul\":14015:14024   */\n      dup4\n        /* \"#utility.yul\":14011:14028   */\n      add\n        /* \"#utility.yul\":14004:14051   */\n      mstore\n        /* \"#utility.yul\":14068:14199   */\n      tag_307\n        /* \"#utility.yul\":14194:14198   */\n      dup2\n        /* \"#utility.yul\":14068:14199   */\n      tag_245\n      jump\t// in\n    tag_307:\n        /* \"#utility.yul\":14060:14199   */\n      swap1\n      pop\n        /* \"#utility.yul\":13787:14206   */\n      swap2\n      swap1\n      pop\n      jump\t// out\n        /* \"#utility.yul\":14212:14631   */\n    tag_132:\n        /* \"#utility.yul\":14378:14382   */\n      0x00\n        /* \"#utility.yul\":14416:14418   */\n      0x20\n        /* \"#utility.yul\":14405:14414   */\n      dup3\n        /* \"#utility.yul\":14401:14419   */\n      add\n        /* \"#utility.yul\":14393:14419   */\n      swap1\n      pop\n        /* \"#utility.yul\":14465:14474   */\n      dup2\n        /* \"#utility.yul\":14459:14463   */\n      dup2\n        /* \"#utility.yul\":14455:14475   */\n      sub\n        /* \"#utility.yul\":14451:14452   */\n      0x00\n        /* \"#utility.yul\":14440:14449   */\n      dup4\n        /* \"#utility.yul\":14436:14453   */\n      add\n        /* \"#utility.yul\":14429:14476   */\n      mstore\n        /* \"#utility.yul\":14493:14624   */\n      tag_309\n        /* \"#utility.yul\":14619:14623   */\n      dup2\n        /* \"#utility.yul\":14493:14624   */\n      tag_250\n      jump\t// in\n    tag_309:\n        /* \"#utility.yul\":14485:14624   */\n      swap1\n      pop\n        /* \"#utility.yul\":14212:14631   */\n      swap2\n      swap1\n      pop\n      jump\t// out\n        /* \"#utility.yul\":14637:15056   */\n    tag_114:\n        /* \"#utility.yul\":14803:14807   */\n      0x00\n        /* \"#utility.yul\":14841:14843   */\n      0x20\n        /* \"#utility.yul\":14830:14839   */\n      dup3\n        /* \"#utility.yul\":14826:14844   */\n      add\n        /* \"#utility.yul\":14818:14844   */\n      swap1\n      pop\n        /* \"#utility.yul\":14890:14899   */\n      dup2\n        /* \"#utility.yul\":14884:14888   */\n      dup2\n        /* \"#utility.yul\":14880:14900   */\n      sub\n        /* \"#utility.yul\":14876:14877   */\n      0x00\n        /* \"#utility.yul\":14865:14874   */\n      dup4\n        /* \"#utility.yul\":14861:14878   */\n      add\n        /* \"#utility.yul\":14854:14901   */\n      mstore\n        /* \"#utility.yul\":14918:15049   */\n      tag_311\n        /* \"#utility.yul\":15044:15048   */\n      dup2\n        /* \"#utility.yul\":14918:15049   */\n      tag_255\n      jump\t// in\n    tag_311:\n        /* \"#utility.yul\":14910:15049   */\n      swap1\n      pop\n        /* \"#utility.yul\":14637:15056   */\n      swap2\n      swap1\n      pop\n      jump\t// out\n        /* \"#utility.yul\":15062:15284   */\n    tag_29:\n        /* \"#utility.yul\":15155:15159   */\n      0x00\n        /* \"#utility.yul\":15193:15195   */\n      0x20\n        /* \"#utility.yul\":15182:15191   */\n      dup3\n        /* \"#utility.yul\":15178:15196   */\n      add\n        /* \"#utility.yul\":15170:15196   */\n      swap1\n      pop\n        /* \"#utility.yul\":15206:15277   */\n      tag_313\n        /* \"#utility.yul\":15274:15275   */\n      0x00\n        /* \"#utility.yul\":15263:15272   */\n      dup4\n        /* \"#utility.yul\":15259:15276   */\n      add\n        /* \"#utility.yul\":15250:15256   */\n      dup5\n        /* \"#utility.yul\":15206:15277   */\n      tag_260\n      jump\t// in\n    tag_313:\n        /* \"#utility.yul\":15062:15284   */\n      swap3\n      swap2\n      pop\n      pop\n      jump\t// out\n        /* \"#utility.yul\":15290:15504   */\n    tag_38:\n        /* \"#utility.yul\":15379:15383   */\n      0x00\n        /* \"#utility.yul\":15417:15419   */\n      0x20\n        /* \"#utility.yul\":15406:15415   */\n      dup3\n        /* \"#utility.yul\":15402:15420   */\n      add\n        /* \"#utility.yul\":15394:15420   */\n      swap1\n      pop\n        /* \"#utility.yul\":15430:15497   */\n      tag_315\n        /* \"#utility.yul\":15494:15495   */\n      0x00\n        /* \"#utility.yul\":15483:15492   */\n      dup4\n        /* \"#utility.yul\":15479:15496   */\n      add\n        /* \"#utility.yul\":15470:15476   */\n      dup5\n        /* \"#utility.yul\":15430:15497   */\n      tag_264\n      jump\t// in\n    tag_315:\n        /* \"#utility.yul\":15290:15504   */\n      swap3\n      swap2\n      pop\n      pop\n      jump\t// out\n        /* \"#utility.yul\":15591:15690   */\n    tag_207:\n        /* \"#utility.yul\":15643:15649   */\n      0x00\n        /* \"#utility.yul\":15677:15682   */\n      dup2\n        /* \"#utility.yul\":15671:15683   */\n      mload\n        /* \"#utility.yul\":15661:15683   */\n      swap1\n      pop\n        /* \"#utility.yul\":15591:15690   */\n      swap2\n      swap1\n      pop\n      jump\t// out\n        /* \"#utility.yul\":15696:15865   */\n    tag_209:\n        /* \"#utility.yul\":15780:15791   */\n      0x00\n        /* \"#utility.yul\":15814:15820   */\n      dup3\n        /* \"#utility.yul\":15809:15812   */\n      dup3\n        /* \"#utility.yul\":15802:15821   */\n      mstore\n        /* \"#utility.yul\":15854:15858   */\n      0x20\n        /* \"#utility.yul\":15849:15852   */\n      dup3\n        /* \"#utility.yul\":15845:15859   */\n      add\n        /* \"#utility.yul\":15830:15859   */\n      swap1\n      pop\n        /* \"#utility.yul\":15696:15865   */\n      swap3\n      swap2\n      pop\n      pop\n      jump\t// out\n        /* \"#utility.yul\":15871:16019   */\n    tag_227:\n        /* \"#utility.yul\":15973:15984   */\n      0x00\n        /* \"#utility.yul\":16010:16013   */\n      dup2\n        /* \"#utility.yul\":15995:16013   */\n      swap1\n      pop\n        /* \"#utility.yul\":15871:16019   */\n      swap3\n      swap2\n      pop\n      pop\n      jump\t// out\n        /* \"#utility.yul\":16025:16330   */\n    tag_134:\n        /* \"#utility.yul\":16065:16068   */\n      0x00\n        /* \"#utility.yul\":16084:16104   */\n      tag_322\n        /* \"#utility.yul\":16102:16103   */\n      dup3\n        /* \"#utility.yul\":16084:16104   */\n      tag_263\n      jump\t// in\n    tag_322:\n        /* \"#utility.yul\":16079:16104   */\n      swap2\n      pop\n        /* \"#utility.yul\":16118:16138   */\n      tag_323\n        /* \"#utility.yul\":16136:16137   */\n      dup4\n        /* \"#utility.yul\":16118:16138   */\n      tag_263\n      jump\t// in\n    tag_323:\n        /* \"#utility.yul\":16113:16138   */\n      swap3\n      pop\n        /* \"#utility.yul\":16272:16273   */\n      dup3\n        /* \"#utility.yul\":16204:16270   */\n      0xffffffffffffffffffffffffffffffffffffffffffffffffffffffffffffffff\n        /* \"#utility.yul\":16200:16274   */\n      sub\n        /* \"#utility.yul\":16197:16198   */\n      dup3\n        /* \"#utility.yul\":16194:16275   */\n      gt\n        /* \"#utility.yul\":16191:16298   */\n      iszero\n      tag_324\n      jumpi\n        /* \"#utility.yul\":16278:16296   */\n      tag_325\n      tag_326\n      jump\t// in\n    tag_325:\n        /* \"#utility.yul\":16191:16298   */\n    tag_324:\n        /* \"#utility.yul\":16322:16323   */\n      dup3\n        /* \"#utility.yul\":16319:16320   */\n      dup3\n        /* \"#utility.yul\":16315:16324   */\n      add\n        /* \"#utility.yul\":16308:16324   */\n      swap1\n      pop\n        /* \"#utility.yul\":16025:16330   */\n      swap3\n      swap2\n      pop\n      pop\n      jump\t// out\n        /* \"#utility.yul\":16336:16432   */\n    tag_190:\n        /* \"#utility.yul\":16373:16380   */\n      0x00\n        /* \"#utility.yul\":16402:16426   */\n      tag_328\n        /* \"#utility.yul\":16420:16425   */\n      dup3\n        /* \"#utility.yul\":16402:16426   */\n      tag_329\n      jump\t// in\n    tag_328:\n        /* \"#utility.yul\":16391:16426   */\n      swap1\n      pop\n        /* \"#utility.yul\":16336:16432   */\n      swap2\n      swap1\n      pop\n      jump\t// out\n        /* \"#utility.yul\":16438:16528   */\n    tag_194:\n        /* \"#utility.yul\":16472:16479   */\n      0x00\n        /* \"#utility.yul\":16515:16520   */\n      dup2\n        /* \"#utility.yul\":16508:16521   */\n      iszero\n        /* \"#utility.yul\":16501:16522   */\n      iszero\n        /* \"#utility.yul\":16490:16522   */\n      swap1\n      pop\n        /* \"#utility.yul\":16438:16528   */\n      swap2\n      swap1\n      pop\n      jump\t// out\n        /* \"#utility.yul\":16534:16611   */\n    tag_198:\n        /* \"#utility.yul\":16571:16578   */\n      0x00\n        /* \"#utility.yul\":16600:16605   */\n      dup2\n        /* \"#utility.yul\":16589:16605   */\n      swap1\n      pop\n        /* \"#utility.yul\":16534:16611   */\n      swap2\n      swap1\n      pop\n      jump\t// out\n        /* \"#utility.yul\":16617:16743   */\n    tag_329:\n        /* \"#utility.yul\":16654:16661   */\n      0x00\n        /* \"#utility.yul\":16694:16736   */\n      0xffffffffffffffffffffffffffffffffffffffff\n        /* \"#utility.yul\":16687:16692   */\n      dup3\n        /* \"#utility.yul\":16683:16737   */\n      and\n        /* \"#utility.yul\":16672:16737   */\n      swap1\n      pop\n        /* \"#utility.yul\":16617:16743   */\n      swap2\n      swap1\n      pop\n      jump\t// out\n        /* \"#utility.yul\":16749:16826   */\n    tag_263:\n        /* \"#utility.yul\":16786:16793   */\n      0x00\n        /* \"#utility.yul\":16815:16820   */\n      dup2\n        /* \"#utility.yul\":16804:16820   */\n      swap1\n      pop\n        /* \"#utility.yul\":16749:16826   */\n      swap2\n      swap1\n      pop\n      jump\t// out\n        /* \"#utility.yul\":16832:16918   */\n    tag_267:\n        /* \"#utility.yul\":16867:16874   */\n      0x00\n        /* \"#utility.yul\":16907:16911   */\n      0xff\n        /* \"#utility.yul\":16900:16905   */\n      dup3\n        /* \"#utility.yul\":16896:16912   */\n      and\n        /* \"#utility.yul\":16885:16912   */\n      swap1\n      pop\n        /* \"#utility.yul\":16832:16918   */\n      swap2\n      swap1\n      pop\n      jump\t// out\n        /* \"#utility.yul\":16924:17231   */\n    tag_211:\n        /* \"#utility.yul\":16992:16993   */\n      0x00\n        /* \"#utility.yul\":17002:17115   */\n    tag_336:\n        /* \"#utility.yul\":17016:17022   */\n      dup4\n        /* \"#utility.yul\":17013:17014   */\n      dup2\n        /* \"#utility.yul\":17010:17023   */\n      lt\n        /* \"#utility.yul\":17002:17115   */\n      iszero\n      tag_338\n      jumpi\n        /* \"#utility.yul\":17101:17102   */\n      dup1\n        /* \"#utility.yul\":17096:17099   */\n      dup3\n        /* \"#utility.yul\":17092:17103   */\n      add\n        /* \"#utility.yul\":17086:17104   */\n      mload\n        /* \"#utility.yul\":17082:17083   */\n      dup2\n        /* \"#utility.yul\":17077:17080   */\n      dup5\n        /* \"#utility.yul\":17073:17084   */\n      add\n        /* \"#utility.yul\":17066:17105   */\n      mstore\n        /* \"#utility.yul\":17038:17040   */\n      0x20\n        /* \"#utility.yul\":17035:17036   */\n      dup2\n        /* \"#utility.yul\":17031:17041   */\n      add\n        /* \"#utility.yul\":17026:17041   */\n      swap1\n      pop\n        /* \"#utility.yul\":17002:17115   */\n      jump(tag_336)\n    tag_338:\n        /* \"#utility.yul\":17133:17139   */\n      dup4\n        /* \"#utility.yul\":17130:17131   */\n      dup2\n        /* \"#utility.yul\":17127:17140   */\n      gt\n        /* \"#utility.yul\":17124:17225   */\n      iszero\n      tag_339\n      jumpi\n        /* \"#utility.yul\":17213:17214   */\n      0x00\n        /* \"#utility.yul\":17204:17210   */\n      dup5\n        /* \"#utility.yul\":17199:17202   */\n      dup5\n        /* \"#utility.yul\":17195:17211   */\n      add\n        /* \"#utility.yul\":17188:17215   */\n      mstore\n        /* \"#utility.yul\":17124:17225   */\n    tag_339:\n        /* \"#utility.yul\":16973:17231   */\n      pop\n        /* \"#utility.yul\":16924:17231   */\n      pop\n      pop\n      pop\n      jump\t// out\n        /* \"#utility.yul\":17237:17316   */\n    tag_203:\n        /* \"#utility.yul\":17276:17283   */\n      0x00\n        /* \"#utility.yul\":17305:17310   */\n      dup2\n        /* \"#utility.yul\":17294:17310   */\n      swap1\n      pop\n        /* \"#utility.yul\":17237:17316   */\n      swap2\n      swap1\n      pop\n      jump\t// out\n        /* \"#utility.yul\":17322:17502   */\n    tag_326:\n        /* \"#utility.yul\":17370:17447   */\n      0x4e487b7100000000000000000000000000000000000000000000000000000000\n        /* \"#utility.yul\":17367:17368   */\n      0x00\n        /* \"#utility.yul\":17360:17448   */\n      mstore\n        /* \"#utility.yul\":17467:17471   */\n      0x11\n        /* \"#utility.yul\":17464:17465   */\n      0x04\n        /* \"#utility.yul\":17457:17472   */\n      mstore\n        /* \"#utility.yul\":17491:17495   */\n      0x24\n        /* \"#utility.yul\":17488:17489   */\n      0x00\n        /* \"#utility.yul\":17481:17496   */\n      revert\n        /* \"#utility.yul\":17631:17748   */\n    tag_159:\n        /* \"#utility.yul\":17740:17741   */\n      0x00\n        /* \"#utility.yul\":17737:17738   */\n      dup1\n        /* \"#utility.yul\":17730:17742   */\n      revert\n        /* \"#utility.yul\":17754:17856   */\n    tag_213:\n        /* \"#utility.yul\":17795:17801   */\n      0x00\n        /* \"#utility.yul\":17846:17848   */\n      0x1f\n        /* \"#utility.yul\":17842:17849   */\n      not\n        /* \"#utility.yul\":17837:17839   */\n      0x1f\n        /* \"#utility.yul\":17830:17835   */\n      dup4\n        /* \"#utility.yul\":17826:17840   */\n      add\n        /* \"#utility.yul\":17822:17850   */\n      and\n        /* \"#utility.yul\":17812:17850   */\n      swap1\n      pop\n        /* \"#utility.yul\":17754:17856   */\n      swap2\n      swap1\n      pop\n      jump\t// out\n        /* \"#utility.yul\":17862:18038   */\n    tag_218:\n        /* \"#utility.yul\":18002:18030   */\n      0x53696d737761703a20494e56414c49445f5349474e4154555245000000000000\n        /* \"#utility.yul\":17998:17999   */\n      0x00\n        /* \"#utility.yul\":17990:17996   */\n      dup3\n        /* \"#utility.yul\":17986:18000   */\n      add\n        /* \"#utility.yul\":17979:18031   */\n      mstore\n        /* \"#utility.yul\":17862:18038   */\n      pop\n      jump\t// out\n        /* \"#utility.yul\":18044:18267   */\n    tag_223:\n        /* \"#utility.yul\":18184:18218   */\n      0x53696d7377617045524332303a20696e73756666696369656e7420616c6c6f77\n        /* \"#utility.yul\":18180:18181   */\n      0x00\n        /* \"#utility.yul\":18172:18178   */\n      dup3\n        /* \"#utility.yul\":18168:18182   */\n      add\n        /* \"#utility.yul\":18161:18219   */\n      mstore\n        /* \"#utility.yul\":18253:18259   */\n      0x616e636500000000000000000000000000000000000000000000000000000000\n        /* \"#utility.yul\":18248:18250   */\n      0x20\n        /* \"#utility.yul\":18240:18246   */\n      dup3\n        /* \"#utility.yul\":18236:18251   */\n      add\n        /* \"#utility.yul\":18229:18260   */\n      mstore\n        /* \"#utility.yul\":18044:18267   */\n      pop\n      jump\t// out\n        /* \"#utility.yul\":18273:18487   */\n    tag_229:\n        /* \"#utility.yul\":18413:18479   */\n      0x1901000000000000000000000000000000000000000000000000000000000000\n        /* \"#utility.yul\":18409:18410   */\n      0x00\n        /* \"#utility.yul\":18401:18407   */\n      dup3\n        /* \"#utility.yul\":18397:18411   */\n      add\n        /* \"#utility.yul\":18390:18480   */\n      mstore\n        /* \"#utility.yul\":18273:18487   */\n      pop\n      jump\t// out\n        /* \"#utility.yul\":18493:18722   */\n    tag_234:\n        /* \"#utility.yul\":18633:18667   */\n      0x53696d7377617045524332303a207472616e7366657220746f20746865207a65\n        /* \"#utility.yul\":18629:18630   */\n      0x00\n        /* \"#utility.yul\":18621:18627   */\n      dup3\n        /* \"#utility.yul\":18617:18631   */\n      add\n        /* \"#utility.yul\":18610:18668   */\n      mstore\n        /* \"#utility.yul\":18702:18714   */\n      0x726f206164647265737300000000000000000000000000000000000000000000\n        /* \"#utility.yul\":18697:18699   */\n      0x20\n        /* \"#utility.yul\":18689:18695   */\n      dup3\n        /* \"#utility.yul\":18685:18700   */\n      add\n        /* \"#utility.yul\":18678:18715   */\n      mstore\n        /* \"#utility.yul\":18493:18722   */\n      pop\n      jump\t// out\n        /* \"#utility.yul\":18728:18894   */\n    tag_239:\n        /* \"#utility.yul\":18868:18886   */\n      0x53696d737761703a204558504952454400000000000000000000000000000000\n        /* \"#utility.yul\":18864:18865   */\n      0x00\n        /* \"#utility.yul\":18856:18862   */\n      dup3\n        /* \"#utility.yul\":18852:18866   */\n      add\n        /* \"#utility.yul\":18845:18887   */\n      mstore\n        /* \"#utility.yul\":18728:18894   */\n      pop\n      jump\t// out\n        /* \"#utility.yul\":18900:19130   */\n    tag_244:\n        /* \"#utility.yul\":19040:19074   */\n      0x53696d7377617045524332303a20617070726f76652066726f6d20746865207a\n        /* \"#utility.yul\":19036:19037   */\n      0x00\n        /* \"#utility.yul\":19028:19034   */\n      dup3\n        /* \"#utility.yul\":19024:19038   */\n      add\n        /* \"#utility.yul\":19017:19075   */\n      mstore\n        /* \"#utility.yul\":19109:19122   */\n      0x65726f2061646472657373000000000000000000000000000000000000000000\n        /* \"#utility.yul\":19104:19106   */\n      0x20\n        /* \"#utility.yul\":19096:19102   */\n      dup3\n        /* \"#utility.yul\":19092:19107   */\n      add\n        /* \"#utility.yul\":19085:19123   */\n      mstore\n        /* \"#utility.yul\":18900:19130   */\n      pop\n      jump\t// out\n        /* \"#utility.yul\":19136:19367   */\n    tag_249:\n        /* \"#utility.yul\":19276:19310   */\n      0x53696d7377617045524332303a207472616e736665722066726f6d2074686520\n        /* \"#utility.yul\":19272:19273   */\n      0x00\n        /* \"#utility.yul\":19264:19270   */\n      dup3\n        /* \"#utility.yul\":19260:19274   */\n      add\n        /* \"#utility.yul\":19253:19311   */\n      mstore\n        /* \"#utility.yul\":19345:19359   */\n      0x7a65726f20616464726573730000000000000000000000000000000000000000\n        /* \"#utility.yul\":19340:19342   */\n      0x20\n        /* \"#utility.yul\":19332:19338   */\n      dup3\n        /* \"#utility.yul\":19328:19343   */\n      add\n        /* \"#utility.yul\":19321:19360   */\n      mstore\n        /* \"#utility.yul\":19136:19367   */\n      pop\n      jump\t// out\n        /* \"#utility.yul\":19373:19605   */\n    tag_254:\n        /* \"#utility.yul\":19513:19547   */\n      0x53696d7377617045524332303a207472616e7366657220616d6f756e74206578\n        /* \"#utility.yul\":19509:19510   */\n      0x00\n        /* \"#utility.yul\":19501:19507   */\n      dup3\n        /* \"#utility.yul\":19497:19511   */\n      add\n        /* \"#utility.yul\":19490:19548   */\n      mstore\n        /* \"#utility.yul\":19582:19597   */\n      0x63656564732062616c616e636500000000000000000000000000000000000000\n        /* \"#utility.yul\":19577:19579   */\n      0x20\n        /* \"#utility.yul\":19569:19575   */\n      dup3\n        /* \"#utility.yul\":19565:19580   */\n      add\n        /* \"#utility.yul\":19558:19598   */\n      mstore\n        /* \"#utility.yul\":19373:19605   */\n      pop\n      jump\t// out\n        /* \"#utility.yul\":19611:19839   */\n    tag_259:\n        /* \"#utility.yul\":19751:19785   */\n      0x53696d7377617045524332303a20617070726f766520746f20746865207a6572\n        /* \"#utility.yul\":19747:19748   */\n      0x00\n        /* \"#utility.yul\":19739:19745   */\n      dup3\n        /* \"#utility.yul\":19735:19749   */\n      add\n        /* \"#utility.yul\":19728:19786   */\n      mstore\n        /* \"#utility.yul\":19820:19831   */\n      0x6f20616464726573730000000000000000000000000000000000000000000000\n        /* \"#utility.yul\":19815:19817   */\n      0x20\n        /* \"#utility.yul\":19807:19813   */\n      dup3\n        /* \"#utility.yul\":19803:19818   */\n      add\n        /* \"#utility.yul\":19796:19832   */\n      mstore\n        /* \"#utility.yul\":19611:19839   */\n      pop\n      jump\t// out\n        /* \"#utility.yul\":19845:19967   */\n    tag_143:\n        /* \"#utility.yul\":19918:19942   */\n      tag_356\n        /* \"#utility.yul\":19936:19941   */\n      dup2\n        /* \"#utility.yul\":19918:19942   */\n      tag_190\n      jump\t// in\n    tag_356:\n        /* \"#utility.yul\":19911:19916   */\n      dup2\n        /* \"#utility.yul\":19908:19943   */\n      eq\n        /* \"#utility.yul\":19898:19961   */\n      tag_357\n      jumpi\n        /* \"#utility.yul\":19957:19958   */\n      0x00\n        /* \"#utility.yul\":19954:19955   */\n      dup1\n        /* \"#utility.yul\":19947:19959   */\n      revert\n        /* \"#utility.yul\":19898:19961   */\n    tag_357:\n        /* \"#utility.yul\":19845:19967   */\n      pop\n      jump\t// out\n        /* \"#utility.yul\":19973:20095   */\n    tag_147:\n        /* \"#utility.yul\":20046:20070   */\n      tag_359\n        /* \"#utility.yul\":20064:20069   */\n      dup2\n        /* \"#utility.yul\":20046:20070   */\n      tag_198\n      jump\t// in\n    tag_359:\n        /* \"#utility.yul\":20039:20044   */\n      dup2\n        /* \"#utility.yul\":20036:20071   */\n      eq\n        /* \"#utility.yul\":20026:20089   */\n      tag_360\n      jumpi\n        /* \"#utility.yul\":20085:20086   */\n      0x00\n        /* \"#utility.yul\":20082:20083   */\n      dup1\n        /* \"#utility.yul\":20075:20087   */\n      revert\n        /* \"#utility.yul\":20026:20089   */\n    tag_360:\n        /* \"#utility.yul\":19973:20095   */\n      pop\n      jump\t// out\n        /* \"#utility.yul\":20101:20223   */\n    tag_151:\n        /* \"#utility.yul\":20174:20198   */\n      tag_362\n        /* \"#utility.yul\":20192:20197   */\n      dup2\n        /* \"#utility.yul\":20174:20198   */\n      tag_263\n      jump\t// in\n    tag_362:\n        /* \"#utility.yul\":20167:20172   */\n      dup2\n        /* \"#utility.yul\":20164:20199   */\n      eq\n        /* \"#utility.yul\":20154:20217   */\n      tag_363\n      jumpi\n        /* \"#utility.yul\":20213:20214   */\n      0x00\n        /* \"#utility.yul\":20210:20211   */\n      dup1\n        /* \"#utility.yul\":20203:20215   */\n      revert\n        /* \"#utility.yul\":20154:20217   */\n    tag_363:\n        /* \"#utility.yul\":20101:20223   */\n      pop\n      jump\t// out\n        /* \"#utility.yul\":20229:20347   */\n    tag_155:\n        /* \"#utility.yul\":20300:20322   */\n      tag_365\n        /* \"#utility.yul\":20316:20321   */\n      dup2\n        /* \"#utility.yul\":20300:20322   */\n      tag_267\n      jump\t// in\n    tag_365:\n        /* \"#utility.yul\":20293:20298   */\n      dup2\n        /* \"#utility.yul\":20290:20323   */\n      eq\n        /* \"#utility.yul\":20280:20341   */\n      tag_366\n      jumpi\n        /* \"#utility.yul\":20337:20338   */\n      0x00\n        /* \"#utility.yul\":20334:20335   */\n      dup1\n        /* \"#utility.yul\":20327:20339   */\n      revert\n        /* \"#utility.yul\":20280:20341   */\n    tag_366:\n        /* \"#utility.yul\":20229:20347   */\n      pop\n      jump\t// out\n\n    auxdata: 0xa264697066735822122000679485e8959d3eedb6f3f8a195bd908327238a5f2a55c1e40fa815ce0971a064736f6c63430008070033\n}\n",
				"bytecode": {
					"linkReferences": {},
					"object": "60c06040523480156200001157600080fd5b5046608081815250506200002a6200003760201b60201c565b60a08181525050620001c6565b60007f8b73c3c69bb8fe3d512ecc4cf759cc79239f7b179b0ffacaa9a75d522b39400f60001b6040518060400160405280600781526020017f53696d7377617000000000000000000000000000000000000000000000000000815250805190602001207fc89efdaa54c0f20c7adf612882df0950f5a951637e0307cdcb4c672f298b8bc64630604051602001620000d395949392919062000121565b60405160208183030381529060405280519060200120905090565b620000f9816200017e565b82525050565b6200010a8162000192565b82525050565b6200011b81620001bc565b82525050565b600060a082019050620001386000830188620000ff565b620001476020830187620000ff565b620001566040830186620000ff565b62000165606083018562000110565b620001746080830184620000ee565b9695505050505050565b60006200018b826200019c565b9050919050565b6000819050919050565b600073ffffffffffffffffffffffffffffffffffffffff82169050919050565b6000819050919050565b60805160a051611780620001ec600039600061034c0152600061031801526117806000f3fe608060405234801561001057600080fd5b50600436106100b45760003560e01c806370a082311161007157806370a08231146101915780637ecebe00146101c157806395d89b41146101f1578063a9059cbb1461020f578063d505accf1461023f578063dd62ed3e1461025b576100b4565b806306fdde03146100b9578063095ea7b3146100d757806318160ddd1461010757806323b872dd14610125578063313ce567146101555780633644e51514610173575b600080fd5b6100c161028b565b6040516100ce91906111e3565b60405180910390f35b6100f160048036038101906100ec9190610e67565b6102c8565b6040516100fe91906110b4565b60405180910390f35b61010f6102df565b60405161011c9190611305565b60405180910390f35b61013f600480360381019061013a9190610d72565b6102e8565b60405161014c91906110b4565b60405180910390f35b61015d61030b565b60405161016a9190611320565b60405180910390f35b61017b610314565b60405161018891906110cf565b60405180910390f35b6101ab60048036038101906101a69190610d05565b610371565b6040516101b89190611305565b60405180910390f35b6101db60048036038101906101d69190610d05565b6103ba565b6040516101e89190611305565b60405180910390f35b6101f9610403565b60405161020691906111e3565b60405180910390f35b61022960048036038101906102249190610e67565b610440565b60405161023691906110b4565b60405180910390f35b61025960048036038101906102549190610dc5565b610457565b005b61027560048036038101906102709190610d32565b610678565b6040516102829190611305565b60405180910390f35b60606040518060400160405280600781526020017f53696d7377617000000000000000000000000000000000000000000000000000815250905090565b60006102d53384846106ff565b6001905092915050565b60008054905090565b60006102f58484846108ca565b610300848484610956565b600190509392505050565b60006012905090565b60007f0000000000000000000000000000000000000000000000000000000000000000461461034a57610345610bfc565b61036c565b7f00000000000000000000000000000000000000000000000000000000000000005b905090565b6000600160008373ffffffffffffffffffffffffffffffffffffffff1673ffffffffffffffffffffffffffffffffffffffff168152602001908152602001600020549050919050565b6000600360008373ffffffffffffffffffffffffffffffffffffffff1673ffffffffffffffffffffffffffffffffffffffff168152602001908152602001600020549050919050565b60606040518060400160405280600481526020017f73696d7000000000000000000000000000000000000000000000000000000000815250905090565b600061044d338484610956565b6001905092915050565b4284101561049a576040517f08c379a000000000000000000000000000000000000000000000000000000000815260040161049190611265565b60405180910390fd5b600060016104a6610314565b7f6e71edae12b1b97f4d1f60370fef10105fa2faae0126114a169c64845d6126c960001b8a8a8a600360008f73ffffffffffffffffffffffffffffffffffffffff1673ffffffffffffffffffffffffffffffffffffffff1681526020019081526020016000206000815480929190600101919050558b604051602001610531969594939291906110ea565b6040516020818303038152906040528051906020012060405160200161055892919061107d565b604051602081830303815290604052805190602001208585856040516000815260200160405260405161058e949392919061119e565b6020604051602081039080840390855afa1580156105b0573d6000803e3d6000fd5b505050602060405103519050600073ffffffffffffffffffffffffffffffffffffffff168173ffffffffffffffffffffffffffffffffffffffff161415801561062457508773ffffffffffffffffffffffffffffffffffffffff168173ffffffffffffffffffffffffffffffffffffffff16145b610663576040517f08c379a000000000000000000000000000000000000000000000000000000000815260040161065a90611205565b60405180910390fd5b61066e8188886106ff565b5050505050505050565b6000600260008473ffffffffffffffffffffffffffffffffffffffff1673ffffffffffffffffffffffffffffffffffffffff16815260200190815260200160002060008373ffffffffffffffffffffffffffffffffffffffff1673ffffffffffffffffffffffffffffffffffffffff16815260200190815260200160002054905092915050565b600073ffffffffffffffffffffffffffffffffffffffff168373ffffffffffffffffffffffffffffffffffffffff16141561076f576040517f08c379a000000000000000000000000000000000000000000000000000000000815260040161076690611285565b60405180910390fd5b600073ffffffffffffffffffffffffffffffffffffffff168273ffffffffffffffffffffffffffffffffffffffff1614156107df576040517f08c379a00000000000000000000000000000000000000000000000000000000081526004016107d6906112e5565b60405180910390fd5b80600260008573ffffffffffffffffffffffffffffffffffffffff1673ffffffffffffffffffffffffffffffffffffffff16815260200190815260200160002060008473ffffffffffffffffffffffffffffffffffffffff1673ffffffffffffffffffffffffffffffffffffffff168152602001908152602001600020819055508173ffffffffffffffffffffffffffffffffffffffff168373ffffffffffffffffffffffffffffffffffffffff167f8c5be1e5ebec7d5bd14f71427d1e84f3dd0314c0f7b2291e5b200ac8c7c3b925836040516108bd9190611305565b60405180910390a3505050565b60006108d68484610678565b90507fffffffffffffffffffffffffffffffffffffffffffffffffffffffffffffffff81146109505781811015610942576040517f08c379a000000000000000000000000000000000000000000000000000000000815260040161093990611225565b60405180910390fd5b61094f84848484036106ff565b5b50505050565b600073ffffffffffffffffffffffffffffffffffffffff168373ffffffffffffffffffffffffffffffffffffffff1614156109c6576040517f08c379a00000000000000000000000000000000000000000000000000000000081526004016109bd906112a5565b60405180910390fd5b600073ffffffffffffffffffffffffffffffffffffffff168273ffffffffffffffffffffffffffffffffffffffff161415610a36576040517f08c379a0000000000000000000000000000000000000000000000000000000008152600401610a2d90611245565b60405180910390fd5b6000600160008573ffffffffffffffffffffffffffffffffffffffff1673ffffffffffffffffffffffffffffffffffffffff16815260200190815260200160002054905081811015610abd576040517f08c379a0000000000000000000000000000000000000000000000000000000008152600401610ab4906112c5565b60405180910390fd5b818103600160008673ffffffffffffffffffffffffffffffffffffffff1673ffffffffffffffffffffffffffffffffffffffff1681526020019081526020016000208190555081600160008573ffffffffffffffffffffffffffffffffffffffff1673ffffffffffffffffffffffffffffffffffffffff16815260200190815260200160002054610b4e9190611362565b600160008573ffffffffffffffffffffffffffffffffffffffff1673ffffffffffffffffffffffffffffffffffffffff168152602001908152602001600020819055508273ffffffffffffffffffffffffffffffffffffffff168473ffffffffffffffffffffffffffffffffffffffff167fddf252ad1be2c89b69c2b068fc378daa952ba7f163c4a11628f55a4df523b3ef84604051610bee9190611305565b60405180910390a350505050565b60007f8b73c3c69bb8fe3d512ecc4cf759cc79239f7b179b0ffacaa9a75d522b39400f60001b6040518060400160405280600781526020017f53696d7377617000000000000000000000000000000000000000000000000000815250805190602001207fc89efdaa54c0f20c7adf612882df0950f5a951637e0307cdcb4c672f298b8bc64630604051602001610c9695949392919061114b565b60405160208183030381529060405280519060200120905090565b600081359050610cc0816116ee565b92915050565b600081359050610cd581611705565b92915050565b600081359050610cea8161171c565b92915050565b600081359050610cff81611733565b92915050565b600060208284031215610d1b57610d1a611483565b5b6000610d2984828501610cb1565b91505092915050565b60008060408385031215610d4957610d48611483565b5b6000610d5785828601610cb1565b9250506020610d6885828601610cb1565b9150509250929050565b600080600060608486031215610d8b57610d8a611483565b5b6000610d9986828701610cb1565b9350506020610daa86828701610cb1565b9250506040610dbb86828701610cdb565b9150509250925092565b600080600080600080600060e0888a031215610de457610de3611483565b5b6000610df28a828b01610cb1565b9750506020610e038a828b01610cb1565b9650506040610e148a828b01610cdb565b9550506060610e258a828b01610cdb565b9450506080610e368a828b01610cf0565b93505060a0610e478a828b01610cc6565b92505060c0610e588a828b01610cc6565b91505092959891949750929550565b60008060408385031215610e7e57610e7d611483565b5b6000610e8c85828601610cb1565b9250506020610e9d85828601610cdb565b9150509250929050565b610eb0816113b8565b82525050565b610ebf816113ca565b82525050565b610ece816113d6565b82525050565b610ee5610ee0826113d6565b61144a565b82525050565b6000610ef68261133b565b610f008185611346565b9350610f10818560208601611417565b610f1981611488565b840191505092915050565b6000610f31601a83611346565b9150610f3c82611499565b602082019050919050565b6000610f54602483611346565b9150610f5f826114c2565b604082019050919050565b6000610f77600283611357565b9150610f8282611511565b600282019050919050565b6000610f9a602a83611346565b9150610fa58261153a565b604082019050919050565b6000610fbd601083611346565b9150610fc882611589565b602082019050919050565b6000610fe0602b83611346565b9150610feb826115b2565b604082019050919050565b6000611003602c83611346565b915061100e82611601565b604082019050919050565b6000611026602d83611346565b915061103182611650565b604082019050919050565b6000611049602983611346565b91506110548261169f565b604082019050919050565b61106881611400565b82525050565b6110778161140a565b82525050565b600061108882610f6a565b91506110948285610ed4565b6020820191506110a48284610ed4565b6020820191508190509392505050565b60006020820190506110c96000830184610eb6565b92915050565b60006020820190506110e46000830184610ec5565b92915050565b600060c0820190506110ff6000830189610ec5565b61110c6020830188610ea7565b6111196040830187610ea7565b611126606083018661105f565b611133608083018561105f565b61114060a083018461105f565b979650505050505050565b600060a0820190506111606000830188610ec5565b61116d6020830187610ec5565b61117a6040830186610ec5565b611187606083018561105f565b6111946080830184610ea7565b9695505050505050565b60006080820190506111b36000830187610ec5565b6111c0602083018661106e565b6111cd6040830185610ec5565b6111da6060830184610ec5565b95945050505050565b600060208201905081810360008301526111fd8184610eeb565b905092915050565b6000602082019050818103600083015261121e81610f24565b9050919050565b6000602082019050818103600083015261123e81610f47565b9050919050565b6000602082019050818103600083015261125e81610f8d565b9050919050565b6000602082019050818103600083015261127e81610fb0565b9050919050565b6000602082019050818103600083015261129e81610fd3565b9050919050565b600060208201905081810360008301526112be81610ff6565b9050919050565b600060208201905081810360008301526112de81611019565b9050919050565b600060208201905081810360008301526112fe8161103c565b9050919050565b600060208201905061131a600083018461105f565b92915050565b6000602082019050611335600083018461106e565b92915050565b600081519050919050565b600082825260208201905092915050565b600081905092915050565b600061136d82611400565b915061137883611400565b9250827fffffffffffffffffffffffffffffffffffffffffffffffffffffffffffffffff038211156113ad576113ac611454565b5b828201905092915050565b60006113c3826113e0565b9050919050565b60008115159050919050565b6000819050919050565b600073ffffffffffffffffffffffffffffffffffffffff82169050919050565b6000819050919050565b600060ff82169050919050565b60005b8381101561143557808201518184015260208101905061141a565b83811115611444576000848401525b50505050565b6000819050919050565b7f4e487b7100000000000000000000000000000000000000000000000000000000600052601160045260246000fd5b600080fd5b6000601f19601f8301169050919050565b7f53696d737761703a20494e56414c49445f5349474e4154555245000000000000600082015250565b7f53696d7377617045524332303a20696e73756666696369656e7420616c6c6f7760008201527f616e636500000000000000000000000000000000000000000000000000000000602082015250565b7f1901000000000000000000000000000000000000000000000000000000000000600082015250565b7f53696d7377617045524332303a207472616e7366657220746f20746865207a6560008201527f726f206164647265737300000000000000000000000000000000000000000000602082015250565b7f53696d737761703a204558504952454400000000000000000000000000000000600082015250565b7f53696d7377617045524332303a20617070726f76652066726f6d20746865207a60008201527f65726f2061646472657373000000000000000000000000000000000000000000602082015250565b7f53696d7377617045524332303a207472616e736665722066726f6d207468652060008201527f7a65726f20616464726573730000000000000000000000000000000000000000602082015250565b7f53696d7377617045524332303a207472616e7366657220616d6f756e7420657860008201527f63656564732062616c616e636500000000000000000000000000000000000000602082015250565b7f53696d7377617045524332303a20617070726f766520746f20746865207a657260008201527f6f20616464726573730000000000000000000000000000000000000000000000602082015250565b6116f7816113b8565b811461170257600080fd5b50565b61170e816113d6565b811461171957600080fd5b50565b61172581611400565b811461173057600080fd5b50565b61173c8161140a565b811461174757600080fd5b5056fea264697066735822122000679485e8959d3eedb6f3f8a195bd908327238a5f2a55c1e40fa815ce0971a064736f6c63430008070033",
					"opcodes": "PUSH1 0xC0 PUSH1 0x40 MSTORE CALLVALUE DUP1 ISZERO PUSH3 0x11 JUMPI PUSH1 0x0 DUP1 REVERT JUMPDEST POP CHAINID PUSH1 0x80 DUP2 DUP2 MSTORE POP POP PUSH3 0x2A PUSH3 0x37 PUSH1 0x20 SHL PUSH1 0x20 SHR JUMP JUMPDEST PUSH1 0xA0 DUP2 DUP2 MSTORE POP POP PUSH3 0x1C6 JUMP JUMPDEST PUSH1 0x0 PUSH32 0x8B73C3C69BB8FE3D512ECC4CF759CC79239F7B179B0FFACAA9A75D522B39400F PUSH1 0x0 SHL PUSH1 0x40 MLOAD DUP1 PUSH1 0x40 ADD PUSH1 0x40 MSTORE DUP1 PUSH1 0x7 DUP2 MSTORE PUSH1 0x20 ADD PUSH32 0x53696D7377617000000000000000000000000000000000000000000000000000 DUP2 MSTORE POP DUP1 MLOAD SWAP1 PUSH1 0x20 ADD KECCAK256 PUSH32 0xC89EFDAA54C0F20C7ADF612882DF0950F5A951637E0307CDCB4C672F298B8BC6 CHAINID ADDRESS PUSH1 0x40 MLOAD PUSH1 0x20 ADD PUSH3 0xD3 SWAP6 SWAP5 SWAP4 SWAP3 SWAP2 SWAP1 PUSH3 0x121 JUMP JUMPDEST PUSH1 0x40 MLOAD PUSH1 0x20 DUP2 DUP4 SUB SUB DUP2 MSTORE SWAP1 PUSH1 0x40 MSTORE DUP1 MLOAD SWAP1 PUSH1 0x20 ADD KECCAK256 SWAP1 POP SWAP1 JUMP JUMPDEST PUSH3 0xF9 DUP2 PUSH3 0x17E JUMP JUMPDEST DUP3 MSTORE POP POP JUMP JUMPDEST PUSH3 0x10A DUP2 PUSH3 0x192 JUMP JUMPDEST DUP3 MSTORE POP POP JUMP JUMPDEST PUSH3 0x11B DUP2 PUSH3 0x1BC JUMP JUMPDEST DUP3 MSTORE POP POP JUMP JUMPDEST PUSH1 0x0 PUSH1 0xA0 DUP3 ADD SWAP1 POP PUSH3 0x138 PUSH1 0x0 DUP4 ADD DUP9 PUSH3 0xFF JUMP JUMPDEST PUSH3 0x147 PUSH1 0x20 DUP4 ADD DUP8 PUSH3 0xFF JUMP JUMPDEST PUSH3 0x156 PUSH1 0x40 DUP4 ADD DUP7 PUSH3 0xFF JUMP JUMPDEST PUSH3 0x165 PUSH1 0x60 DUP4 ADD DUP6 PUSH3 0x110 JUMP JUMPDEST PUSH3 0x174 PUSH1 0x80 DUP4 ADD DUP5 PUSH3 0xEE JUMP JUMPDEST SWAP7 SWAP6 POP POP POP POP POP POP JUMP JUMPDEST PUSH1 0x0 PUSH3 0x18B DUP3 PUSH3 0x19C JUMP JUMPDEST SWAP1 POP SWAP2 SWAP1 POP JUMP JUMPDEST PUSH1 0x0 DUP2 SWAP1 POP SWAP2 SWAP1 POP JUMP JUMPDEST PUSH1 0x0 PUSH20 0xFFFFFFFFFFFFFFFFFFFFFFFFFFFFFFFFFFFFFFFF DUP3 AND SWAP1 POP SWAP2 SWAP1 POP JUMP JUMPDEST PUSH1 0x0 DUP2 SWAP1 POP SWAP2 SWAP1 POP JUMP JUMPDEST PUSH1 0x80 MLOAD PUSH1 0xA0 MLOAD PUSH2 0x1780 PUSH3 0x1EC PUSH1 0x0 CODECOPY PUSH1 0x0 PUSH2 0x34C ADD MSTORE PUSH1 0x0 PUSH2 0x318 ADD MSTORE PUSH2 0x1780 PUSH1 0x0 RETURN INVALID PUSH1 0x80 PUSH1 0x40 MSTORE CALLVALUE DUP1 ISZERO PUSH2 0x10 JUMPI PUSH1 0x0 DUP1 REVERT JUMPDEST POP PUSH1 0x4 CALLDATASIZE LT PUSH2 0xB4 JUMPI PUSH1 0x0 CALLDATALOAD PUSH1 0xE0 SHR DUP1 PUSH4 0x70A08231 GT PUSH2 0x71 JUMPI DUP1 PUSH4 0x70A08231 EQ PUSH2 0x191 JUMPI DUP1 PUSH4 0x7ECEBE00 EQ PUSH2 0x1C1 JUMPI DUP1 PUSH4 0x95D89B41 EQ PUSH2 0x1F1 JUMPI DUP1 PUSH4 0xA9059CBB EQ PUSH2 0x20F JUMPI DUP1 PUSH4 0xD505ACCF EQ PUSH2 0x23F JUMPI DUP1 PUSH4 0xDD62ED3E EQ PUSH2 0x25B JUMPI PUSH2 0xB4 JUMP JUMPDEST DUP1 PUSH4 0x6FDDE03 EQ PUSH2 0xB9 JUMPI DUP1 PUSH4 0x95EA7B3 EQ PUSH2 0xD7 JUMPI DUP1 PUSH4 0x18160DDD EQ PUSH2 0x107 JUMPI DUP1 PUSH4 0x23B872DD EQ PUSH2 0x125 JUMPI DUP1 PUSH4 0x313CE567 EQ PUSH2 0x155 JUMPI DUP1 PUSH4 0x3644E515 EQ PUSH2 0x173 JUMPI JUMPDEST PUSH1 0x0 DUP1 REVERT JUMPDEST PUSH2 0xC1 PUSH2 0x28B JUMP JUMPDEST PUSH1 0x40 MLOAD PUSH2 0xCE SWAP2 SWAP1 PUSH2 0x11E3 JUMP JUMPDEST PUSH1 0x40 MLOAD DUP1 SWAP2 SUB SWAP1 RETURN JUMPDEST PUSH2 0xF1 PUSH1 0x4 DUP1 CALLDATASIZE SUB DUP2 ADD SWAP1 PUSH2 0xEC SWAP2 SWAP1 PUSH2 0xE67 JUMP JUMPDEST PUSH2 0x2C8 JUMP JUMPDEST PUSH1 0x40 MLOAD PUSH2 0xFE SWAP2 SWAP1 PUSH2 0x10B4 JUMP JUMPDEST PUSH1 0x40 MLOAD DUP1 SWAP2 SUB SWAP1 RETURN JUMPDEST PUSH2 0x10F PUSH2 0x2DF JUMP JUMPDEST PUSH1 0x40 MLOAD PUSH2 0x11C SWAP2 SWAP1 PUSH2 0x1305 JUMP JUMPDEST PUSH1 0x40 MLOAD DUP1 SWAP2 SUB SWAP1 RETURN JUMPDEST PUSH2 0x13F PUSH1 0x4 DUP1 CALLDATASIZE SUB DUP2 ADD SWAP1 PUSH2 0x13A SWAP2 SWAP1 PUSH2 0xD72 JUMP JUMPDEST PUSH2 0x2E8 JUMP JUMPDEST PUSH1 0x40 MLOAD PUSH2 0x14C SWAP2 SWAP1 PUSH2 0x10B4 JUMP JUMPDEST PUSH1 0x40 MLOAD DUP1 SWAP2 SUB SWAP1 RETURN JUMPDEST PUSH2 0x15D PUSH2 0x30B JUMP JUMPDEST PUSH1 0x40 MLOAD PUSH2 0x16A SWAP2 SWAP1 PUSH2 0x1320 JUMP JUMPDEST PUSH1 0x40 MLOAD DUP1 SWAP2 SUB SWAP1 RETURN JUMPDEST PUSH2 0x17B PUSH2 0x314 JUMP JUMPDEST PUSH1 0x40 MLOAD PUSH2 0x188 SWAP2 SWAP1 PUSH2 0x10CF JUMP JUMPDEST PUSH1 0x40 MLOAD DUP1 SWAP2 SUB SWAP1 RETURN JUMPDEST PUSH2 0x1AB PUSH1 0x4 DUP1 CALLDATASIZE SUB DUP2 ADD SWAP1 PUSH2 0x1A6 SWAP2 SWAP1 PUSH2 0xD05 JUMP JUMPDEST PUSH2 0x371 JUMP JUMPDEST PUSH1 0x40 MLOAD PUSH2 0x1B8 SWAP2 SWAP1 PUSH2 0x1305 JUMP JUMPDEST PUSH1 0x40 MLOAD DUP1 SWAP2 SUB SWAP1 RETURN JUMPDEST PUSH2 0x1DB PUSH1 0x4 DUP1 CALLDATASIZE SUB DUP2 ADD SWAP1 PUSH2 0x1D6 SWAP2 SWAP1 PUSH2 0xD05 JUMP JUMPDEST PUSH2 0x3BA JUMP JUMPDEST PUSH1 0x40 MLOAD PUSH2 0x1E8 SWAP2 SWAP1 PUSH2 0x1305 JUMP JUMPDEST PUSH1 0x40 MLOAD DUP1 SWAP2 SUB SWAP1 RETURN JUMPDEST PUSH2 0x1F9 PUSH2 0x403 JUMP JUMPDEST PUSH1 0x40 MLOAD PUSH2 0x206 SWAP2 SWAP1 PUSH2 0x11E3 JUMP JUMPDEST PUSH1 0x40 MLOAD DUP1 SWAP2 SUB SWAP1 RETURN JUMPDEST PUSH2 0x229 PUSH1 0x4 DUP1 CALLDATASIZE SUB DUP2 ADD SWAP1 PUSH2 0x224 SWAP2 SWAP1 PUSH2 0xE67 JUMP JUMPDEST PUSH2 0x440 JUMP JUMPDEST PUSH1 0x40 MLOAD PUSH2 0x236 SWAP2 SWAP1 PUSH2 0x10B4 JUMP JUMPDEST PUSH1 0x40 MLOAD DUP1 SWAP2 SUB SWAP1 RETURN JUMPDEST PUSH2 0x259 PUSH1 0x4 DUP1 CALLDATASIZE SUB DUP2 ADD SWAP1 PUSH2 0x254 SWAP2 SWAP1 PUSH2 0xDC5 JUMP JUMPDEST PUSH2 0x457 JUMP JUMPDEST STOP JUMPDEST PUSH2 0x275 PUSH1 0x4 DUP1 CALLDATASIZE SUB DUP2 ADD SWAP1 PUSH2 0x270 SWAP2 SWAP1 PUSH2 0xD32 JUMP JUMPDEST PUSH2 0x678 JUMP JUMPDEST PUSH1 0x40 MLOAD PUSH2 0x282 SWAP2 SWAP1 PUSH2 0x1305 JUMP JUMPDEST PUSH1 0x40 MLOAD DUP1 SWAP2 SUB SWAP1 RETURN JUMPDEST PUSH1 0x60 PUSH1 0x40 MLOAD DUP1 PUSH1 0x40 ADD PUSH1 0x40 MSTORE DUP1 PUSH1 0x7 DUP2 MSTORE PUSH1 0x20 ADD PUSH32 0x53696D7377617000000000000000000000000000000000000000000000000000 DUP2 MSTORE POP SWAP1 POP SWAP1 JUMP JUMPDEST PUSH1 0x0 PUSH2 0x2D5 CALLER DUP5 DUP5 PUSH2 0x6FF JUMP JUMPDEST PUSH1 0x1 SWAP1 POP SWAP3 SWAP2 POP POP JUMP JUMPDEST PUSH1 0x0 DUP1 SLOAD SWAP1 POP SWAP1 JUMP JUMPDEST PUSH1 0x0 PUSH2 0x2F5 DUP5 DUP5 DUP5 PUSH2 0x8CA JUMP JUMPDEST PUSH2 0x300 DUP5 DUP5 DUP5 PUSH2 0x956 JUMP JUMPDEST PUSH1 0x1 SWAP1 POP SWAP4 SWAP3 POP POP POP JUMP JUMPDEST PUSH1 0x0 PUSH1 0x12 SWAP1 POP SWAP1 JUMP JUMPDEST PUSH1 0x0 PUSH32 0x0 CHAINID EQ PUSH2 0x34A JUMPI PUSH2 0x345 PUSH2 0xBFC JUMP JUMPDEST PUSH2 0x36C JUMP JUMPDEST PUSH32 0x0 JUMPDEST SWAP1 POP SWAP1 JUMP JUMPDEST PUSH1 0x0 PUSH1 0x1 PUSH1 0x0 DUP4 PUSH20 0xFFFFFFFFFFFFFFFFFFFFFFFFFFFFFFFFFFFFFFFF AND PUSH20 0xFFFFFFFFFFFFFFFFFFFFFFFFFFFFFFFFFFFFFFFF AND DUP2 MSTORE PUSH1 0x20 ADD SWAP1 DUP2 MSTORE PUSH1 0x20 ADD PUSH1 0x0 KECCAK256 SLOAD SWAP1 POP SWAP2 SWAP1 POP JUMP JUMPDEST PUSH1 0x0 PUSH1 0x3 PUSH1 0x0 DUP4 PUSH20 0xFFFFFFFFFFFFFFFFFFFFFFFFFFFFFFFFFFFFFFFF AND PUSH20 0xFFFFFFFFFFFFFFFFFFFFFFFFFFFFFFFFFFFFFFFF AND DUP2 MSTORE PUSH1 0x20 ADD SWAP1 DUP2 MSTORE PUSH1 0x20 ADD PUSH1 0x0 KECCAK256 SLOAD SWAP1 POP SWAP2 SWAP1 POP JUMP JUMPDEST PUSH1 0x60 PUSH1 0x40 MLOAD DUP1 PUSH1 0x40 ADD PUSH1 0x40 MSTORE DUP1 PUSH1 0x4 DUP2 MSTORE PUSH1 0x20 ADD PUSH32 0x73696D7000000000000000000000000000000000000000000000000000000000 DUP2 MSTORE POP SWAP1 POP SWAP1 JUMP JUMPDEST PUSH1 0x0 PUSH2 0x44D CALLER DUP5 DUP5 PUSH2 0x956 JUMP JUMPDEST PUSH1 0x1 SWAP1 POP SWAP3 SWAP2 POP POP JUMP JUMPDEST TIMESTAMP DUP5 LT ISZERO PUSH2 0x49A JUMPI PUSH1 0x40 MLOAD PUSH32 0x8C379A000000000000000000000000000000000000000000000000000000000 DUP2 MSTORE PUSH1 0x4 ADD PUSH2 0x491 SWAP1 PUSH2 0x1265 JUMP JUMPDEST PUSH1 0x40 MLOAD DUP1 SWAP2 SUB SWAP1 REVERT JUMPDEST PUSH1 0x0 PUSH1 0x1 PUSH2 0x4A6 PUSH2 0x314 JUMP JUMPDEST PUSH32 0x6E71EDAE12B1B97F4D1F60370FEF10105FA2FAAE0126114A169C64845D6126C9 PUSH1 0x0 SHL DUP11 DUP11 DUP11 PUSH1 0x3 PUSH1 0x0 DUP16 PUSH20 0xFFFFFFFFFFFFFFFFFFFFFFFFFFFFFFFFFFFFFFFF AND PUSH20 0xFFFFFFFFFFFFFFFFFFFFFFFFFFFFFFFFFFFFFFFF AND DUP2 MSTORE PUSH1 0x20 ADD SWAP1 DUP2 MSTORE PUSH1 0x20 ADD PUSH1 0x0 KECCAK256 PUSH1 0x0 DUP2 SLOAD DUP1 SWAP3 SWAP2 SWAP1 PUSH1 0x1 ADD SWAP2 SWAP1 POP SSTORE DUP12 PUSH1 0x40 MLOAD PUSH1 0x20 ADD PUSH2 0x531 SWAP7 SWAP6 SWAP5 SWAP4 SWAP3 SWAP2 SWAP1 PUSH2 0x10EA JUMP JUMPDEST PUSH1 0x40 MLOAD PUSH1 0x20 DUP2 DUP4 SUB SUB DUP2 MSTORE SWAP1 PUSH1 0x40 MSTORE DUP1 MLOAD SWAP1 PUSH1 0x20 ADD KECCAK256 PUSH1 0x40 MLOAD PUSH1 0x20 ADD PUSH2 0x558 SWAP3 SWAP2 SWAP1 PUSH2 0x107D JUMP JUMPDEST PUSH1 0x40 MLOAD PUSH1 0x20 DUP2 DUP4 SUB SUB DUP2 MSTORE SWAP1 PUSH1 0x40 MSTORE DUP1 MLOAD SWAP1 PUSH1 0x20 ADD KECCAK256 DUP6 DUP6 DUP6 PUSH1 0x40 MLOAD PUSH1 0x0 DUP2 MSTORE PUSH1 0x20 ADD PUSH1 0x40 MSTORE PUSH1 0x40 MLOAD PUSH2 0x58E SWAP5 SWAP4 SWAP3 SWAP2 SWAP1 PUSH2 0x119E JUMP JUMPDEST PUSH1 0x20 PUSH1 0x40 MLOAD PUSH1 0x20 DUP2 SUB SWAP1 DUP1 DUP5 SUB SWAP1 DUP6 GAS STATICCALL ISZERO DUP1 ISZERO PUSH2 0x5B0 JUMPI RETURNDATASIZE PUSH1 0x0 DUP1 RETURNDATACOPY RETURNDATASIZE PUSH1 0x0 REVERT JUMPDEST POP POP POP PUSH1 0x20 PUSH1 0x40 MLOAD SUB MLOAD SWAP1 POP PUSH1 0x0 PUSH20 0xFFFFFFFFFFFFFFFFFFFFFFFFFFFFFFFFFFFFFFFF AND DUP2 PUSH20 0xFFFFFFFFFFFFFFFFFFFFFFFFFFFFFFFFFFFFFFFF AND EQ ISZERO DUP1 ISZERO PUSH2 0x624 JUMPI POP DUP8 PUSH20 0xFFFFFFFFFFFFFFFFFFFFFFFFFFFFFFFFFFFFFFFF AND DUP2 PUSH20 0xFFFFFFFFFFFFFFFFFFFFFFFFFFFFFFFFFFFFFFFF AND EQ JUMPDEST PUSH2 0x663 JUMPI PUSH1 0x40 MLOAD PUSH32 0x8C379A000000000000000000000000000000000000000000000000000000000 DUP2 MSTORE PUSH1 0x4 ADD PUSH2 0x65A SWAP1 PUSH2 0x1205 JUMP JUMPDEST PUSH1 0x40 MLOAD DUP1 SWAP2 SUB SWAP1 REVERT JUMPDEST PUSH2 0x66E DUP2 DUP9 DUP9 PUSH2 0x6FF JUMP JUMPDEST POP POP POP POP POP POP POP POP JUMP JUMPDEST PUSH1 0x0 PUSH1 0x2 PUSH1 0x0 DUP5 PUSH20 0xFFFFFFFFFFFFFFFFFFFFFFFFFFFFFFFFFFFFFFFF AND PUSH20 0xFFFFFFFFFFFFFFFFFFFFFFFFFFFFFFFFFFFFFFFF AND DUP2 MSTORE PUSH1 0x20 ADD SWAP1 DUP2 MSTORE PUSH1 0x20 ADD PUSH1 0x0 KECCAK256 PUSH1 0x0 DUP4 PUSH20 0xFFFFFFFFFFFFFFFFFFFFFFFFFFFFFFFFFFFFFFFF AND PUSH20 0xFFFFFFFFFFFFFFFFFFFFFFFFFFFFFFFFFFFFFFFF AND DUP2 MSTORE PUSH1 0x20 ADD SWAP1 DUP2 MSTORE PUSH1 0x20 ADD PUSH1 0x0 KECCAK256 SLOAD SWAP1 POP SWAP3 SWAP2 POP POP JUMP JUMPDEST PUSH1 0x0 PUSH20 0xFFFFFFFFFFFFFFFFFFFFFFFFFFFFFFFFFFFFFFFF AND DUP4 PUSH20 0xFFFFFFFFFFFFFFFFFFFFFFFFFFFFFFFFFFFFFFFF AND EQ ISZERO PUSH2 0x76F JUMPI PUSH1 0x40 MLOAD PUSH32 0x8C379A000000000000000000000000000000000000000000000000000000000 DUP2 MSTORE PUSH1 0x4 ADD PUSH2 0x766 SWAP1 PUSH2 0x1285 JUMP JUMPDEST PUSH1 0x40 MLOAD DUP1 SWAP2 SUB SWAP1 REVERT JUMPDEST PUSH1 0x0 PUSH20 0xFFFFFFFFFFFFFFFFFFFFFFFFFFFFFFFFFFFFFFFF AND DUP3 PUSH20 0xFFFFFFFFFFFFFFFFFFFFFFFFFFFFFFFFFFFFFFFF AND EQ ISZERO PUSH2 0x7DF JUMPI PUSH1 0x40 MLOAD PUSH32 0x8C379A000000000000000000000000000000000000000000000000000000000 DUP2 MSTORE PUSH1 0x4 ADD PUSH2 0x7D6 SWAP1 PUSH2 0x12E5 JUMP JUMPDEST PUSH1 0x40 MLOAD DUP1 SWAP2 SUB SWAP1 REVERT JUMPDEST DUP1 PUSH1 0x2 PUSH1 0x0 DUP6 PUSH20 0xFFFFFFFFFFFFFFFFFFFFFFFFFFFFFFFFFFFFFFFF AND PUSH20 0xFFFFFFFFFFFFFFFFFFFFFFFFFFFFFFFFFFFFFFFF AND DUP2 MSTORE PUSH1 0x20 ADD SWAP1 DUP2 MSTORE PUSH1 0x20 ADD PUSH1 0x0 KECCAK256 PUSH1 0x0 DUP5 PUSH20 0xFFFFFFFFFFFFFFFFFFFFFFFFFFFFFFFFFFFFFFFF AND PUSH20 0xFFFFFFFFFFFFFFFFFFFFFFFFFFFFFFFFFFFFFFFF AND DUP2 MSTORE PUSH1 0x20 ADD SWAP1 DUP2 MSTORE PUSH1 0x20 ADD PUSH1 0x0 KECCAK256 DUP2 SWAP1 SSTORE POP DUP2 PUSH20 0xFFFFFFFFFFFFFFFFFFFFFFFFFFFFFFFFFFFFFFFF AND DUP4 PUSH20 0xFFFFFFFFFFFFFFFFFFFFFFFFFFFFFFFFFFFFFFFF AND PUSH32 0x8C5BE1E5EBEC7D5BD14F71427D1E84F3DD0314C0F7B2291E5B200AC8C7C3B925 DUP4 PUSH1 0x40 MLOAD PUSH2 0x8BD SWAP2 SWAP1 PUSH2 0x1305 JUMP JUMPDEST PUSH1 0x40 MLOAD DUP1 SWAP2 SUB SWAP1 LOG3 POP POP POP JUMP JUMPDEST PUSH1 0x0 PUSH2 0x8D6 DUP5 DUP5 PUSH2 0x678 JUMP JUMPDEST SWAP1 POP PUSH32 0xFFFFFFFFFFFFFFFFFFFFFFFFFFFFFFFFFFFFFFFFFFFFFFFFFFFFFFFFFFFFFFFF DUP2 EQ PUSH2 0x950 JUMPI DUP2 DUP2 LT ISZERO PUSH2 0x942 JUMPI PUSH1 0x40 MLOAD PUSH32 0x8C379A000000000000000000000000000000000000000000000000000000000 DUP2 MSTORE PUSH1 0x4 ADD PUSH2 0x939 SWAP1 PUSH2 0x1225 JUMP JUMPDEST PUSH1 0x40 MLOAD DUP1 SWAP2 SUB SWAP1 REVERT JUMPDEST PUSH2 0x94F DUP5 DUP5 DUP5 DUP5 SUB PUSH2 0x6FF JUMP JUMPDEST JUMPDEST POP POP POP POP JUMP JUMPDEST PUSH1 0x0 PUSH20 0xFFFFFFFFFFFFFFFFFFFFFFFFFFFFFFFFFFFFFFFF AND DUP4 PUSH20 0xFFFFFFFFFFFFFFFFFFFFFFFFFFFFFFFFFFFFFFFF AND EQ ISZERO PUSH2 0x9C6 JUMPI PUSH1 0x40 MLOAD PUSH32 0x8C379A000000000000000000000000000000000000000000000000000000000 DUP2 MSTORE PUSH1 0x4 ADD PUSH2 0x9BD SWAP1 PUSH2 0x12A5 JUMP JUMPDEST PUSH1 0x40 MLOAD DUP1 SWAP2 SUB SWAP1 REVERT JUMPDEST PUSH1 0x0 PUSH20 0xFFFFFFFFFFFFFFFFFFFFFFFFFFFFFFFFFFFFFFFF AND DUP3 PUSH20 0xFFFFFFFFFFFFFFFFFFFFFFFFFFFFFFFFFFFFFFFF AND EQ ISZERO PUSH2 0xA36 JUMPI PUSH1 0x40 MLOAD PUSH32 0x8C379A000000000000000000000000000000000000000000000000000000000 DUP2 MSTORE PUSH1 0x4 ADD PUSH2 0xA2D SWAP1 PUSH2 0x1245 JUMP JUMPDEST PUSH1 0x40 MLOAD DUP1 SWAP2 SUB SWAP1 REVERT JUMPDEST PUSH1 0x0 PUSH1 0x1 PUSH1 0x0 DUP6 PUSH20 0xFFFFFFFFFFFFFFFFFFFFFFFFFFFFFFFFFFFFFFFF AND PUSH20 0xFFFFFFFFFFFFFFFFFFFFFFFFFFFFFFFFFFFFFFFF AND DUP2 MSTORE PUSH1 0x20 ADD SWAP1 DUP2 MSTORE PUSH1 0x20 ADD PUSH1 0x0 KECCAK256 SLOAD SWAP1 POP DUP2 DUP2 LT ISZERO PUSH2 0xABD JUMPI PUSH1 0x40 MLOAD PUSH32 0x8C379A000000000000000000000000000000000000000000000000000000000 DUP2 MSTORE PUSH1 0x4 ADD PUSH2 0xAB4 SWAP1 PUSH2 0x12C5 JUMP JUMPDEST PUSH1 0x40 MLOAD DUP1 SWAP2 SUB SWAP1 REVERT JUMPDEST DUP2 DUP2 SUB PUSH1 0x1 PUSH1 0x0 DUP7 PUSH20 0xFFFFFFFFFFFFFFFFFFFFFFFFFFFFFFFFFFFFFFFF AND PUSH20 0xFFFFFFFFFFFFFFFFFFFFFFFFFFFFFFFFFFFFFFFF AND DUP2 MSTORE PUSH1 0x20 ADD SWAP1 DUP2 MSTORE PUSH1 0x20 ADD PUSH1 0x0 KECCAK256 DUP2 SWAP1 SSTORE POP DUP2 PUSH1 0x1 PUSH1 0x0 DUP6 PUSH20 0xFFFFFFFFFFFFFFFFFFFFFFFFFFFFFFFFFFFFFFFF AND PUSH20 0xFFFFFFFFFFFFFFFFFFFFFFFFFFFFFFFFFFFFFFFF AND DUP2 MSTORE PUSH1 0x20 ADD SWAP1 DUP2 MSTORE PUSH1 0x20 ADD PUSH1 0x0 KECCAK256 SLOAD PUSH2 0xB4E SWAP2 SWAP1 PUSH2 0x1362 JUMP JUMPDEST PUSH1 0x1 PUSH1 0x0 DUP6 PUSH20 0xFFFFFFFFFFFFFFFFFFFFFFFFFFFFFFFFFFFFFFFF AND PUSH20 0xFFFFFFFFFFFFFFFFFFFFFFFFFFFFFFFFFFFFFFFF AND DUP2 MSTORE PUSH1 0x20 ADD SWAP1 DUP2 MSTORE PUSH1 0x20 ADD PUSH1 0x0 KECCAK256 DUP2 SWAP1 SSTORE POP DUP3 PUSH20 0xFFFFFFFFFFFFFFFFFFFFFFFFFFFFFFFFFFFFFFFF AND DUP5 PUSH20 0xFFFFFFFFFFFFFFFFFFFFFFFFFFFFFFFFFFFFFFFF AND PUSH32 0xDDF252AD1BE2C89B69C2B068FC378DAA952BA7F163C4A11628F55A4DF523B3EF DUP5 PUSH1 0x40 MLOAD PUSH2 0xBEE SWAP2 SWAP1 PUSH2 0x1305 JUMP JUMPDEST PUSH1 0x40 MLOAD DUP1 SWAP2 SUB SWAP1 LOG3 POP POP POP POP JUMP JUMPDEST PUSH1 0x0 PUSH32 0x8B73C3C69BB8FE3D512ECC4CF759CC79239F7B179B0FFACAA9A75D522B39400F PUSH1 0x0 SHL PUSH1 0x40 MLOAD DUP1 PUSH1 0x40 ADD PUSH1 0x40 MSTORE DUP1 PUSH1 0x7 DUP2 MSTORE PUSH1 0x20 ADD PUSH32 0x53696D7377617000000000000000000000000000000000000000000000000000 DUP2 MSTORE POP DUP1 MLOAD SWAP1 PUSH1 0x20 ADD KECCAK256 PUSH32 0xC89EFDAA54C0F20C7ADF612882DF0950F5A951637E0307CDCB4C672F298B8BC6 CHAINID ADDRESS PUSH1 0x40 MLOAD PUSH1 0x20 ADD PUSH2 0xC96 SWAP6 SWAP5 SWAP4 SWAP3 SWAP2 SWAP1 PUSH2 0x114B JUMP JUMPDEST PUSH1 0x40 MLOAD PUSH1 0x20 DUP2 DUP4 SUB SUB DUP2 MSTORE SWAP1 PUSH1 0x40 MSTORE DUP1 MLOAD SWAP1 PUSH1 0x20 ADD KECCAK256 SWAP1 POP SWAP1 JUMP JUMPDEST PUSH1 0x0 DUP2 CALLDATALOAD SWAP1 POP PUSH2 0xCC0 DUP2 PUSH2 0x16EE JUMP JUMPDEST SWAP3 SWAP2 POP POP JUMP JUMPDEST PUSH1 0x0 DUP2 CALLDATALOAD SWAP1 POP PUSH2 0xCD5 DUP2 PUSH2 0x1705 JUMP JUMPDEST SWAP3 SWAP2 POP POP JUMP JUMPDEST PUSH1 0x0 DUP2 CALLDATALOAD SWAP1 POP PUSH2 0xCEA DUP2 PUSH2 0x171C JUMP JUMPDEST SWAP3 SWAP2 POP POP JUMP JUMPDEST PUSH1 0x0 DUP2 CALLDATALOAD SWAP1 POP PUSH2 0xCFF DUP2 PUSH2 0x1733 JUMP JUMPDEST SWAP3 SWAP2 POP POP JUMP JUMPDEST PUSH1 0x0 PUSH1 0x20 DUP3 DUP5 SUB SLT ISZERO PUSH2 0xD1B JUMPI PUSH2 0xD1A PUSH2 0x1483 JUMP JUMPDEST JUMPDEST PUSH1 0x0 PUSH2 0xD29 DUP5 DUP3 DUP6 ADD PUSH2 0xCB1 JUMP JUMPDEST SWAP2 POP POP SWAP3 SWAP2 POP POP JUMP JUMPDEST PUSH1 0x0 DUP1 PUSH1 0x40 DUP4 DUP6 SUB SLT ISZERO PUSH2 0xD49 JUMPI PUSH2 0xD48 PUSH2 0x1483 JUMP JUMPDEST JUMPDEST PUSH1 0x0 PUSH2 0xD57 DUP6 DUP3 DUP7 ADD PUSH2 0xCB1 JUMP JUMPDEST SWAP3 POP POP PUSH1 0x20 PUSH2 0xD68 DUP6 DUP3 DUP7 ADD PUSH2 0xCB1 JUMP JUMPDEST SWAP2 POP POP SWAP3 POP SWAP3 SWAP1 POP JUMP JUMPDEST PUSH1 0x0 DUP1 PUSH1 0x0 PUSH1 0x60 DUP5 DUP7 SUB SLT ISZERO PUSH2 0xD8B JUMPI PUSH2 0xD8A PUSH2 0x1483 JUMP JUMPDEST JUMPDEST PUSH1 0x0 PUSH2 0xD99 DUP7 DUP3 DUP8 ADD PUSH2 0xCB1 JUMP JUMPDEST SWAP4 POP POP PUSH1 0x20 PUSH2 0xDAA DUP7 DUP3 DUP8 ADD PUSH2 0xCB1 JUMP JUMPDEST SWAP3 POP POP PUSH1 0x40 PUSH2 0xDBB DUP7 DUP3 DUP8 ADD PUSH2 0xCDB JUMP JUMPDEST SWAP2 POP POP SWAP3 POP SWAP3 POP SWAP3 JUMP JUMPDEST PUSH1 0x0 DUP1 PUSH1 0x0 DUP1 PUSH1 0x0 DUP1 PUSH1 0x0 PUSH1 0xE0 DUP9 DUP11 SUB SLT ISZERO PUSH2 0xDE4 JUMPI PUSH2 0xDE3 PUSH2 0x1483 JUMP JUMPDEST JUMPDEST PUSH1 0x0 PUSH2 0xDF2 DUP11 DUP3 DUP12 ADD PUSH2 0xCB1 JUMP JUMPDEST SWAP8 POP POP PUSH1 0x20 PUSH2 0xE03 DUP11 DUP3 DUP12 ADD PUSH2 0xCB1 JUMP JUMPDEST SWAP7 POP POP PUSH1 0x40 PUSH2 0xE14 DUP11 DUP3 DUP12 ADD PUSH2 0xCDB JUMP JUMPDEST SWAP6 POP POP PUSH1 0x60 PUSH2 0xE25 DUP11 DUP3 DUP12 ADD PUSH2 0xCDB JUMP JUMPDEST SWAP5 POP POP PUSH1 0x80 PUSH2 0xE36 DUP11 DUP3 DUP12 ADD PUSH2 0xCF0 JUMP JUMPDEST SWAP4 POP POP PUSH1 0xA0 PUSH2 0xE47 DUP11 DUP3 DUP12 ADD PUSH2 0xCC6 JUMP JUMPDEST SWAP3 POP POP PUSH1 0xC0 PUSH2 0xE58 DUP11 DUP3 DUP12 ADD PUSH2 0xCC6 JUMP JUMPDEST SWAP2 POP POP SWAP3 SWAP6 SWAP9 SWAP2 SWAP5 SWAP8 POP SWAP3 SWAP6 POP JUMP JUMPDEST PUSH1 0x0 DUP1 PUSH1 0x40 DUP4 DUP6 SUB SLT ISZERO PUSH2 0xE7E JUMPI PUSH2 0xE7D PUSH2 0x1483 JUMP JUMPDEST JUMPDEST PUSH1 0x0 PUSH2 0xE8C DUP6 DUP3 DUP7 ADD PUSH2 0xCB1 JUMP JUMPDEST SWAP3 POP POP PUSH1 0x20 PUSH2 0xE9D DUP6 DUP3 DUP7 ADD PUSH2 0xCDB JUMP JUMPDEST SWAP2 POP POP SWAP3 POP SWAP3 SWAP1 POP JUMP JUMPDEST PUSH2 0xEB0 DUP2 PUSH2 0x13B8 JUMP JUMPDEST DUP3 MSTORE POP POP JUMP JUMPDEST PUSH2 0xEBF DUP2 PUSH2 0x13CA JUMP JUMPDEST DUP3 MSTORE POP POP JUMP JUMPDEST PUSH2 0xECE DUP2 PUSH2 0x13D6 JUMP JUMPDEST DUP3 MSTORE POP POP JUMP JUMPDEST PUSH2 0xEE5 PUSH2 0xEE0 DUP3 PUSH2 0x13D6 JUMP JUMPDEST PUSH2 0x144A JUMP JUMPDEST DUP3 MSTORE POP POP JUMP JUMPDEST PUSH1 0x0 PUSH2 0xEF6 DUP3 PUSH2 0x133B JUMP JUMPDEST PUSH2 0xF00 DUP2 DUP6 PUSH2 0x1346 JUMP JUMPDEST SWAP4 POP PUSH2 0xF10 DUP2 DUP6 PUSH1 0x20 DUP7 ADD PUSH2 0x1417 JUMP JUMPDEST PUSH2 0xF19 DUP2 PUSH2 0x1488 JUMP JUMPDEST DUP5 ADD SWAP2 POP POP SWAP3 SWAP2 POP POP JUMP JUMPDEST PUSH1 0x0 PUSH2 0xF31 PUSH1 0x1A DUP4 PUSH2 0x1346 JUMP JUMPDEST SWAP2 POP PUSH2 0xF3C DUP3 PUSH2 0x1499 JUMP JUMPDEST PUSH1 0x20 DUP3 ADD SWAP1 POP SWAP2 SWAP1 POP JUMP JUMPDEST PUSH1 0x0 PUSH2 0xF54 PUSH1 0x24 DUP4 PUSH2 0x1346 JUMP JUMPDEST SWAP2 POP PUSH2 0xF5F DUP3 PUSH2 0x14C2 JUMP JUMPDEST PUSH1 0x40 DUP3 ADD SWAP1 POP SWAP2 SWAP1 POP JUMP JUMPDEST PUSH1 0x0 PUSH2 0xF77 PUSH1 0x2 DUP4 PUSH2 0x1357 JUMP JUMPDEST SWAP2 POP PUSH2 0xF82 DUP3 PUSH2 0x1511 JUMP JUMPDEST PUSH1 0x2 DUP3 ADD SWAP1 POP SWAP2 SWAP1 POP JUMP JUMPDEST PUSH1 0x0 PUSH2 0xF9A PUSH1 0x2A DUP4 PUSH2 0x1346 JUMP JUMPDEST SWAP2 POP PUSH2 0xFA5 DUP3 PUSH2 0x153A JUMP JUMPDEST PUSH1 0x40 DUP3 ADD SWAP1 POP SWAP2 SWAP1 POP JUMP JUMPDEST PUSH1 0x0 PUSH2 0xFBD PUSH1 0x10 DUP4 PUSH2 0x1346 JUMP JUMPDEST SWAP2 POP PUSH2 0xFC8 DUP3 PUSH2 0x1589 JUMP JUMPDEST PUSH1 0x20 DUP3 ADD SWAP1 POP SWAP2 SWAP1 POP JUMP JUMPDEST PUSH1 0x0 PUSH2 0xFE0 PUSH1 0x2B DUP4 PUSH2 0x1346 JUMP JUMPDEST SWAP2 POP PUSH2 0xFEB DUP3 PUSH2 0x15B2 JUMP JUMPDEST PUSH1 0x40 DUP3 ADD SWAP1 POP SWAP2 SWAP1 POP JUMP JUMPDEST PUSH1 0x0 PUSH2 0x1003 PUSH1 0x2C DUP4 PUSH2 0x1346 JUMP JUMPDEST SWAP2 POP PUSH2 0x100E DUP3 PUSH2 0x1601 JUMP JUMPDEST PUSH1 0x40 DUP3 ADD SWAP1 POP SWAP2 SWAP1 POP JUMP JUMPDEST PUSH1 0x0 PUSH2 0x1026 PUSH1 0x2D DUP4 PUSH2 0x1346 JUMP JUMPDEST SWAP2 POP PUSH2 0x1031 DUP3 PUSH2 0x1650 JUMP JUMPDEST PUSH1 0x40 DUP3 ADD SWAP1 POP SWAP2 SWAP1 POP JUMP JUMPDEST PUSH1 0x0 PUSH2 0x1049 PUSH1 0x29 DUP4 PUSH2 0x1346 JUMP JUMPDEST SWAP2 POP PUSH2 0x1054 DUP3 PUSH2 0x169F JUMP JUMPDEST PUSH1 0x40 DUP3 ADD SWAP1 POP SWAP2 SWAP1 POP JUMP JUMPDEST PUSH2 0x1068 DUP2 PUSH2 0x1400 JUMP JUMPDEST DUP3 MSTORE POP POP JUMP JUMPDEST PUSH2 0x1077 DUP2 PUSH2 0x140A JUMP JUMPDEST DUP3 MSTORE POP POP JUMP JUMPDEST PUSH1 0x0 PUSH2 0x1088 DUP3 PUSH2 0xF6A JUMP JUMPDEST SWAP2 POP PUSH2 0x1094 DUP3 DUP6 PUSH2 0xED4 JUMP JUMPDEST PUSH1 0x20 DUP3 ADD SWAP2 POP PUSH2 0x10A4 DUP3 DUP5 PUSH2 0xED4 JUMP JUMPDEST PUSH1 0x20 DUP3 ADD SWAP2 POP DUP2 SWAP1 POP SWAP4 SWAP3 POP POP POP JUMP JUMPDEST PUSH1 0x0 PUSH1 0x20 DUP3 ADD SWAP1 POP PUSH2 0x10C9 PUSH1 0x0 DUP4 ADD DUP5 PUSH2 0xEB6 JUMP JUMPDEST SWAP3 SWAP2 POP POP JUMP JUMPDEST PUSH1 0x0 PUSH1 0x20 DUP3 ADD SWAP1 POP PUSH2 0x10E4 PUSH1 0x0 DUP4 ADD DUP5 PUSH2 0xEC5 JUMP JUMPDEST SWAP3 SWAP2 POP POP JUMP JUMPDEST PUSH1 0x0 PUSH1 0xC0 DUP3 ADD SWAP1 POP PUSH2 0x10FF PUSH1 0x0 DUP4 ADD DUP10 PUSH2 0xEC5 JUMP JUMPDEST PUSH2 0x110C PUSH1 0x20 DUP4 ADD DUP9 PUSH2 0xEA7 JUMP JUMPDEST PUSH2 0x1119 PUSH1 0x40 DUP4 ADD DUP8 PUSH2 0xEA7 JUMP JUMPDEST PUSH2 0x1126 PUSH1 0x60 DUP4 ADD DUP7 PUSH2 0x105F JUMP JUMPDEST PUSH2 0x1133 PUSH1 0x80 DUP4 ADD DUP6 PUSH2 0x105F JUMP JUMPDEST PUSH2 0x1140 PUSH1 0xA0 DUP4 ADD DUP5 PUSH2 0x105F JUMP JUMPDEST SWAP8 SWAP7 POP POP POP POP POP POP POP JUMP JUMPDEST PUSH1 0x0 PUSH1 0xA0 DUP3 ADD SWAP1 POP PUSH2 0x1160 PUSH1 0x0 DUP4 ADD DUP9 PUSH2 0xEC5 JUMP JUMPDEST PUSH2 0x116D PUSH1 0x20 DUP4 ADD DUP8 PUSH2 0xEC5 JUMP JUMPDEST PUSH2 0x117A PUSH1 0x40 DUP4 ADD DUP7 PUSH2 0xEC5 JUMP JUMPDEST PUSH2 0x1187 PUSH1 0x60 DUP4 ADD DUP6 PUSH2 0x105F JUMP JUMPDEST PUSH2 0x1194 PUSH1 0x80 DUP4 ADD DUP5 PUSH2 0xEA7 JUMP JUMPDEST SWAP7 SWAP6 POP POP POP POP POP POP JUMP JUMPDEST PUSH1 0x0 PUSH1 0x80 DUP3 ADD SWAP1 POP PUSH2 0x11B3 PUSH1 0x0 DUP4 ADD DUP8 PUSH2 0xEC5 JUMP JUMPDEST PUSH2 0x11C0 PUSH1 0x20 DUP4 ADD DUP7 PUSH2 0x106E JUMP JUMPDEST PUSH2 0x11CD PUSH1 0x40 DUP4 ADD DUP6 PUSH2 0xEC5 JUMP JUMPDEST PUSH2 0x11DA PUSH1 0x60 DUP4 ADD DUP5 PUSH2 0xEC5 JUMP JUMPDEST SWAP6 SWAP5 POP POP POP POP POP JUMP JUMPDEST PUSH1 0x0 PUSH1 0x20 DUP3 ADD SWAP1 POP DUP2 DUP2 SUB PUSH1 0x0 DUP4 ADD MSTORE PUSH2 0x11FD DUP2 DUP5 PUSH2 0xEEB JUMP JUMPDEST SWAP1 POP SWAP3 SWAP2 POP POP JUMP JUMPDEST PUSH1 0x0 PUSH1 0x20 DUP3 ADD SWAP1 POP DUP2 DUP2 SUB PUSH1 0x0 DUP4 ADD MSTORE PUSH2 0x121E DUP2 PUSH2 0xF24 JUMP JUMPDEST SWAP1 POP SWAP2 SWAP1 POP JUMP JUMPDEST PUSH1 0x0 PUSH1 0x20 DUP3 ADD SWAP1 POP DUP2 DUP2 SUB PUSH1 0x0 DUP4 ADD MSTORE PUSH2 0x123E DUP2 PUSH2 0xF47 JUMP JUMPDEST SWAP1 POP SWAP2 SWAP1 POP JUMP JUMPDEST PUSH1 0x0 PUSH1 0x20 DUP3 ADD SWAP1 POP DUP2 DUP2 SUB PUSH1 0x0 DUP4 ADD MSTORE PUSH2 0x125E DUP2 PUSH2 0xF8D JUMP JUMPDEST SWAP1 POP SWAP2 SWAP1 POP JUMP JUMPDEST PUSH1 0x0 PUSH1 0x20 DUP3 ADD SWAP1 POP DUP2 DUP2 SUB PUSH1 0x0 DUP4 ADD MSTORE PUSH2 0x127E DUP2 PUSH2 0xFB0 JUMP JUMPDEST SWAP1 POP SWAP2 SWAP1 POP JUMP JUMPDEST PUSH1 0x0 PUSH1 0x20 DUP3 ADD SWAP1 POP DUP2 DUP2 SUB PUSH1 0x0 DUP4 ADD MSTORE PUSH2 0x129E DUP2 PUSH2 0xFD3 JUMP JUMPDEST SWAP1 POP SWAP2 SWAP1 POP JUMP JUMPDEST PUSH1 0x0 PUSH1 0x20 DUP3 ADD SWAP1 POP DUP2 DUP2 SUB PUSH1 0x0 DUP4 ADD MSTORE PUSH2 0x12BE DUP2 PUSH2 0xFF6 JUMP JUMPDEST SWAP1 POP SWAP2 SWAP1 POP JUMP JUMPDEST PUSH1 0x0 PUSH1 0x20 DUP3 ADD SWAP1 POP DUP2 DUP2 SUB PUSH1 0x0 DUP4 ADD MSTORE PUSH2 0x12DE DUP2 PUSH2 0x1019 JUMP JUMPDEST SWAP1 POP SWAP2 SWAP1 POP JUMP JUMPDEST PUSH1 0x0 PUSH1 0x20 DUP3 ADD SWAP1 POP DUP2 DUP2 SUB PUSH1 0x0 DUP4 ADD MSTORE PUSH2 0x12FE DUP2 PUSH2 0x103C JUMP JUMPDEST SWAP1 POP SWAP2 SWAP1 POP JUMP JUMPDEST PUSH1 0x0 PUSH1 0x20 DUP3 ADD SWAP1 POP PUSH2 0x131A PUSH1 0x0 DUP4 ADD DUP5 PUSH2 0x105F JUMP JUMPDEST SWAP3 SWAP2 POP POP JUMP JUMPDEST PUSH1 0x0 PUSH1 0x20 DUP3 ADD SWAP1 POP PUSH2 0x1335 PUSH1 0x0 DUP4 ADD DUP5 PUSH2 0x106E JUMP JUMPDEST SWAP3 SWAP2 POP POP JUMP JUMPDEST PUSH1 0x0 DUP2 MLOAD SWAP1 POP SWAP2 SWAP1 POP JUMP JUMPDEST PUSH1 0x0 DUP3 DUP3 MSTORE PUSH1 0x20 DUP3 ADD SWAP1 POP SWAP3 SWAP2 POP POP JUMP JUMPDEST PUSH1 0x0 DUP2 SWAP1 POP SWAP3 SWAP2 POP POP JUMP JUMPDEST PUSH1 0x0 PUSH2 0x136D DUP3 PUSH2 0x1400 JUMP JUMPDEST SWAP2 POP PUSH2 0x1378 DUP4 PUSH2 0x1400 JUMP JUMPDEST SWAP3 POP DUP3 PUSH32 0xFFFFFFFFFFFFFFFFFFFFFFFFFFFFFFFFFFFFFFFFFFFFFFFFFFFFFFFFFFFFFFFF SUB DUP3 GT ISZERO PUSH2 0x13AD JUMPI PUSH2 0x13AC PUSH2 0x1454 JUMP JUMPDEST JUMPDEST DUP3 DUP3 ADD SWAP1 POP SWAP3 SWAP2 POP POP JUMP JUMPDEST PUSH1 0x0 PUSH2 0x13C3 DUP3 PUSH2 0x13E0 JUMP JUMPDEST SWAP1 POP SWAP2 SWAP1 POP JUMP JUMPDEST PUSH1 0x0 DUP2 ISZERO ISZERO SWAP1 POP SWAP2 SWAP1 POP JUMP JUMPDEST PUSH1 0x0 DUP2 SWAP1 POP SWAP2 SWAP1 POP JUMP JUMPDEST PUSH1 0x0 PUSH20 0xFFFFFFFFFFFFFFFFFFFFFFFFFFFFFFFFFFFFFFFF DUP3 AND SWAP1 POP SWAP2 SWAP1 POP JUMP JUMPDEST PUSH1 0x0 DUP2 SWAP1 POP SWAP2 SWAP1 POP JUMP JUMPDEST PUSH1 0x0 PUSH1 0xFF DUP3 AND SWAP1 POP SWAP2 SWAP1 POP JUMP JUMPDEST PUSH1 0x0 JUMPDEST DUP4 DUP2 LT ISZERO PUSH2 0x1435 JUMPI DUP1 DUP3 ADD MLOAD DUP2 DUP5 ADD MSTORE PUSH1 0x20 DUP2 ADD SWAP1 POP PUSH2 0x141A JUMP JUMPDEST DUP4 DUP2 GT ISZERO PUSH2 0x1444 JUMPI PUSH1 0x0 DUP5 DUP5 ADD MSTORE JUMPDEST POP POP POP POP JUMP JUMPDEST PUSH1 0x0 DUP2 SWAP1 POP SWAP2 SWAP1 POP JUMP JUMPDEST PUSH32 0x4E487B7100000000000000000000000000000000000000000000000000000000 PUSH1 0x0 MSTORE PUSH1 0x11 PUSH1 0x4 MSTORE PUSH1 0x24 PUSH1 0x0 REVERT JUMPDEST PUSH1 0x0 DUP1 REVERT JUMPDEST PUSH1 0x0 PUSH1 0x1F NOT PUSH1 0x1F DUP4 ADD AND SWAP1 POP SWAP2 SWAP1 POP JUMP JUMPDEST PUSH32 0x53696D737761703A20494E56414C49445F5349474E4154555245000000000000 PUSH1 0x0 DUP3 ADD MSTORE POP JUMP JUMPDEST PUSH32 0x53696D7377617045524332303A20696E73756666696369656E7420616C6C6F77 PUSH1 0x0 DUP3 ADD MSTORE PUSH32 0x616E636500000000000000000000000000000000000000000000000000000000 PUSH1 0x20 DUP3 ADD MSTORE POP JUMP JUMPDEST PUSH32 0x1901000000000000000000000000000000000000000000000000000000000000 PUSH1 0x0 DUP3 ADD MSTORE POP JUMP JUMPDEST PUSH32 0x53696D7377617045524332303A207472616E7366657220746F20746865207A65 PUSH1 0x0 DUP3 ADD MSTORE PUSH32 0x726F206164647265737300000000000000000000000000000000000000000000 PUSH1 0x20 DUP3 ADD MSTORE POP JUMP JUMPDEST PUSH32 0x53696D737761703A204558504952454400000000000000000000000000000000 PUSH1 0x0 DUP3 ADD MSTORE POP JUMP JUMPDEST PUSH32 0x53696D7377617045524332303A20617070726F76652066726F6D20746865207A PUSH1 0x0 DUP3 ADD MSTORE PUSH32 0x65726F2061646472657373000000000000000000000000000000000000000000 PUSH1 0x20 DUP3 ADD MSTORE POP JUMP JUMPDEST PUSH32 0x53696D7377617045524332303A207472616E736665722066726F6D2074686520 PUSH1 0x0 DUP3 ADD MSTORE PUSH32 0x7A65726F20616464726573730000000000000000000000000000000000000000 PUSH1 0x20 DUP3 ADD MSTORE POP JUMP JUMPDEST PUSH32 0x53696D7377617045524332303A207472616E7366657220616D6F756E74206578 PUSH1 0x0 DUP3 ADD MSTORE PUSH32 0x63656564732062616C616E636500000000000000000000000000000000000000 PUSH1 0x20 DUP3 ADD MSTORE POP JUMP JUMPDEST PUSH32 0x53696D7377617045524332303A20617070726F766520746F20746865207A6572 PUSH1 0x0 DUP3 ADD MSTORE PUSH32 0x6F20616464726573730000000000000000000000000000000000000000000000 PUSH1 0x20 DUP3 ADD MSTORE POP JUMP JUMPDEST PUSH2 0x16F7 DUP2 PUSH2 0x13B8 JUMP JUMPDEST DUP2 EQ PUSH2 0x1702 JUMPI PUSH1 0x0 DUP1 REVERT JUMPDEST POP JUMP JUMPDEST PUSH2 0x170E DUP2 PUSH2 0x13D6 JUMP JUMPDEST DUP2 EQ PUSH2 0x1719 JUMPI PUSH1 0x0 DUP1 REVERT JUMPDEST POP JUMP JUMPDEST PUSH2 0x1725 DUP2 PUSH2 0x1400 JUMP JUMPDEST DUP2 EQ PUSH2 0x1730 JUMPI PUSH1 0x0 DUP1 REVERT JUMPDEST POP JUMP JUMPDEST PUSH2 0x173C DUP2 PUSH2 0x140A JUMP JUMPDEST DUP2 EQ PUSH2 0x1747 JUMPI PUSH1 0x0 DUP1 REVERT JUMPDEST POP JUMP INVALID LOG2 PUSH5 0x6970667358 0x22 SLT KECCAK256 STOP PUSH8 0x9485E8959D3EEDB6 RETURN 0xF8 LOG1 SWAP6 0xBD SWAP1 DUP4 0x27 0x23 DUP11 0x5F 0x2A SSTORE 0xC1 0xE4 0xF 0xA8 ISZERO 0xCE MULMOD PUSH18 0xA064736F6C63430008070033000000000000 "
				},
				"gasEstimates": {
					"creation": {
						"codeDepositCost": "1203200",
						"executionCost": "infinite",
						"totalCost": "infinite"
					},
					"external": {
						"DOMAIN_SEPARATOR()": "infinite",
						"allowance(address,address)": "infinite",
						"approve(address,uint256)": "infinite",
						"balanceOf(address)": "2841",
						"decimals()": "432",
						"name()": "infinite",
						"nonces(address)": "2863",
						"permit(address,address,uint256,uint256,uint8,bytes32,bytes32)": "infinite",
						"symbol()": "infinite",
						"totalSupply()": "2482",
						"transfer(address,uint256)": "infinite",
						"transferFrom(address,address,uint256)": "infinite"
					},
					"internal": {
						"_approve(address,address,uint256)": "infinite",
						"_burn(address,uint256)": "infinite",
						"_mint(address,uint256)": "infinite",
						"_spendAllowance(address,address,uint256)": "infinite",
						"_transfer(address,address,uint256)": "infinite",
						"computeDomainSeparator()": "infinite"
					}
				},
				"methodIdentifiers": {
					"DOMAIN_SEPARATOR()": "3644e515",
					"allowance(address,address)": "dd62ed3e",
					"approve(address,uint256)": "095ea7b3",
					"balanceOf(address)": "70a08231",
					"decimals()": "313ce567",
					"name()": "06fdde03",
					"nonces(address)": "7ecebe00",
					"permit(address,address,uint256,uint256,uint8,bytes32,bytes32)": "d505accf",
					"symbol()": "95d89b41",
					"totalSupply()": "18160ddd",
					"transfer(address,uint256)": "a9059cbb",
					"transferFrom(address,address,uint256)": "23b872dd"
				}
			},
			"storageLayout": {
				"storage": [
					{
						"astId": 19,
						"contract": "contracts/SimswapERC20.sol:SimswapERC20",
						"label": "_totalSupply",
						"offset": 0,
						"slot": "0",
						"type": "t_uint256"
					},
					{
						"astId": 23,
						"contract": "contracts/SimswapERC20.sol:SimswapERC20",
						"label": "_balances",
						"offset": 0,
						"slot": "1",
						"type": "t_mapping(t_address,t_uint256)"
					},
					{
						"astId": 29,
						"contract": "contracts/SimswapERC20.sol:SimswapERC20",
						"label": "_allowances",
						"offset": 0,
						"slot": "2",
						"type": "t_mapping(t_address,t_mapping(t_address,t_uint256))"
					},
					{
						"astId": 43,
						"contract": "contracts/SimswapERC20.sol:SimswapERC20",
						"label": "_nonces",
						"offset": 0,
						"slot": "3",
						"type": "t_mapping(t_address,t_uint256)"
					}
				],
				"types": {
					"t_address": {
						"encoding": "inplace",
						"label": "address",
						"numberOfBytes": "20"
					},
					"t_mapping(t_address,t_mapping(t_address,t_uint256))": {
						"encoding": "mapping",
						"key": "t_address",
						"label": "mapping(address => mapping(address => uint256))",
						"numberOfBytes": "32",
						"value": "t_mapping(t_address,t_uint256)"
					},
					"t_mapping(t_address,t_uint256)": {
						"encoding": "mapping",
						"key": "t_address",
						"label": "mapping(address => uint256)",
						"numberOfBytes": "32",
						"value": "t_uint256"
					},
					"t_uint256": {
						"encoding": "inplace",
						"label": "uint256",
						"numberOfBytes": "32"
					}
				}
			},
			"userdoc": {
				"kind": "user",
				"methods": {},
				"version": 1
			}
		}
	}
}